{
  "_format": "hh-sol-artifact-1",
  "contractName": "MultiSigVault",
  "sourceName": "contracts/core/VaultTypes/MultiSigVault.sol",
  "abi": [
    {
      "inputs": [
        {
          "internalType": "address",
          "name": "_owner",
          "type": "address"
        },
        {
          "internalType": "string",
          "name": "_name",
          "type": "string"
        },
        {
          "internalType": "string",
          "name": "_description",
          "type": "string"
        },
        {
          "internalType": "string",
          "name": "_category",
          "type": "string"
        },
        {
          "internalType": "string",
          "name": "_imageURI",
          "type": "string"
        },
        {
          "internalType": "bool",
          "name": "_isPublic",
          "type": "bool"
        },
        {
          "internalType": "uint256",
          "name": "_targetAmount",
          "type": "uint256"
        },
        {
          "internalType": "address[]",
          "name": "_initialCoAdmins",
          "type": "address[]"
        },
        {
          "internalType": "uint256",
          "name": "_requiredApprovals",
          "type": "uint256"
        }
      ],
      "stateMutability": "nonpayable",
      "type": "constructor"
    },
    {
      "inputs": [
        {
          "internalType": "address",
          "name": "owner",
          "type": "address"
        }
      ],
      "name": "OwnableInvalidOwner",
      "type": "error"
    },
    {
      "inputs": [
        {
          "internalType": "address",
          "name": "account",
          "type": "address"
        }
      ],
      "name": "OwnableUnauthorizedAccount",
      "type": "error"
    },
    {
      "inputs": [],
      "name": "ReentrancyGuardReentrantCall",
      "type": "error"
    },
    {
      "anonymous": false,
      "inputs": [
        {
          "indexed": true,
          "internalType": "address",
          "name": "admin",
          "type": "address"
        }
      ],
      "name": "CoAdminAdded",
      "type": "event"
    },
    {
      "anonymous": false,
      "inputs": [
        {
          "indexed": true,
          "internalType": "address",
          "name": "vaultAddress",
          "type": "address"
        },
        {
          "indexed": true,
          "internalType": "address",
          "name": "coAdmin",
          "type": "address"
        }
      ],
      "name": "CoAdminAdded",
      "type": "event"
    },
    {
      "anonymous": false,
      "inputs": [
        {
          "indexed": true,
          "internalType": "address",
          "name": "admin",
          "type": "address"
        }
      ],
      "name": "CoAdminRemoved",
      "type": "event"
    },
    {
      "anonymous": false,
      "inputs": [
        {
          "indexed": true,
          "internalType": "address",
          "name": "vaultAddress",
          "type": "address"
        },
        {
          "indexed": true,
          "internalType": "address",
          "name": "coAdmin",
          "type": "address"
        }
      ],
      "name": "CoAdminRemoved",
      "type": "event"
    },
    {
      "anonymous": false,
      "inputs": [
        {
          "indexed": true,
          "internalType": "address",
          "name": "depositor",
          "type": "address"
        },
        {
          "indexed": false,
          "internalType": "uint256",
          "name": "amount",
          "type": "uint256"
        }
      ],
      "name": "Deposit",
      "type": "event"
    },
    {
      "anonymous": false,
      "inputs": [
        {
          "indexed": true,
          "internalType": "address",
          "name": "vaultAddress",
          "type": "address"
        },
        {
          "indexed": true,
          "internalType": "address",
          "name": "protocol",
          "type": "address"
        },
        {
          "indexed": false,
          "internalType": "uint256",
          "name": "amount",
          "type": "uint256"
        }
      ],
      "name": "FundsInvested",
      "type": "event"
    },
    {
      "anonymous": false,
      "inputs": [
        {
          "indexed": true,
          "internalType": "address",
          "name": "vaultAddress",
          "type": "address"
        },
        {
          "indexed": true,
          "internalType": "address",
          "name": "protocol",
          "type": "address"
        },
        {
          "indexed": false,
          "internalType": "uint256",
          "name": "amount",
          "type": "uint256"
        },
        {
          "indexed": false,
          "internalType": "uint256",
          "name": "profit",
          "type": "uint256"
        }
      ],
      "name": "InvestmentRedeemed",
      "type": "event"
    },
    {
      "anonymous": false,
      "inputs": [
        {
          "indexed": true,
          "internalType": "address",
          "name": "previousOwner",
          "type": "address"
        },
        {
          "indexed": true,
          "internalType": "address",
          "name": "newOwner",
          "type": "address"
        }
      ],
      "name": "OwnershipTransferred",
      "type": "event"
    },
    {
      "anonymous": false,
      "inputs": [
        {
          "indexed": true,
          "internalType": "uint256",
          "name": "proposalId",
          "type": "uint256"
        },
        {
          "indexed": true,
          "internalType": "address",
          "name": "approver",
          "type": "address"
        }
      ],
      "name": "ProposalApproved",
      "type": "event"
    },
    {
      "anonymous": false,
      "inputs": [
        {
          "indexed": true,
          "internalType": "uint256",
          "name": "proposalId",
          "type": "uint256"
        }
      ],
      "name": "ProposalCancelled",
      "type": "event"
    },
    {
      "anonymous": false,
      "inputs": [
        {
          "indexed": true,
          "internalType": "uint256",
          "name": "proposalId",
          "type": "uint256"
        },
        {
          "indexed": true,
          "internalType": "address",
          "name": "recipient",
          "type": "address"
        },
        {
          "indexed": false,
          "internalType": "uint256",
          "name": "amount",
          "type": "uint256"
        }
      ],
      "name": "ProposalCreated",
      "type": "event"
    },
    {
      "anonymous": false,
      "inputs": [
        {
          "indexed": true,
          "internalType": "uint256",
          "name": "proposalId",
          "type": "uint256"
        }
      ],
      "name": "ProposalExecuted",
      "type": "event"
    },
    {
      "anonymous": false,
      "inputs": [
        {
          "indexed": false,
          "internalType": "uint256",
          "name": "newRequired",
          "type": "uint256"
        }
      ],
      "name": "RequiredApprovalsChanged",
      "type": "event"
    },
    {
      "anonymous": false,
      "inputs": [
        {
          "indexed": true,
          "internalType": "address",
          "name": "vaultAddress",
          "type": "address"
        },
        {
          "indexed": false,
          "internalType": "uint256",
          "name": "previousTarget",
          "type": "uint256"
        },
        {
          "indexed": false,
          "internalType": "uint256",
          "name": "newTarget",
          "type": "uint256"
        }
      ],
      "name": "TargetAmountUpdated",
      "type": "event"
    },
    {
      "anonymous": false,
      "inputs": [
        {
          "indexed": true,
          "internalType": "address",
          "name": "vaultAddress",
          "type": "address"
        },
        {
          "indexed": false,
          "internalType": "uint256",
          "name": "targetAmount",
          "type": "uint256"
        },
        {
          "indexed": false,
          "internalType": "uint256",
          "name": "timestamp",
          "type": "uint256"
        }
      ],
      "name": "TargetReached",
      "type": "event"
    },
    {
      "anonymous": false,
      "inputs": [
        {
          "indexed": true,
          "internalType": "address",
          "name": "vaultAddress",
          "type": "address"
        },
        {
          "indexed": false,
          "internalType": "uint256",
          "name": "durationInSeconds",
          "type": "uint256"
        }
      ],
      "name": "TimelockSet",
      "type": "event"
    },
    {
      "anonymous": false,
      "inputs": [
        {
          "indexed": true,
          "internalType": "address",
          "name": "vaultAddress",
          "type": "address"
        },
        {
          "indexed": true,
          "internalType": "uint256",
          "name": "operationId",
          "type": "uint256"
        }
      ],
      "name": "TimelockWithdrawalCancelled",
      "type": "event"
    },
    {
      "anonymous": false,
      "inputs": [
        {
          "indexed": true,
          "internalType": "address",
          "name": "vaultAddress",
          "type": "address"
        },
        {
          "indexed": true,
          "internalType": "uint256",
          "name": "operationId",
          "type": "uint256"
        }
      ],
      "name": "TimelockWithdrawalExecuted",
      "type": "event"
    },
    {
      "anonymous": false,
      "inputs": [
        {
          "indexed": true,
          "internalType": "address",
          "name": "vaultAddress",
          "type": "address"
        },
        {
          "indexed": true,
          "internalType": "uint256",
          "name": "operationId",
          "type": "uint256"
        },
        {
          "indexed": false,
          "internalType": "address",
          "name": "recipient",
          "type": "address"
        },
        {
          "indexed": false,
          "internalType": "uint256",
          "name": "amount",
          "type": "uint256"
        },
        {
          "indexed": false,
          "internalType": "uint256",
          "name": "executeAfter",
          "type": "uint256"
        }
      ],
      "name": "TimelockWithdrawalScheduled",
      "type": "event"
    },
    {
      "anonymous": false,
      "inputs": [
        {
          "indexed": false,
          "internalType": "string",
          "name": "name",
          "type": "string"
        },
        {
          "indexed": false,
          "internalType": "string",
          "name": "description",
          "type": "string"
        },
        {
          "indexed": false,
          "internalType": "string",
          "name": "category",
          "type": "string"
        },
        {
          "indexed": false,
          "internalType": "string",
          "name": "imageURI",
          "type": "string"
        }
      ],
      "name": "VaultConfigUpdated",
      "type": "event"
    },
    {
      "anonymous": false,
      "inputs": [
        {
          "indexed": true,
          "internalType": "address",
          "name": "vaultAddress",
          "type": "address"
        },
        {
          "indexed": true,
          "internalType": "address",
          "name": "owner",
          "type": "address"
        },
        {
          "indexed": false,
          "internalType": "string",
          "name": "name",
          "type": "string"
        },
        {
          "indexed": false,
          "internalType": "string",
          "name": "description",
          "type": "string"
        },
        {
          "indexed": false,
          "internalType": "string",
          "name": "category",
          "type": "string"
        },
        {
          "indexed": false,
          "internalType": "string",
          "name": "imageURI",
          "type": "string"
        },
        {
          "indexed": false,
          "internalType": "bool",
          "name": "isPublic",
          "type": "bool"
        },
        {
          "indexed": false,
          "internalType": "uint256",
          "name": "targetAmount",
          "type": "uint256"
        },
        {
          "indexed": false,
          "internalType": "uint8",
          "name": "vaultType",
          "type": "uint8"
        }
      ],
      "name": "VaultCreated",
      "type": "event"
    },
    {
      "anonymous": false,
      "inputs": [
        {
          "indexed": true,
          "internalType": "address",
          "name": "vaultAddress",
          "type": "address"
        },
        {
          "indexed": false,
          "internalType": "uint256",
          "name": "amount",
          "type": "uint256"
        },
        {
          "indexed": false,
          "internalType": "uint256",
          "name": "currentTotal",
          "type": "uint256"
        },
        {
          "indexed": false,
          "internalType": "uint256",
          "name": "targetAmount",
          "type": "uint256"
        },
        {
          "indexed": false,
          "internalType": "bool",
          "name": "targetReached",
          "type": "bool"
        }
      ],
      "name": "VaultFunded",
      "type": "event"
    },
    {
      "anonymous": false,
      "inputs": [
        {
          "indexed": false,
          "internalType": "bool",
          "name": "isActive",
          "type": "bool"
        }
      ],
      "name": "VaultStatusChanged",
      "type": "event"
    },
    {
      "anonymous": false,
      "inputs": [
        {
          "indexed": true,
          "internalType": "address",
          "name": "vaultAddress",
          "type": "address"
        },
        {
          "indexed": true,
          "internalType": "address",
          "name": "recipient",
          "type": "address"
        },
        {
          "indexed": false,
          "internalType": "uint256",
          "name": "amount",
          "type": "uint256"
        },
        {
          "indexed": false,
          "internalType": "uint256",
          "name": "remainingBalance",
          "type": "uint256"
        }
      ],
      "name": "VaultWithdrawal",
      "type": "event"
    },
    {
      "anonymous": false,
      "inputs": [
        {
          "indexed": true,
          "internalType": "address",
          "name": "recipient",
          "type": "address"
        },
        {
          "indexed": false,
          "internalType": "uint256",
          "name": "amount",
          "type": "uint256"
        }
      ],
      "name": "Withdrawal",
      "type": "event"
    },
    {
      "anonymous": false,
      "inputs": [
        {
          "indexed": true,
          "internalType": "address",
          "name": "vaultAddress",
          "type": "address"
        },
        {
          "indexed": true,
          "internalType": "uint256",
          "name": "proposalId",
          "type": "uint256"
        },
        {
          "indexed": true,
          "internalType": "address",
          "name": "approver",
          "type": "address"
        }
      ],
      "name": "WithdrawalApproved",
      "type": "event"
    },
    {
      "anonymous": false,
      "inputs": [
        {
          "indexed": true,
          "internalType": "address",
          "name": "vaultAddress",
          "type": "address"
        },
        {
          "indexed": true,
          "internalType": "uint256",
          "name": "proposalId",
          "type": "uint256"
        },
        {
          "indexed": false,
          "internalType": "address",
          "name": "recipient",
          "type": "address"
        },
        {
          "indexed": false,
          "internalType": "uint256",
          "name": "amount",
          "type": "uint256"
        }
      ],
      "name": "WithdrawalExecuted",
      "type": "event"
    },
    {
      "anonymous": false,
      "inputs": [
        {
          "indexed": true,
          "internalType": "address",
          "name": "vaultAddress",
          "type": "address"
        },
        {
          "indexed": true,
          "internalType": "uint256",
          "name": "proposalId",
          "type": "uint256"
        },
        {
          "indexed": true,
          "internalType": "address",
          "name": "proposer",
          "type": "address"
        },
        {
          "indexed": false,
          "internalType": "address",
          "name": "recipient",
          "type": "address"
        },
        {
          "indexed": false,
          "internalType": "uint256",
          "name": "amount",
          "type": "uint256"
        }
      ],
      "name": "WithdrawalProposed",
      "type": "event"
    },
    {
      "anonymous": false,
      "inputs": [
        {
          "indexed": true,
          "internalType": "address",
          "name": "vaultAddress",
          "type": "address"
        },
        {
          "indexed": true,
          "internalType": "uint256",
          "name": "proposalId",
          "type": "uint256"
        },
        {
          "indexed": true,
          "internalType": "address",
          "name": "rejecter",
          "type": "address"
        }
      ],
      "name": "WithdrawalRejected",
      "type": "event"
    },
    {
      "inputs": [
        {
          "internalType": "address",
          "name": "_depositor",
          "type": "address"
        }
      ],
      "name": "addAllowedDepositor",
      "outputs": [],
      "stateMutability": "nonpayable",
      "type": "function"
    },
    {
      "inputs": [
        {
          "internalType": "address",
          "name": "_admin",
          "type": "address"
        }
      ],
      "name": "addCoAdmin",
      "outputs": [],
      "stateMutability": "nonpayable",
      "type": "function"
    },
    {
      "inputs": [
        {
          "internalType": "address",
          "name": "",
          "type": "address"
        }
      ],
      "name": "allowedDepositors",
      "outputs": [
        {
          "internalType": "bool",
          "name": "",
          "type": "bool"
        }
      ],
      "stateMutability": "view",
      "type": "function"
    },
    {
      "inputs": [
        {
          "internalType": "uint256",
          "name": "_proposalId",
          "type": "uint256"
        }
      ],
      "name": "approveWithdrawal",
      "outputs": [],
      "stateMutability": "nonpayable",
      "type": "function"
    },
    {
      "inputs": [
        {
          "internalType": "address",
          "name": "_depositor",
          "type": "address"
        }
      ],
      "name": "canDeposit",
      "outputs": [
        {
          "internalType": "bool",
          "name": "",
          "type": "bool"
        }
      ],
      "stateMutability": "view",
      "type": "function"
    },
    {
      "inputs": [
        {
          "internalType": "uint256",
          "name": "_proposalId",
          "type": "uint256"
        }
      ],
      "name": "cancelWithdrawal",
      "outputs": [],
      "stateMutability": "nonpayable",
      "type": "function"
    },
    {
      "inputs": [],
      "name": "coAdminCount",
      "outputs": [
        {
          "internalType": "uint256",
          "name": "",
          "type": "uint256"
        }
      ],
      "stateMutability": "view",
      "type": "function"
    },
    {
      "inputs": [
        {
          "internalType": "address",
          "name": "",
          "type": "address"
        }
      ],
      "name": "coAdmins",
      "outputs": [
        {
          "internalType": "bool",
          "name": "",
          "type": "bool"
        }
      ],
      "stateMutability": "view",
      "type": "function"
    },
    {
      "inputs": [],
      "name": "deposit",
      "outputs": [],
      "stateMutability": "payable",
      "type": "function"
    },
    {
      "inputs": [
        {
          "internalType": "address",
          "name": "",
          "type": "address"
        }
      ],
      "name": "deposits",
      "outputs": [
        {
          "internalType": "uint256",
          "name": "",
          "type": "uint256"
        }
      ],
      "stateMutability": "view",
      "type": "function"
    },
    {
      "inputs": [
        {
          "internalType": "uint256",
          "name": "_proposalId",
          "type": "uint256"
        }
      ],
      "name": "executeWithdrawal",
      "outputs": [],
      "stateMutability": "nonpayable",
      "type": "function"
    },
    {
      "inputs": [],
      "name": "factory",
      "outputs": [
        {
          "internalType": "address",
          "name": "",
          "type": "address"
        }
      ],
      "stateMutability": "view",
      "type": "function"
    },
    {
      "inputs": [],
      "name": "getBalance",
      "outputs": [
        {
          "internalType": "uint256",
          "name": "",
          "type": "uint256"
        }
      ],
      "stateMutability": "view",
      "type": "function"
    },
    {
      "inputs": [
        {
          "internalType": "uint256",
          "name": "_proposalId",
          "type": "uint256"
        }
      ],
      "name": "getProposalInfo",
      "outputs": [
        {
          "internalType": "address",
          "name": "recipient",
          "type": "address"
        },
        {
          "internalType": "uint256",
          "name": "amount",
          "type": "uint256"
        },
        {
          "internalType": "uint256",
          "name": "approvals",
          "type": "uint256"
        },
        {
          "internalType": "bool",
          "name": "executed",
          "type": "bool"
        },
        {
          "internalType": "bool",
          "name": "cancelled",
          "type": "bool"
        }
      ],
      "stateMutability": "view",
      "type": "function"
    },
    {
      "inputs": [],
      "name": "getVaultInfo",
      "outputs": [
        {
          "internalType": "address",
          "name": "owner",
          "type": "address"
        },
        {
          "internalType": "string",
          "name": "name",
          "type": "string"
        },
        {
          "internalType": "string",
          "name": "description",
          "type": "string"
        },
        {
          "internalType": "string",
          "name": "category",
          "type": "string"
        },
        {
          "internalType": "string",
          "name": "imageURI",
          "type": "string"
        },
        {
          "internalType": "bool",
          "name": "isPublic",
          "type": "bool"
        },
        {
          "internalType": "uint256",
          "name": "balance",
          "type": "uint256"
        },
        {
          "internalType": "uint256",
          "name": "target",
          "type": "uint256"
        },
        {
          "internalType": "uint256",
          "name": "total",
          "type": "uint256"
        },
        {
          "internalType": "enum BaseVault.VaultType",
          "name": "vaultType",
          "type": "uint8"
        },
        {
          "internalType": "bool",
          "name": "active",
          "type": "bool"
        }
      ],
      "stateMutability": "view",
      "type": "function"
    },
    {
      "inputs": [
        {
          "internalType": "uint256",
          "name": "_proposalId",
          "type": "uint256"
        },
        {
          "internalType": "address",
          "name": "_admin",
          "type": "address"
        }
      ],
      "name": "hasApproved",
      "outputs": [
        {
          "internalType": "bool",
          "name": "",
          "type": "bool"
        }
      ],
      "stateMutability": "view",
      "type": "function"
    },
    {
      "inputs": [],
      "name": "isActive",
      "outputs": [
        {
          "internalType": "bool",
          "name": "",
          "type": "bool"
        }
      ],
      "stateMutability": "view",
      "type": "function"
    },
    {
      "inputs": [
        {
          "internalType": "address",
          "name": "_admin",
          "type": "address"
        }
      ],
      "name": "isAdmin",
      "outputs": [
        {
          "internalType": "bool",
          "name": "",
          "type": "bool"
        }
      ],
      "stateMutability": "view",
      "type": "function"
    },
    {
      "inputs": [],
      "name": "metadata",
      "outputs": [
        {
          "internalType": "string",
          "name": "name",
          "type": "string"
        },
        {
          "internalType": "string",
          "name": "description",
          "type": "string"
        },
        {
          "internalType": "string",
          "name": "category",
          "type": "string"
        },
        {
          "internalType": "string",
          "name": "imageURI",
          "type": "string"
        },
        {
          "internalType": "bool",
          "name": "isPublic",
          "type": "bool"
        },
        {
          "internalType": "enum BaseVault.VaultType",
          "name": "vaultType",
          "type": "uint8"
        }
      ],
      "stateMutability": "view",
      "type": "function"
    },
    {
      "inputs": [],
      "name": "owner",
      "outputs": [
        {
          "internalType": "address",
          "name": "",
          "type": "address"
        }
      ],
      "stateMutability": "view",
      "type": "function"
    },
    {
      "inputs": [],
      "name": "proposalCount",
      "outputs": [
        {
          "internalType": "uint256",
          "name": "",
          "type": "uint256"
        }
      ],
      "stateMutability": "view",
      "type": "function"
    },
    {
      "inputs": [
        {
          "internalType": "address payable",
          "name": "_recipient",
          "type": "address"
        },
        {
          "internalType": "uint256",
          "name": "_amount",
          "type": "uint256"
        }
      ],
      "name": "proposeWithdrawal",
      "outputs": [
        {
          "internalType": "uint256",
          "name": "",
          "type": "uint256"
        }
      ],
      "stateMutability": "nonpayable",
      "type": "function"
    },
    {
      "inputs": [
        {
          "internalType": "address",
          "name": "_depositor",
          "type": "address"
        }
      ],
      "name": "removeAllowedDepositor",
      "outputs": [],
      "stateMutability": "nonpayable",
      "type": "function"
    },
    {
      "inputs": [
        {
          "internalType": "address",
          "name": "_admin",
          "type": "address"
        }
      ],
      "name": "removeCoAdmin",
      "outputs": [],
      "stateMutability": "nonpayable",
      "type": "function"
    },
    {
      "inputs": [],
      "name": "renounceOwnership",
      "outputs": [],
      "stateMutability": "nonpayable",
      "type": "function"
    },
    {
      "inputs": [],
      "name": "requiredApprovals",
      "outputs": [
        {
          "internalType": "uint256",
          "name": "",
          "type": "uint256"
        }
      ],
      "stateMutability": "view",
      "type": "function"
    },
    {
      "inputs": [
        {
          "internalType": "bool",
          "name": "_isActive",
          "type": "bool"
        }
      ],
      "name": "setActive",
      "outputs": [],
      "stateMutability": "nonpayable",
      "type": "function"
    },
    {
      "inputs": [
        {
          "internalType": "bool",
          "name": "_isPublic",
          "type": "bool"
        }
      ],
      "name": "setPublic",
      "outputs": [],
      "stateMutability": "nonpayable",
      "type": "function"
    },
    {
      "inputs": [
        {
          "internalType": "uint256",
          "name": "_requiredApprovals",
          "type": "uint256"
        }
      ],
      "name": "setRequiredApprovals",
      "outputs": [],
      "stateMutability": "nonpayable",
      "type": "function"
    },
    {
      "inputs": [],
      "name": "targetAmount",
      "outputs": [
        {
          "internalType": "uint256",
          "name": "",
          "type": "uint256"
        }
      ],
      "stateMutability": "view",
      "type": "function"
    },
    {
      "inputs": [],
      "name": "totalDeposited",
      "outputs": [
        {
          "internalType": "uint256",
          "name": "",
          "type": "uint256"
        }
      ],
      "stateMutability": "view",
      "type": "function"
    },
    {
      "inputs": [
        {
          "internalType": "address",
          "name": "newOwner",
          "type": "address"
        }
      ],
      "name": "transferOwnership",
      "outputs": [],
      "stateMutability": "nonpayable",
      "type": "function"
    },
    {
      "inputs": [
        {
          "internalType": "string",
          "name": "_name",
          "type": "string"
        },
        {
          "internalType": "string",
          "name": "_description",
          "type": "string"
        },
        {
          "internalType": "string",
          "name": "_category",
          "type": "string"
        },
        {
          "internalType": "string",
          "name": "_imageURI",
          "type": "string"
        }
      ],
      "name": "updateVaultConfig",
      "outputs": [],
      "stateMutability": "nonpayable",
      "type": "function"
    },
    {
      "inputs": [
        {
          "internalType": "address payable",
          "name": "_recipient",
          "type": "address"
        },
        {
          "internalType": "uint256",
          "name": "_amount",
          "type": "uint256"
        }
      ],
      "name": "withdraw",
      "outputs": [],
      "stateMutability": "nonpayable",
      "type": "function"
    },
    {
      "inputs": [
        {
          "internalType": "uint256",
          "name": "",
          "type": "uint256"
        }
      ],
      "name": "withdrawalProposals",
      "outputs": [
        {
          "internalType": "address",
          "name": "recipient",
          "type": "address"
        },
        {
          "internalType": "uint256",
          "name": "amount",
          "type": "uint256"
        },
        {
          "internalType": "uint256",
          "name": "approvals",
          "type": "uint256"
        },
        {
          "internalType": "bool",
          "name": "executed",
          "type": "bool"
        },
        {
          "internalType": "bool",
          "name": "cancelled",
          "type": "bool"
        }
      ],
      "stateMutability": "view",
      "type": "function"
    },
    {
      "stateMutability": "payable",
      "type": "receive"
    }
  ],
  "bytecode": "0x60a06040526001600b60006101000a81548160ff02191690831515021790555034801561002b57600080fd5b506040516151c73803806151c7833981810160405281019061004d91906108b8565b88888888888888600187600073ffffffffffffffffffffffffffffffffffffffff168173ffffffffffffffffffffffffffffffffffffffff16036100c95760006040517f1e4fbdf70000000000000000000000000000000000000000000000000000000081526004016100c09190610a1d565b60405180910390fd5b6100d8816104eb60201b60201c565b50600180819055506040518060c00160405280888152602001878152602001868152602001858152602001841515815260200182600381111561011e5761011d610a38565b5b815250600260008201518160000190816101389190610c7e565b50602082015181600101908161014e9190610c7e565b5060408201518160020190816101649190610c7e565b50606082015181600301908161017a9190610c7e565b5060808201518160040160006101000a81548160ff02191690831515021790555060a08201518160040160016101000a81548160ff021916908360038111156101c6576101c5610a38565b5b0217905550905050816007819055503373ffffffffffffffffffffffffffffffffffffffff1660808173ffffffffffffffffffffffffffffffffffffffff16815250508773ffffffffffffffffffffffffffffffffffffffff163073ffffffffffffffffffffffffffffffffffffffff167f7c4fdd76e74becdb2fc47b0eba4f584958f8994d1afbc61e3ab589febe43ddb189898989898989600381111561027157610270610a38565b5b6040516102849796959493929190610dd4565b60405180910390a3505050505050505060005b825181101561046a5760008382815181106102b5576102b4610e5f565b5b60200260200101519050600073ffffffffffffffffffffffffffffffffffffffff168173ffffffffffffffffffffffffffffffffffffffff161415801561032857508a73ffffffffffffffffffffffffffffffffffffffff168173ffffffffffffffffffffffffffffffffffffffff1614155b610367576040517f08c379a000000000000000000000000000000000000000000000000000000000815260040161035e90610eda565b60405180910390fd5b6001600c60008373ffffffffffffffffffffffffffffffffffffffff1673ffffffffffffffffffffffffffffffffffffffff16815260200190815260200160002060006101000a81548160ff0219169083151502179055508073ffffffffffffffffffffffffffffffffffffffff167ffd58eaaf243d0e0c09ac7a96c612d91dc5b35a3bb40640fa9495bad4bad9e16760405160405180910390a28073ffffffffffffffffffffffffffffffffffffffff163073ffffffffffffffffffffffffffffffffffffffff167f150eb1db66051c06e53c48c8ede112b73dd0b8b92530edc135c0e3fe8848c28960405160405180910390a3508080600101915050610297565b508151600d8190555060006001600d546104849190610f29565b90506000821180156104965750808211155b6104d5576040517f08c379a00000000000000000000000000000000000000000000000000000000081526004016104cc90610fa9565b60405180910390fd5b81600e8190555050505050505050505050610fc9565b60008060009054906101000a900473ffffffffffffffffffffffffffffffffffffffff169050816000806101000a81548173ffffffffffffffffffffffffffffffffffffffff021916908373ffffffffffffffffffffffffffffffffffffffff1602179055508173ffffffffffffffffffffffffffffffffffffffff168173ffffffffffffffffffffffffffffffffffffffff167f8be0079c531659141344cd1fd0a4f28419497f9722a3daafe3b4186f6b6457e060405160405180910390a35050565b6000604051905090565b600080fd5b600080fd5b600073ffffffffffffffffffffffffffffffffffffffff82169050919050565b60006105ee826105c3565b9050919050565b6105fe816105e3565b811461060957600080fd5b50565b60008151905061061b816105f5565b92915050565b600080fd5b600080fd5b6000601f19601f8301169050919050565b7f4e487b7100000000000000000000000000000000000000000000000000000000600052604160045260246000fd5b6106748261062b565b810181811067ffffffffffffffff821117156106935761069261063c565b5b80604052505050565b60006106a66105af565b90506106b2828261066b565b919050565b600067ffffffffffffffff8211156106d2576106d161063c565b5b6106db8261062b565b9050602081019050919050565b60005b838110156107065780820151818401526020810190506106eb565b60008484015250505050565b6000610725610720846106b7565b61069c565b90508281526020810184848401111561074157610740610626565b5b61074c8482856106e8565b509392505050565b600082601f83011261076957610768610621565b5b8151610779848260208601610712565b91505092915050565b60008115159050919050565b61079781610782565b81146107a257600080fd5b50565b6000815190506107b48161078e565b92915050565b6000819050919050565b6107cd816107ba565b81146107d857600080fd5b50565b6000815190506107ea816107c4565b92915050565b600067ffffffffffffffff82111561080b5761080a61063c565b5b602082029050602081019050919050565b600080fd5b600061083461082f846107f0565b61069c565b905080838252602082019050602084028301858111156108575761085661081c565b5b835b81811015610880578061086c888261060c565b845260208401935050602081019050610859565b5050509392505050565b600082601f83011261089f5761089e610621565b5b81516108af848260208601610821565b91505092915050565b60008060008060008060008060006101208a8c0312156108db576108da6105b9565b5b60006108e98c828d0161060c565b99505060208a015167ffffffffffffffff81111561090a576109096105be565b5b6109168c828d01610754565b98505060408a015167ffffffffffffffff811115610937576109366105be565b5b6109438c828d01610754565b97505060608a015167ffffffffffffffff811115610964576109636105be565b5b6109708c828d01610754565b96505060808a015167ffffffffffffffff811115610991576109906105be565b5b61099d8c828d01610754565b95505060a06109ae8c828d016107a5565b94505060c06109bf8c828d016107db565b93505060e08a015167ffffffffffffffff8111156109e0576109df6105be565b5b6109ec8c828d0161088a565b9250506101006109fe8c828d016107db565b9150509295985092959850929598565b610a17816105e3565b82525050565b6000602082019050610a326000830184610a0e565b92915050565b7f4e487b7100000000000000000000000000000000000000000000000000000000600052602160045260246000fd5b600081519050919050565b7f4e487b7100000000000000000000000000000000000000000000000000000000600052602260045260246000fd5b60006002820490506001821680610ab957607f821691505b602082108103610acc57610acb610a72565b5b50919050565b60008190508160005260206000209050919050565b60006020601f8301049050919050565b600082821b905092915050565b600060088302610b347fffffffffffffffffffffffffffffffffffffffffffffffffffffffffffffffff82610af7565b610b3e8683610af7565b95508019841693508086168417925050509392505050565b6000819050919050565b6000610b7b610b76610b71846107ba565b610b56565b6107ba565b9050919050565b6000819050919050565b610b9583610b60565b610ba9610ba182610b82565b848454610b04565b825550505050565b600090565b610bbe610bb1565b610bc9818484610b8c565b505050565b5b81811015610bed57610be2600082610bb6565b600181019050610bcf565b5050565b601f821115610c3257610c0381610ad2565b610c0c84610ae7565b81016020851015610c1b578190505b610c2f610c2785610ae7565b830182610bce565b50505b505050565b600082821c905092915050565b6000610c5560001984600802610c37565b1980831691505092915050565b6000610c6e8383610c44565b9150826002028217905092915050565b610c8782610a67565b67ffffffffffffffff811115610ca057610c9f61063c565b5b610caa8254610aa1565b610cb5828285610bf1565b600060209050601f831160018114610ce85760008415610cd6578287015190505b610ce08582610c62565b865550610d48565b601f198416610cf686610ad2565b60005b82811015610d1e57848901518255600182019150602085019450602081019050610cf9565b86831015610d3b5784890151610d37601f891682610c44565b8355505b6001600288020188555050505b505050505050565b600082825260208201905092915050565b6000610d6c82610a67565b610d768185610d50565b9350610d868185602086016106e8565b610d8f8161062b565b840191505092915050565b610da381610782565b82525050565b610db2816107ba565b82525050565b600060ff82169050919050565b610dce81610db8565b82525050565b600060e0820190508181036000830152610dee818a610d61565b90508181036020830152610e028189610d61565b90508181036040830152610e168188610d61565b90508181036060830152610e2a8187610d61565b9050610e396080830186610d9a565b610e4660a0830185610da9565b610e5360c0830184610dc5565b98975050505050505050565b7f4e487b7100000000000000000000000000000000000000000000000000000000600052603260045260246000fd5b7f4d756c74695369675661756c743a20696e76616c69642061646d696e00000000600082015250565b6000610ec4601c83610d50565b9150610ecf82610e8e565b602082019050919050565b60006020820190508181036000830152610ef381610eb7565b9050919050565b7f4e487b7100000000000000000000000000000000000000000000000000000000600052601160045260246000fd5b6000610f34826107ba565b9150610f3f836107ba565b9250828201905080821115610f5757610f56610efa565b5b92915050565b7f4d756c74695369675661756c743a20696e76616c696420617070726f76616c73600082015250565b6000610f93602083610d50565b9150610f9e82610f5d565b602082019050919050565b60006020820190508181036000830152610fc281610f86565b9050919050565b6080516141e3610fe46000396000611cbc01526141e36000f3fe6080604052600436106102085760003560e01c80638da5cb5b11610118578063d0e30db0116100a0578063ecc49b111161006f578063ecc49b111461077c578063f2fde38b146107b9578063f3fef3a3146107e2578063fc7e286d1461080b578063ff50abdc1461084857610223565b8063d0e30db0146106e1578063da35c664146106eb578063e902a83514610716578063eb0bd80b1461075357610223565b8063acec338a116100e7578063acec338a146105f8578063bb5ea7e514610621578063bc903cb81461064c578063c363d3051461068d578063c45a0155146106b657610223565b80638da5cb5b1461054e578063953b8fb81461057957806399c1aadc146105a45780639eceddea146105cf57610223565b8063392f37e91161019b5780634bf0d3311161016a5780634bf0d3311461045b578063513269f6146104985780635cbcec4e146104d9578063715018a6146105025780637f98aa711461051957610223565b8063392f37e91461039c57806339df9c27146103cc5780633efcfda4146103f5578063483c2ef01461041e57610223565b80632358d5a8116101d75780632358d5a8146102d057806324d7806c1461030d57806324f13a761461034a5780632985844c1461037357610223565b806312065fe0146102285780631324b50214610253578063222a242e1461027c57806322f3e2d4146102a557610223565b36610223576000341115610221576102203334610873565b5b005b600080fd5b34801561023457600080fd5b5061023d610934565b60405161024a9190612bdf565b60405180910390f35b34801561025f57600080fd5b5061027a60048036038101906102759190612d54565b61093c565b005b34801561028857600080fd5b506102a3600480360381019061029e9190612e57565b6109d2565b005b3480156102b157600080fd5b506102ba610a7e565b6040516102c79190612e9f565b60405180910390f35b3480156102dc57600080fd5b506102f760048036038101906102f29190612f18565b610a91565b6040516103049190612e9f565b60405180910390f35b34801561031957600080fd5b50610334600480360381019061032f9190612f58565b610afc565b6040516103419190612e9f565b60405180910390f35b34801561035657600080fd5b50610371600480360381019061036c9190612e57565b610b8f565b005b34801561037f57600080fd5b5061039a60048036038101906103959190612f58565b610ccf565b005b3480156103a857600080fd5b506103b1610eda565b6040516103c39695949392919061307b565b60405180910390f35b3480156103d857600080fd5b506103f360048036038101906103ee9190612f58565b61113e565b005b34801561040157600080fd5b5061041c60048036038101906104179190612e57565b611210565b005b34801561042a57600080fd5b5061044560048036038101906104409190612f58565b6113f9565b6040516104529190612e9f565b60405180910390f35b34801561046757600080fd5b50610482600480360381019061047d9190612f58565b611419565b60405161048f9190612e9f565b60405180910390f35b3480156104a457600080fd5b506104bf60048036038101906104ba9190612e57565b611489565b6040516104d0959493929190613107565b60405180910390f35b3480156104e557600080fd5b5061050060048036038101906104fb9190613186565b6114f9565b005b34801561050e57600080fd5b50610517611521565b005b34801561052557600080fd5b5061052e611535565b6040516105459b9a999897969594939291906131b3565b60405180910390f35b34801561055a57600080fd5b506105636117ea565b604051610570919061327a565b60405180910390f35b34801561058557600080fd5b5061058e611813565b60405161059b9190612bdf565b60405180910390f35b3480156105b057600080fd5b506105b9611819565b6040516105c69190612bdf565b60405180910390f35b3480156105db57600080fd5b506105f660048036038101906105f19190612e57565b61181f565b005b34801561060457600080fd5b5061061f600480360381019061061a9190613186565b611b70565b005b34801561062d57600080fd5b50610636611bcc565b6040516106439190612bdf565b60405180910390f35b34801561065857600080fd5b50610673600480360381019061066e9190612e57565b611bd2565b604051610684959493929190613107565b60405180910390f35b34801561069957600080fd5b506106b460048036038101906106af9190612f58565b611c57565b005b3480156106c257600080fd5b506106cb611cba565b6040516106d8919061327a565b60405180910390f35b6106e9611cde565b005b3480156106f757600080fd5b50610700611e32565b60405161070d9190612bdf565b60405180910390f35b34801561072257600080fd5b5061073d60048036038101906107389190612f58565b611e38565b60405161074a9190612e9f565b60405180910390f35b34801561075f57600080fd5b5061077a60048036038101906107759190612f58565b611e58565b005b34801561078857600080fd5b506107a3600480360381019061079e91906132d3565b6120ac565b6040516107b09190612bdf565b60405180910390f35b3480156107c557600080fd5b506107e060048036038101906107db9190612f58565b6124c2565b005b3480156107ee57600080fd5b50610809600480360381019061080491906132d3565b612548565b005b34801561081757600080fd5b50610832600480360381019061082d9190612f58565b612583565b60405161083f9190612bdf565b60405180910390f35b34801561085457600080fd5b5061085d61259b565b60405161086a9190612bdf565b60405180910390f35b80600960008473ffffffffffffffffffffffffffffffffffffffff1673ffffffffffffffffffffffffffffffffffffffff16815260200190815260200160002060008282546108c29190613342565b9250508190555080600860008282546108db9190613342565b925050819055508173ffffffffffffffffffffffffffffffffffffffff167fe1fffcc4923d04b559f4d29a8bfc6cda04eb5b0d3c460751c2402c5c5cc9109c826040516109289190612bdf565b60405180910390a25050565b600047905090565b6109446125a1565b83600260000190816109569190613582565b5082600260010190816109699190613582565b508160028001908161097b9190613582565b50806002600301908161098e9190613582565b507f24bb1be6382a86ea23d33f4dc8d5270b3462aba3c8c9709bbb07a131954cfbf5848484846040516109c49493929190613654565b60405180910390a150505050565b6109da6125a1565b60006001600d546109eb9190613342565b90506000821180156109fd5750808211155b610a3c576040517f08c379a0000000000000000000000000000000000000000000000000000000008152600401610a3390613701565b60405180910390fd5b81600e819055507f07b3040e2c9a6aceb2a8c327189a13773af5cac508876d95a03d06d888ba436382604051610a729190612bdf565b60405180910390a15050565b600b60009054906101000a900460ff1681565b60006010600084815260200190815260200160002060040160008373ffffffffffffffffffffffffffffffffffffffff1673ffffffffffffffffffffffffffffffffffffffff16815260200190815260200160002060009054906101000a900460ff16905092915050565b6000610b066117ea565b73ffffffffffffffffffffffffffffffffffffffff168273ffffffffffffffffffffffffffffffffffffffff161480610b885750600c60008373ffffffffffffffffffffffffffffffffffffffff1673ffffffffffffffffffffffffffffffffffffffff16815260200190815260200160002060009054906101000a900460ff165b9050919050565b610b976117ea565b73ffffffffffffffffffffffffffffffffffffffff163373ffffffffffffffffffffffffffffffffffffffff161480610c195750600c60003373ffffffffffffffffffffffffffffffffffffffff1673ffffffffffffffffffffffffffffffffffffffff16815260200190815260200160002060009054906101000a900460ff165b610c58576040517f08c379a0000000000000000000000000000000000000000000000000000000008152600401610c4f9061376d565b60405180910390fd5b610c60612628565b600e5460106000838152602001908152602001600020600201541015610cbb576040517f08c379a0000000000000000000000000000000000000000000000000000000008152600401610cb2906137ff565b60405180910390fd5b610cc48161266e565b610ccc6128fd565b50565b610cd76125a1565b600c60008273ffffffffffffffffffffffffffffffffffffffff1673ffffffffffffffffffffffffffffffffffffffff16815260200190815260200160002060009054906101000a900460ff16610d63576040517f08c379a0000000000000000000000000000000000000000000000000000000008152600401610d5a9061376d565b60405180910390fd5b6000600c60008373ffffffffffffffffffffffffffffffffffffffff1673ffffffffffffffffffffffffffffffffffffffff16815260200190815260200160002060006101000a81548160ff021916908315150217905550600d6000815480929190610dce9061381f565b91905055508073ffffffffffffffffffffffffffffffffffffffff167f37ede266ca008b65b5c04079afb4199b42da86002fa075bc8e1372b365b2ce1660405160405180910390a28073ffffffffffffffffffffffffffffffffffffffff163073ffffffffffffffffffffffffffffffffffffffff167f5f51f9b2f6e9d8b898aabd809e4e7599ef237a55b6fe652cfbd09298c4637a3c60405160405180910390a36001600d54610e7f9190613342565b600e541115610ed7576001600d54610e979190613342565b600e819055507f07b3040e2c9a6aceb2a8c327189a13773af5cac508876d95a03d06d888ba4363600e54604051610ece9190612bdf565b60405180910390a15b50565b6002806000018054610eeb906133a5565b80601f0160208091040260200160405190810160405280929190818152602001828054610f17906133a5565b8015610f645780601f10610f3957610100808354040283529160200191610f64565b820191906000526020600020905b815481529060010190602001808311610f4757829003601f168201915b505050505090806001018054610f79906133a5565b80601f0160208091040260200160405190810160405280929190818152602001828054610fa5906133a5565b8015610ff25780601f10610fc757610100808354040283529160200191610ff2565b820191906000526020600020905b815481529060010190602001808311610fd557829003601f168201915b505050505090806002018054611007906133a5565b80601f0160208091040260200160405190810160405280929190818152602001828054611033906133a5565b80156110805780601f1061105557610100808354040283529160200191611080565b820191906000526020600020905b81548152906001019060200180831161106357829003601f168201915b505050505090806003018054611095906133a5565b80601f01602080910402602001604051908101604052809291908181526020018280546110c1906133a5565b801561110e5780601f106110e35761010080835404028352916020019161110e565b820191906000526020600020905b8154815290600101906020018083116110f157829003601f168201915b5050505050908060040160009054906101000a900460ff16908060040160019054906101000a900460ff16905086565b6111466125a1565b600073ffffffffffffffffffffffffffffffffffffffff168173ffffffffffffffffffffffffffffffffffffffff16036111b5576040517f08c379a00000000000000000000000000000000000000000000000000000000081526004016111ac90613894565b60405180910390fd5b6001600a60008373ffffffffffffffffffffffffffffffffffffffff1673ffffffffffffffffffffffffffffffffffffffff16815260200190815260200160002060006101000a81548160ff02191690831515021790555050565b611218612628565b60006010600083815260200190815260200160002090508060030160009054906101000a900460ff1615611281576040517f08c379a000000000000000000000000000000000000000000000000000000000815260040161127890613900565b60405180910390fd5b8060030160019054906101000a900460ff16156112d3576040517f08c379a00000000000000000000000000000000000000000000000000000000081526004016112ca9061396c565b60405180910390fd5b6112db6117ea565b73ffffffffffffffffffffffffffffffffffffffff163373ffffffffffffffffffffffffffffffffffffffff1614611348576040517f08c379a000000000000000000000000000000000000000000000000000000000815260040161133f906139d8565b60405180910390fd5b60018160030160016101000a81548160ff021916908315150217905550817f416e669c63d9a3a5e36ee7cc7e2104b8db28ccd286aa18966e98fa230c73b08c60405160405180910390a23373ffffffffffffffffffffffffffffffffffffffff16823073ffffffffffffffffffffffffffffffffffffffff167fd1c9242f35b6678a8223dc24f485daf5c9c692070f1ef11a1551f3defcd8f18360405160405180910390a4506113f66128fd565b50565b600a6020528060005260406000206000915054906101000a900460ff1681565b6000600260040160009054906101000a900460ff16806114825750600a60008373ffffffffffffffffffffffffffffffffffffffff1673ffffffffffffffffffffffffffffffffffffffff16815260200190815260200160002060009054906101000a900460ff165b9050919050565b60106020528060005260406000206000915090508060000160009054906101000a900473ffffffffffffffffffffffffffffffffffffffff16908060010154908060020154908060030160009054906101000a900460ff16908060030160019054906101000a900460ff16905085565b6115016125a1565b80600260040160006101000a81548160ff02191690831515021790555050565b6115296125a1565b6115336000612906565b565b60006060806060806000806000806000808a60026000016002600101600280016002600301600260040160009054906101000a900460ff1647600754600854600260040160019054906101000a900460ff16600b60009054906101000a900460ff168980546115a3906133a5565b80601f01602080910402602001604051908101604052809291908181526020018280546115cf906133a5565b801561161c5780601f106115f15761010080835404028352916020019161161c565b820191906000526020600020905b8154815290600101906020018083116115ff57829003601f168201915b5050505050995088805461162f906133a5565b80601f016020809104026020016040519081016040528092919081815260200182805461165b906133a5565b80156116a85780601f1061167d576101008083540402835291602001916116a8565b820191906000526020600020905b81548152906001019060200180831161168b57829003601f168201915b505050505098508780546116bb906133a5565b80601f01602080910402602001604051908101604052809291908181526020018280546116e7906133a5565b80156117345780601f1061170957610100808354040283529160200191611734565b820191906000526020600020905b81548152906001019060200180831161171757829003601f168201915b50505050509750868054611747906133a5565b80601f0160208091040260200160405190810160405280929190818152602001828054611773906133a5565b80156117c05780601f10611795576101008083540402835291602001916117c0565b820191906000526020600020905b8154815290600101906020018083116117a357829003601f168201915b505050505096509a509a509a509a509a509a509a509a509a509a509a50909192939495969798999a565b60008060009054906101000a900473ffffffffffffffffffffffffffffffffffffffff16905090565b60075481565b600e5481565b6118276117ea565b73ffffffffffffffffffffffffffffffffffffffff163373ffffffffffffffffffffffffffffffffffffffff1614806118a95750600c60003373ffffffffffffffffffffffffffffffffffffffff1673ffffffffffffffffffffffffffffffffffffffff16815260200190815260200160002060009054906101000a900460ff165b6118e8576040517f08c379a00000000000000000000000000000000000000000000000000000000081526004016118df9061376d565b60405180910390fd5b6118f0612628565b60006010600083815260200190815260200160002090508060030160009054906101000a900460ff1615611959576040517f08c379a000000000000000000000000000000000000000000000000000000000815260040161195090613900565b60405180910390fd5b8060030160019054906101000a900460ff16156119ab576040517f08c379a00000000000000000000000000000000000000000000000000000000081526004016119a29061396c565b60405180910390fd5b8060040160003373ffffffffffffffffffffffffffffffffffffffff1673ffffffffffffffffffffffffffffffffffffffff16815260200190815260200160002060009054906101000a900460ff1615611a3a576040517f08c379a0000000000000000000000000000000000000000000000000000000008152600401611a3190613a44565b60405180910390fd5b60018160040160003373ffffffffffffffffffffffffffffffffffffffff1673ffffffffffffffffffffffffffffffffffffffff16815260200190815260200160002060006101000a81548160ff021916908315150217905550806002016000815480929190611aa990613a64565b91905055503373ffffffffffffffffffffffffffffffffffffffff16827f049c28adfe50bcf1b76fd95273b6a24566b9f377e52fddc653c3355248dad07a60405160405180910390a33373ffffffffffffffffffffffffffffffffffffffff16823073ffffffffffffffffffffffffffffffffffffffff167f4f16c5c77886632730f337aa8bea63012257d0caa84d6c1cbb1016be0fc1ed4760405160405180910390a4600e54816002015410611b6457611b638261266e565b5b50611b6d6128fd565b50565b611b786125a1565b80600b60006101000a81548160ff0219169083151502179055507f311f3df4d32bea4781dd74cc4d0a8b9b498ddae77171dcb89ab4aa588f33068281604051611bc19190612e9f565b60405180910390a150565b600d5481565b6000806000806000806010600088815260200190815260200160002090508060000160009054906101000a900473ffffffffffffffffffffffffffffffffffffffff16816001015482600201548360030160009054906101000a900460ff168460030160019054906101000a900460ff16955095509550955095505091939590929450565b611c5f6125a1565b6000600a60008373ffffffffffffffffffffffffffffffffffffffff1673ffffffffffffffffffffffffffffffffffffffff16815260200190815260200160002060006101000a81548160ff02191690831515021790555050565b7f000000000000000000000000000000000000000000000000000000000000000081565b600b60009054906101000a900460ff16611d2d576040517f08c379a0000000000000000000000000000000000000000000000000000000008152600401611d2490613af8565b60405180910390fd5b611d35612628565b60003411611d78576040517f08c379a0000000000000000000000000000000000000000000000000000000008152600401611d6f90613b8a565b60405180910390fd5b600260040160009054906101000a900460ff1680611ddf5750600a60003373ffffffffffffffffffffffffffffffffffffffff1673ffffffffffffffffffffffffffffffffffffffff16815260200190815260200160002060009054906101000a900460ff165b611e1e576040517f08c379a0000000000000000000000000000000000000000000000000000000008152600401611e1590613bf6565b60405180910390fd5b611e283334610873565b611e306128fd565b565b600f5481565b600c6020528060005260406000206000915054906101000a900460ff1681565b611e606125a1565b600073ffffffffffffffffffffffffffffffffffffffff168173ffffffffffffffffffffffffffffffffffffffff1614158015611ed05750611ea06117ea565b73ffffffffffffffffffffffffffffffffffffffff168173ffffffffffffffffffffffffffffffffffffffff1614155b611f0f576040517f08c379a0000000000000000000000000000000000000000000000000000000008152600401611f0690613c62565b60405180910390fd5b600c60008273ffffffffffffffffffffffffffffffffffffffff1673ffffffffffffffffffffffffffffffffffffffff16815260200190815260200160002060009054906101000a900460ff1615611f9c576040517f08c379a0000000000000000000000000000000000000000000000000000000008152600401611f9390613cce565b60405180910390fd5b6001600c60008373ffffffffffffffffffffffffffffffffffffffff1673ffffffffffffffffffffffffffffffffffffffff16815260200190815260200160002060006101000a81548160ff021916908315150217905550600d600081548092919061200790613a64565b91905055508073ffffffffffffffffffffffffffffffffffffffff167ffd58eaaf243d0e0c09ac7a96c612d91dc5b35a3bb40640fa9495bad4bad9e16760405160405180910390a28073ffffffffffffffffffffffffffffffffffffffff163073ffffffffffffffffffffffffffffffffffffffff167f150eb1db66051c06e53c48c8ede112b73dd0b8b92530edc135c0e3fe8848c28960405160405180910390a350565b60006120b66117ea565b73ffffffffffffffffffffffffffffffffffffffff163373ffffffffffffffffffffffffffffffffffffffff1614806121385750600c60003373ffffffffffffffffffffffffffffffffffffffff1673ffffffffffffffffffffffffffffffffffffffff16815260200190815260200160002060009054906101000a900460ff165b612177576040517f08c379a000000000000000000000000000000000000000000000000000000000815260040161216e9061376d565b60405180910390fd5b61217f612628565b600073ffffffffffffffffffffffffffffffffffffffff168373ffffffffffffffffffffffffffffffffffffffff16036121ee576040517f08c379a00000000000000000000000000000000000000000000000000000000081526004016121e590613d3a565b60405180910390fd5b6000821180156121fe5750478211155b61223d576040517f08c379a000000000000000000000000000000000000000000000000000000000815260040161223490613da6565b60405180910390fd5b6000600f600081548092919061225290613a64565b9190505590506000601060008381526020019081526020016000209050848160000160006101000a81548173ffffffffffffffffffffffffffffffffffffffff021916908373ffffffffffffffffffffffffffffffffffffffff16021790555083816001018190555060008160030160006101000a81548160ff02191690831515021790555060008160030160016101000a81548160ff02191690831515021790555060018160040160003373ffffffffffffffffffffffffffffffffffffffff1673ffffffffffffffffffffffffffffffffffffffff16815260200190815260200160002060006101000a81548160ff021916908315150217905550600181600201819055508473ffffffffffffffffffffffffffffffffffffffff16827f3417b456fad6209c73445d5efd446d686e75e4560f0f50c13b5a5cde976447b4866040516123a09190612bdf565b60405180910390a33373ffffffffffffffffffffffffffffffffffffffff16827f049c28adfe50bcf1b76fd95273b6a24566b9f377e52fddc653c3355248dad07a60405160405180910390a33373ffffffffffffffffffffffffffffffffffffffff16823073ffffffffffffffffffffffffffffffffffffffff167f070b016a95ec1175b04d50291639d96e26e31f0df390eba3fb3435f609cf1e11888860405161244c929190613e1b565b60405180910390a43373ffffffffffffffffffffffffffffffffffffffff16823073ffffffffffffffffffffffffffffffffffffffff167f4f16c5c77886632730f337aa8bea63012257d0caa84d6c1cbb1016be0fc1ed4760405160405180910390a481925050506124bc6128fd565b92915050565b6124ca6125a1565b600073ffffffffffffffffffffffffffffffffffffffff168173ffffffffffffffffffffffffffffffffffffffff160361253c5760006040517f1e4fbdf7000000000000000000000000000000000000000000000000000000008152600401612533919061327a565b60405180910390fd5b61254581612906565b50565b6040517f08c379a000000000000000000000000000000000000000000000000000000000815260040161257a90613eb6565b60405180910390fd5b60096020528060005260406000206000915090505481565b60085481565b6125a96129ca565b73ffffffffffffffffffffffffffffffffffffffff166125c76117ea565b73ffffffffffffffffffffffffffffffffffffffff1614612626576125ea6129ca565b6040517f118cdaa700000000000000000000000000000000000000000000000000000000815260040161261d919061327a565b60405180910390fd5b565b600260015403612664576040517f3ee5aeb500000000000000000000000000000000000000000000000000000000815260040160405180910390fd5b6002600181905550565b60006010600083815260200190815260200160002090508060030160009054906101000a900460ff16156126d7576040517f08c379a00000000000000000000000000000000000000000000000000000000081526004016126ce90613900565b60405180910390fd5b8060030160019054906101000a900460ff1615612729576040517f08c379a00000000000000000000000000000000000000000000000000000000081526004016127209061396c565b60405180910390fd5b600e5481600201541015612772576040517f08c379a0000000000000000000000000000000000000000000000000000000008152600401612769906137ff565b60405180910390fd5b47816001015411156127b9576040517f08c379a00000000000000000000000000000000000000000000000000000000081526004016127b090613f48565b60405180910390fd5b60018160030160006101000a81548160ff02191690831515021790555060008160000160009054906101000a900473ffffffffffffffffffffffffffffffffffffffff16905060008260010154905061281282826129d2565b837f712ae1383f79ac853f8d882153778e0260ef8f03b504e2866e0593e04d2b291f60405160405180910390a2833073ffffffffffffffffffffffffffffffffffffffff167f131c8e1caeeb6033b41c031ed553b13954c297c4ee015158f71d94e861dfafcd8484604051612888929190613e1b565b60405180910390a38173ffffffffffffffffffffffffffffffffffffffff163073ffffffffffffffffffffffffffffffffffffffff167f9c6c151a8d2b011a028db068bba19b86b37145a151d281139556d0166a96e01283476040516128ef929190613f68565b60405180910390a350505050565b60018081905550565b60008060009054906101000a900473ffffffffffffffffffffffffffffffffffffffff169050816000806101000a81548173ffffffffffffffffffffffffffffffffffffffff021916908373ffffffffffffffffffffffffffffffffffffffff1602179055508173ffffffffffffffffffffffffffffffffffffffff168173ffffffffffffffffffffffffffffffffffffffff167f8be0079c531659141344cd1fd0a4f28419497f9722a3daafe3b4186f6b6457e060405160405180910390a35050565b600033905090565b600073ffffffffffffffffffffffffffffffffffffffff168273ffffffffffffffffffffffffffffffffffffffff1603612a41576040517f08c379a0000000000000000000000000000000000000000000000000000000008152600401612a3890613fdd565b60405180910390fd5b60008111612a84576040517f08c379a0000000000000000000000000000000000000000000000000000000008152600401612a7b9061406f565b60405180910390fd5b47811115612ac7576040517f08c379a0000000000000000000000000000000000000000000000000000000008152600401612abe906140db565b60405180910390fd5b60008273ffffffffffffffffffffffffffffffffffffffff1682604051612aed9061412c565b60006040518083038185875af1925050503d8060008114612b2a576040519150601f19603f3d011682016040523d82523d6000602084013e612b2f565b606091505b5050905080612b73576040517f08c379a0000000000000000000000000000000000000000000000000000000008152600401612b6a9061418d565b60405180910390fd5b8273ffffffffffffffffffffffffffffffffffffffff167f7fcf532c15f0a6db0bd6d0e038bea71d30d808c7d98cb3bf7268a95bf5081b6583604051612bb99190612bdf565b60405180910390a2505050565b6000819050919050565b612bd981612bc6565b82525050565b6000602082019050612bf46000830184612bd0565b92915050565b6000604051905090565b600080fd5b600080fd5b600080fd5b600080fd5b6000601f19601f8301169050919050565b7f4e487b7100000000000000000000000000000000000000000000000000000000600052604160045260246000fd5b612c6182612c18565b810181811067ffffffffffffffff82111715612c8057612c7f612c29565b5b80604052505050565b6000612c93612bfa565b9050612c9f8282612c58565b919050565b600067ffffffffffffffff821115612cbf57612cbe612c29565b5b612cc882612c18565b9050602081019050919050565b82818337600083830152505050565b6000612cf7612cf284612ca4565b612c89565b905082815260208101848484011115612d1357612d12612c13565b5b612d1e848285612cd5565b509392505050565b600082601f830112612d3b57612d3a612c0e565b5b8135612d4b848260208601612ce4565b91505092915050565b60008060008060808587031215612d6e57612d6d612c04565b5b600085013567ffffffffffffffff811115612d8c57612d8b612c09565b5b612d9887828801612d26565b945050602085013567ffffffffffffffff811115612db957612db8612c09565b5b612dc587828801612d26565b935050604085013567ffffffffffffffff811115612de657612de5612c09565b5b612df287828801612d26565b925050606085013567ffffffffffffffff811115612e1357612e12612c09565b5b612e1f87828801612d26565b91505092959194509250565b612e3481612bc6565b8114612e3f57600080fd5b50565b600081359050612e5181612e2b565b92915050565b600060208284031215612e6d57612e6c612c04565b5b6000612e7b84828501612e42565b91505092915050565b60008115159050919050565b612e9981612e84565b82525050565b6000602082019050612eb46000830184612e90565b92915050565b600073ffffffffffffffffffffffffffffffffffffffff82169050919050565b6000612ee582612eba565b9050919050565b612ef581612eda565b8114612f0057600080fd5b50565b600081359050612f1281612eec565b92915050565b60008060408385031215612f2f57612f2e612c04565b5b6000612f3d85828601612e42565b9250506020612f4e85828601612f03565b9150509250929050565b600060208284031215612f6e57612f6d612c04565b5b6000612f7c84828501612f03565b91505092915050565b600081519050919050565b600082825260208201905092915050565b60005b83811015612fbf578082015181840152602081019050612fa4565b60008484015250505050565b6000612fd682612f85565b612fe08185612f90565b9350612ff0818560208601612fa1565b612ff981612c18565b840191505092915050565b7f4e487b7100000000000000000000000000000000000000000000000000000000600052602160045260246000fd5b6004811061304457613043613004565b5b50565b600081905061305582613033565b919050565b600061306582613047565b9050919050565b6130758161305a565b82525050565b600060c08201905081810360008301526130958189612fcb565b905081810360208301526130a98188612fcb565b905081810360408301526130bd8187612fcb565b905081810360608301526130d18186612fcb565b90506130e06080830185612e90565b6130ed60a083018461306c565b979650505050505050565b61310181612eda565b82525050565b600060a08201905061311c60008301886130f8565b6131296020830187612bd0565b6131366040830186612bd0565b6131436060830185612e90565b6131506080830184612e90565b9695505050505050565b61316381612e84565b811461316e57600080fd5b50565b6000813590506131808161315a565b92915050565b60006020828403121561319c5761319b612c04565b5b60006131aa84828501613171565b91505092915050565b6000610160820190506131c9600083018e6130f8565b81810360208301526131db818d612fcb565b905081810360408301526131ef818c612fcb565b90508181036060830152613203818b612fcb565b90508181036080830152613217818a612fcb565b905061322660a0830189612e90565b61323360c0830188612bd0565b61324060e0830187612bd0565b61324e610100830186612bd0565b61325c61012083018561306c565b61326a610140830184612e90565b9c9b505050505050505050505050565b600060208201905061328f60008301846130f8565b92915050565b60006132a082612eba565b9050919050565b6132b081613295565b81146132bb57600080fd5b50565b6000813590506132cd816132a7565b92915050565b600080604083850312156132ea576132e9612c04565b5b60006132f8858286016132be565b925050602061330985828601612e42565b9150509250929050565b7f4e487b7100000000000000000000000000000000000000000000000000000000600052601160045260246000fd5b600061334d82612bc6565b915061335883612bc6565b92508282019050808211156133705761336f613313565b5b92915050565b7f4e487b7100000000000000000000000000000000000000000000000000000000600052602260045260246000fd5b600060028204905060018216806133bd57607f821691505b6020821081036133d0576133cf613376565b5b50919050565b60008190508160005260206000209050919050565b60006020601f8301049050919050565b600082821b905092915050565b6000600883026134387fffffffffffffffffffffffffffffffffffffffffffffffffffffffffffffffff826133fb565b61344286836133fb565b95508019841693508086168417925050509392505050565b6000819050919050565b600061347f61347a61347584612bc6565b61345a565b612bc6565b9050919050565b6000819050919050565b61349983613464565b6134ad6134a582613486565b848454613408565b825550505050565b600090565b6134c26134b5565b6134cd818484613490565b505050565b5b818110156134f1576134e66000826134ba565b6001810190506134d3565b5050565b601f82111561353657613507816133d6565b613510846133eb565b8101602085101561351f578190505b61353361352b856133eb565b8301826134d2565b50505b505050565b600082821c905092915050565b60006135596000198460080261353b565b1980831691505092915050565b60006135728383613548565b9150826002028217905092915050565b61358b82612f85565b67ffffffffffffffff8111156135a4576135a3612c29565b5b6135ae82546133a5565b6135b98282856134f5565b600060209050601f8311600181146135ec57600084156135da578287015190505b6135e48582613566565b86555061364c565b601f1984166135fa866133d6565b60005b82811015613622578489015182556001820191506020850194506020810190506135fd565b8683101561363f578489015161363b601f891682613548565b8355505b6001600288020188555050505b505050505050565b6000608082019050818103600083015261366e8187612fcb565b905081810360208301526136828186612fcb565b905081810360408301526136968185612fcb565b905081810360608301526136aa8184612fcb565b905095945050505050565b7f4d756c74695369675661756c743a20696e76616c696420617070726f76616c73600082015250565b60006136eb602083612f90565b91506136f6826136b5565b602082019050919050565b6000602082019050818103600083015261371a816136de565b9050919050565b7f4d756c74695369675661756c743a206e6f7420616e2061646d696e0000000000600082015250565b6000613757601b83612f90565b915061376282613721565b602082019050919050565b600060208201905081810360008301526137868161374a565b9050919050565b7f4d756c74695369675661756c743a20696e73756666696369656e74206170707260008201527f6f76616c73000000000000000000000000000000000000000000000000000000602082015250565b60006137e9602583612f90565b91506137f48261378d565b604082019050919050565b60006020820190508181036000830152613818816137dc565b9050919050565b600061382a82612bc6565b91506000820361383d5761383c613313565b5b600182039050919050565b7f5661756c743a206465706f7369746f72206973207a65726f2061646472657373600082015250565b600061387e602083612f90565b915061388982613848565b602082019050919050565b600060208201905081810360008301526138ad81613871565b9050919050565b7f4d756c74695369675661756c743a20616c726561647920657865637574656400600082015250565b60006138ea601f83612f90565b91506138f5826138b4565b602082019050919050565b60006020820190508181036000830152613919816138dd565b9050919050565b7f4d756c74695369675661756c743a20616c72656164792063616e63656c6c6564600082015250565b6000613956602083612f90565b915061396182613920565b602082019050919050565b6000602082019050818103600083015261398581613949565b9050919050565b7f4d756c74695369675661756c743a206e6f7420617574686f72697a6564000000600082015250565b60006139c2601d83612f90565b91506139cd8261398c565b602082019050919050565b600060208201905081810360008301526139f1816139b5565b9050919050565b7f4d756c74695369675661756c743a20616c726561647920617070726f76656400600082015250565b6000613a2e601f83612f90565b9150613a39826139f8565b602082019050919050565b60006020820190508181036000830152613a5d81613a21565b9050919050565b6000613a6f82612bc6565b91507fffffffffffffffffffffffffffffffffffffffffffffffffffffffffffffffff8203613aa157613aa0613313565b5b600182019050919050565b7f5661756c743a206e6f7420616374697665000000000000000000000000000000600082015250565b6000613ae2601183612f90565b9150613aed82613aac565b602082019050919050565b60006020820190508181036000830152613b1181613ad5565b9050919050565b7f5661756c743a206465706f73697420616d6f756e74206d75737420626520677260008201527f6561746572207468616e20300000000000000000000000000000000000000000602082015250565b6000613b74602c83612f90565b9150613b7f82613b18565b604082019050919050565b60006020820190508181036000830152613ba381613b67565b9050919050565b7f5661756c743a206e6f7420616c6c6f77656420746f206465706f736974000000600082015250565b6000613be0601d83612f90565b9150613beb82613baa565b602082019050919050565b60006020820190508181036000830152613c0f81613bd3565b9050919050565b7f4d756c74695369675661756c743a20696e76616c69642061646d696e00000000600082015250565b6000613c4c601c83612f90565b9150613c5782613c16565b602082019050919050565b60006020820190508181036000830152613c7b81613c3f565b9050919050565b7f4d756c74695369675661756c743a20616c72656164792061646d696e00000000600082015250565b6000613cb8601c83612f90565b9150613cc382613c82565b602082019050919050565b60006020820190508181036000830152613ce781613cab565b9050919050565b7f4d756c74695369675661756c743a20696e76616c696420726563697069656e74600082015250565b6000613d24602083612f90565b9150613d2f82613cee565b602082019050919050565b60006020820190508181036000830152613d5381613d17565b9050919050565b7f4d756c74695369675661756c743a20696e76616c696420616d6f756e74000000600082015250565b6000613d90601d83612f90565b9150613d9b82613d5a565b602082019050919050565b60006020820190508181036000830152613dbf81613d83565b9050919050565b6000613de1613ddc613dd784612eba565b61345a565b612eba565b9050919050565b6000613df382613dc6565b9050919050565b6000613e0582613de8565b9050919050565b613e1581613dfa565b82525050565b6000604082019050613e306000830185613e0c565b613e3d6020830184612bd0565b9392505050565b7f4d756c74695369675661756c743a207573652070726f706f736557697468647260008201527f6177616c20696e73746561640000000000000000000000000000000000000000602082015250565b6000613ea0602c83612f90565b9150613eab82613e44565b604082019050919050565b60006020820190508181036000830152613ecf81613e93565b9050919050565b7f4d756c74695369675661756c743a20696e73756666696369656e742062616c6160008201527f6e63650000000000000000000000000000000000000000000000000000000000602082015250565b6000613f32602383612f90565b9150613f3d82613ed6565b604082019050919050565b60006020820190508181036000830152613f6181613f25565b9050919050565b6000604082019050613f7d6000830185612bd0565b613f8a6020830184612bd0565b9392505050565b7f5661756c743a20726563697069656e74206973207a65726f2061646472657373600082015250565b6000613fc7602083612f90565b9150613fd282613f91565b602082019050919050565b60006020820190508181036000830152613ff681613fba565b9050919050565b7f5661756c743a20616d6f756e74206d757374206265206772656174657220746860008201527f616e203000000000000000000000000000000000000000000000000000000000602082015250565b6000614059602483612f90565b915061406482613ffd565b604082019050919050565b600060208201905081810360008301526140888161404c565b9050919050565b7f5661756c743a20696e73756666696369656e742062616c616e63650000000000600082015250565b60006140c5601b83612f90565b91506140d08261408f565b602082019050919050565b600060208201905081810360008301526140f4816140b8565b9050919050565b600081905092915050565b50565b60006141166000836140fb565b915061412182614106565b600082019050919050565b600061413782614109565b9150819050919050565b7f5661756c743a207472616e73666572206661696c656400000000000000000000600082015250565b6000614177601683612f90565b915061418282614141565b602082019050919050565b600060208201905081810360008301526141a68161416a565b905091905056fea264697066735822122012440be3fb6c13fb44bcc6e5fa99c0c1f1cd34d424f2e4490beae24ec1584c4e64736f6c634300081c0033",
  "linkReferences": {},
  "deployedLinkReferences": {}
}