{
  "_format": "hh-sol-artifact-1",
  "contractName": "VaultFactory",
  "sourceName": "contracts/core/VaultFactory.sol",
  "abi": [
    {
      "anonymous": false,
      "inputs": [
        {
          "indexed": true,
          "internalType": "address",
          "name": "vault",
          "type": "address"
        },
        {
          "indexed": true,
          "internalType": "address",
          "name": "owner",
          "type": "address"
        },
        {
          "indexed": false,
          "internalType": "enum IVaultFactory.VaultType",
          "name": "vaultType",
          "type": "uint8"
        },
        {
          "indexed": false,
          "internalType": "string",
          "name": "name",
          "type": "string"
        },
        {
          "indexed": false,
          "internalType": "uint256",
          "name": "timestamp",
          "type": "uint256"
        }
      ],
      "name": "VaultCreated",
      "type": "event"
    },
    {
      "inputs": [
        {
          "internalType": "string",
          "name": "_name",
          "type": "string"
        },
        {
          "internalType": "string",
          "name": "_description",
          "type": "string"
        },
        {
          "internalType": "string",
          "name": "_category",
          "type": "string"
        },
        {
          "internalType": "string",
          "name": "_imageURI",
          "type": "string"
        },
        {
          "internalType": "bool",
          "name": "_isPublic",
          "type": "bool"
        },
        {
          "internalType": "uint256",
          "name": "_targetAmount",
          "type": "uint256"
        }
      ],
      "name": "createSingleOwnerVault",
      "outputs": [
        {
          "internalType": "address",
          "name": "",
          "type": "address"
        }
      ],
      "stateMutability": "nonpayable",
      "type": "function"
    },
    {
      "inputs": [],
      "name": "getPublicVaults",
      "outputs": [
        {
          "internalType": "address[]",
          "name": "",
          "type": "address[]"
        }
      ],
      "stateMutability": "view",
      "type": "function"
    },
    {
      "inputs": [
        {
          "internalType": "address",
          "name": "_owner",
          "type": "address"
        }
      ],
      "name": "getVaultsByOwner",
      "outputs": [
        {
          "internalType": "address[]",
          "name": "",
          "type": "address[]"
        }
      ],
      "stateMutability": "view",
      "type": "function"
    },
    {
      "inputs": [
        {
          "internalType": "address",
          "name": "_vault",
          "type": "address"
        }
      ],
      "name": "isValidVault",
      "outputs": [
        {
          "internalType": "bool",
          "name": "",
          "type": "bool"
        }
      ],
      "stateMutability": "view",
      "type": "function"
    }
  ],
  "bytecode": "0x6080604052348015600f57600080fd5b5061390e8061001f6000396000f3fe608060405234801561001057600080fd5b506004361061004c5760003560e01c806327eb847c14610051578063642194501461006f578063a7797f741461009f578063ac818711146100cf575b600080fd5b6100596100ff565b60405161006691906105d0565b60405180910390f35b61008960048036038101906100849190610632565b61018d565b604051610096919061067a565b60405180910390f35b6100b960048036038101906100b4919061083d565b6101e3565b6040516100c69190610949565b60405180910390f35b6100e960048036038101906100e49190610632565b610407565b6040516100f691906105d0565b60405180910390f35b6060600180548060200260200160405190810160405280929190818152602001828054801561018357602002820191906000526020600020905b8160009054906101000a900473ffffffffffffffffffffffffffffffffffffffff1673ffffffffffffffffffffffffffffffffffffffff1681526020019060010190808311610139575b5050505050905090565b6000600260008373ffffffffffffffffffffffffffffffffffffffff1673ffffffffffffffffffffffffffffffffffffffff16815260200190815260200160002060009054906101000a900460ff169050919050565b600080338888888888886040516101f9906104d3565b61020997969594939291906109f2565b604051809103906000f080158015610225573d6000803e3d6000fd5b50905060008190506000803373ffffffffffffffffffffffffffffffffffffffff1673ffffffffffffffffffffffffffffffffffffffff168152602001908152602001600020819080600181540180825580915050600190039060005260206000200160009091909190916101000a81548173ffffffffffffffffffffffffffffffffffffffff021916908373ffffffffffffffffffffffffffffffffffffffff1602179055506001600260008373ffffffffffffffffffffffffffffffffffffffff1673ffffffffffffffffffffffffffffffffffffffff16815260200190815260200160002060006101000a81548160ff021916908315150217905550841561038e576001819080600181540180825580915050600190039060005260206000200160009091909190916101000a81548173ffffffffffffffffffffffffffffffffffffffff021916908373ffffffffffffffffffffffffffffffffffffffff1602179055505b3373ffffffffffffffffffffffffffffffffffffffff168173ffffffffffffffffffffffffffffffffffffffff167fd83f7bd10508500f3073a510d8ff734b5cf6ec5b0400a66b31664445ad3b459c60008c426040516103f093929190610af4565b60405180910390a380925050509695505050505050565b60606000808373ffffffffffffffffffffffffffffffffffffffff1673ffffffffffffffffffffffffffffffffffffffff1681526020019081526020016000208054806020026020016040519081016040528092919081815260200182805480156104c757602002820191906000526020600020905b8160009054906101000a900473ffffffffffffffffffffffffffffffffffffffff1673ffffffffffffffffffffffffffffffffffffffff168152602001906001019080831161047d575b50505050509050919050565b612da680610b3383390190565b600081519050919050565b600082825260208201905092915050565b6000819050602082019050919050565b600073ffffffffffffffffffffffffffffffffffffffff82169050919050565b60006105378261050c565b9050919050565b6105478161052c565b82525050565b6000610559838361053e565b60208301905092915050565b6000602082019050919050565b600061057d826104e0565b61058781856104eb565b9350610592836104fc565b8060005b838110156105c35781516105aa888261054d565b97506105b583610565565b925050600181019050610596565b5085935050505092915050565b600060208201905081810360008301526105ea8184610572565b905092915050565b6000604051905090565b600080fd5b600080fd5b61060f8161052c565b811461061a57600080fd5b50565b60008135905061062c81610606565b92915050565b600060208284031215610648576106476105fc565b5b60006106568482850161061d565b91505092915050565b60008115159050919050565b6106748161065f565b82525050565b600060208201905061068f600083018461066b565b92915050565b600080fd5b600080fd5b6000601f19601f8301169050919050565b7f4e487b7100000000000000000000000000000000000000000000000000000000600052604160045260246000fd5b6106e88261069f565b810181811067ffffffffffffffff82111715610707576107066106b0565b5b80604052505050565b600061071a6105f2565b905061072682826106df565b919050565b600067ffffffffffffffff821115610746576107456106b0565b5b61074f8261069f565b9050602081019050919050565b82818337600083830152505050565b600061077e6107798461072b565b610710565b90508281526020810184848401111561079a5761079961069a565b5b6107a584828561075c565b509392505050565b600082601f8301126107c2576107c1610695565b5b81356107d284826020860161076b565b91505092915050565b6107e48161065f565b81146107ef57600080fd5b50565b600081359050610801816107db565b92915050565b6000819050919050565b61081a81610807565b811461082557600080fd5b50565b60008135905061083781610811565b92915050565b60008060008060008060c0878903121561085a576108596105fc565b5b600087013567ffffffffffffffff81111561087857610877610601565b5b61088489828a016107ad565b965050602087013567ffffffffffffffff8111156108a5576108a4610601565b5b6108b189828a016107ad565b955050604087013567ffffffffffffffff8111156108d2576108d1610601565b5b6108de89828a016107ad565b945050606087013567ffffffffffffffff8111156108ff576108fe610601565b5b61090b89828a016107ad565b935050608061091c89828a016107f2565b92505060a061092d89828a01610828565b9150509295509295509295565b6109438161052c565b82525050565b600060208201905061095e600083018461093a565b92915050565b600081519050919050565b600082825260208201905092915050565b60005b8381101561099e578082015181840152602081019050610983565b60008484015250505050565b60006109b582610964565b6109bf818561096f565b93506109cf818560208601610980565b6109d88161069f565b840191505092915050565b6109ec81610807565b82525050565b600060e082019050610a07600083018a61093a565b8181036020830152610a1981896109aa565b90508181036040830152610a2d81886109aa565b90508181036060830152610a4181876109aa565b90508181036080830152610a5581866109aa565b9050610a6460a083018561066b565b610a7160c08301846109e3565b98975050505050505050565b7f4e487b7100000000000000000000000000000000000000000000000000000000600052602160045260246000fd5b60048110610abd57610abc610a7d565b5b50565b6000819050610ace82610aac565b919050565b6000610ade82610ac0565b9050919050565b610aee81610ad3565b82525050565b6000606082019050610b096000830186610ae5565b8181036020830152610b1b81856109aa565b9050610b2a60408301846109e3565b94935050505056fe60a06040526001600b60006101000a81548160ff02191690831515021790555034801561002b57600080fd5b50604051612da6380380612da6833981810160405281019061004d91906105a5565b86868686868686600087600073ffffffffffffffffffffffffffffffffffffffff168173ffffffffffffffffffffffffffffffffffffffff16036100c95760006040517f1e4fbdf70000000000000000000000000000000000000000000000000000000081526004016100c091906106c6565b60405180910390fd5b6100d8816102a060201b60201c565b50600180819055506040518060c00160405280888152602001878152602001868152602001858152602001841515815260200182600381111561011e5761011d6106e1565b5b815250600260008201518160000190816101389190610927565b50602082015181600101908161014e9190610927565b5060408201518160020190816101649190610927565b50606082015181600301908161017a9190610927565b5060808201518160040160006101000a81548160ff02191690831515021790555060a08201518160040160016101000a81548160ff021916908360038111156101c6576101c56106e1565b5b0217905550905050816007819055503373ffffffffffffffffffffffffffffffffffffffff1660808173ffffffffffffffffffffffffffffffffffffffff16815250508773ffffffffffffffffffffffffffffffffffffffff163073ffffffffffffffffffffffffffffffffffffffff167f7c4fdd76e74becdb2fc47b0eba4f584958f8994d1afbc61e3ab589febe43ddb1898989898989896003811115610271576102706106e1565b5b6040516102849796959493929190610a7d565b60405180910390a3505050505050505050505050505050610b08565b60008060009054906101000a900473ffffffffffffffffffffffffffffffffffffffff169050816000806101000a81548173ffffffffffffffffffffffffffffffffffffffff021916908373ffffffffffffffffffffffffffffffffffffffff1602179055508173ffffffffffffffffffffffffffffffffffffffff168173ffffffffffffffffffffffffffffffffffffffff167f8be0079c531659141344cd1fd0a4f28419497f9722a3daafe3b4186f6b6457e060405160405180910390a35050565b6000604051905090565b600080fd5b600080fd5b600073ffffffffffffffffffffffffffffffffffffffff82169050919050565b60006103a382610378565b9050919050565b6103b381610398565b81146103be57600080fd5b50565b6000815190506103d0816103aa565b92915050565b600080fd5b600080fd5b6000601f19601f8301169050919050565b7f4e487b7100000000000000000000000000000000000000000000000000000000600052604160045260246000fd5b610429826103e0565b810181811067ffffffffffffffff82111715610448576104476103f1565b5b80604052505050565b600061045b610364565b90506104678282610420565b919050565b600067ffffffffffffffff821115610487576104866103f1565b5b610490826103e0565b9050602081019050919050565b60005b838110156104bb5780820151818401526020810190506104a0565b60008484015250505050565b60006104da6104d58461046c565b610451565b9050828152602081018484840111156104f6576104f56103db565b5b61050184828561049d565b509392505050565b600082601f83011261051e5761051d6103d6565b5b815161052e8482602086016104c7565b91505092915050565b60008115159050919050565b61054c81610537565b811461055757600080fd5b50565b60008151905061056981610543565b92915050565b6000819050919050565b6105828161056f565b811461058d57600080fd5b50565b60008151905061059f81610579565b92915050565b600080600080600080600060e0888a0312156105c4576105c361036e565b5b60006105d28a828b016103c1565b975050602088015167ffffffffffffffff8111156105f3576105f2610373565b5b6105ff8a828b01610509565b965050604088015167ffffffffffffffff8111156106205761061f610373565b5b61062c8a828b01610509565b955050606088015167ffffffffffffffff81111561064d5761064c610373565b5b6106598a828b01610509565b945050608088015167ffffffffffffffff81111561067a57610679610373565b5b6106868a828b01610509565b93505060a06106978a828b0161055a565b92505060c06106a88a828b01610590565b91505092959891949750929550565b6106c081610398565b82525050565b60006020820190506106db60008301846106b7565b92915050565b7f4e487b7100000000000000000000000000000000000000000000000000000000600052602160045260246000fd5b600081519050919050565b7f4e487b7100000000000000000000000000000000000000000000000000000000600052602260045260246000fd5b6000600282049050600182168061076257607f821691505b6020821081036107755761077461071b565b5b50919050565b60008190508160005260206000209050919050565b60006020601f8301049050919050565b600082821b905092915050565b6000600883026107dd7fffffffffffffffffffffffffffffffffffffffffffffffffffffffffffffffff826107a0565b6107e786836107a0565b95508019841693508086168417925050509392505050565b6000819050919050565b600061082461081f61081a8461056f565b6107ff565b61056f565b9050919050565b6000819050919050565b61083e83610809565b61085261084a8261082b565b8484546107ad565b825550505050565b600090565b61086761085a565b610872818484610835565b505050565b5b818110156108965761088b60008261085f565b600181019050610878565b5050565b601f8211156108db576108ac8161077b565b6108b584610790565b810160208510156108c4578190505b6108d86108d085610790565b830182610877565b50505b505050565b600082821c905092915050565b60006108fe600019846008026108e0565b1980831691505092915050565b600061091783836108ed565b9150826002028217905092915050565b61093082610710565b67ffffffffffffffff811115610949576109486103f1565b5b610953825461074a565b61095e82828561089a565b600060209050601f831160018114610991576000841561097f578287015190505b610989858261090b565b8655506109f1565b601f19841661099f8661077b565b60005b828110156109c7578489015182556001820191506020850194506020810190506109a2565b868310156109e457848901516109e0601f8916826108ed565b8355505b6001600288020188555050505b505050505050565b600082825260208201905092915050565b6000610a1582610710565b610a1f81856109f9565b9350610a2f81856020860161049d565b610a38816103e0565b840191505092915050565b610a4c81610537565b82525050565b610a5b8161056f565b82525050565b600060ff82169050919050565b610a7781610a61565b82525050565b600060e0820190508181036000830152610a97818a610a0a565b90508181036020830152610aab8189610a0a565b90508181036040830152610abf8188610a0a565b90508181036060830152610ad38187610a0a565b9050610ae26080830186610a43565b610aef60a0830185610a52565b610afc60c0830184610a6e565b98975050505050505050565b608051612283610b236000396000610dba01526122836000f3fe6080604052600436106101235760003560e01c80638da5cb5b116100a0578063d0e30db011610064578063d0e30db0146103dd578063f2fde38b146103e7578063f3fef3a314610410578063fc7e286d14610439578063ff50abdc146104765761013e565b80638da5cb5b1461030a578063953b8fb814610335578063acec338a14610360578063c363d30514610389578063c45a0155146103b25761013e565b8063483c2ef0116100e7578063483c2ef01461021b5780634bf0d331146102585780635cbcec4e14610295578063715018a6146102be5780637f98aa71146102d55761013e565b806312065fe0146101435780631324b5021461016e57806322f3e2d414610197578063392f37e9146101c257806339df9c27146101f25761013e565b3661013e57600034111561013c5761013b33346104a1565b5b005b600080fd5b34801561014f57600080fd5b50610158610562565b604051610165919061141c565b60405180910390f35b34801561017a57600080fd5b5061019560048036038101906101909190611591565b61056a565b005b3480156101a357600080fd5b506101ac610600565b6040516101b99190611683565b60405180910390f35b3480156101ce57600080fd5b506101d7610613565b6040516101e996959493929190611794565b60405180910390f35b3480156101fe57600080fd5b506102196004803603810190610214919061186f565b610877565b005b34801561022757600080fd5b50610242600480360381019061023d919061186f565b610949565b60405161024f9190611683565b60405180910390f35b34801561026457600080fd5b5061027f600480360381019061027a919061186f565b610969565b60405161028c9190611683565b60405180910390f35b3480156102a157600080fd5b506102bc60048036038101906102b791906118c8565b6109d9565b005b3480156102ca57600080fd5b506102d3610a01565b005b3480156102e157600080fd5b506102ea610a15565b6040516103019b9a99989796959493929190611904565b60405180910390f35b34801561031657600080fd5b5061031f610cca565b60405161032c91906119cb565b60405180910390f35b34801561034157600080fd5b5061034a610cf3565b604051610357919061141c565b60405180910390f35b34801561036c57600080fd5b50610387600480360381019061038291906118c8565b610cf9565b005b34801561039557600080fd5b506103b060048036038101906103ab919061186f565b610d55565b005b3480156103be57600080fd5b506103c7610db8565b6040516103d491906119cb565b60405180910390f35b6103e5610ddc565b005b3480156103f357600080fd5b5061040e6004803603810190610409919061186f565b610f30565b005b34801561041c57600080fd5b5061043760048036038101906104329190611a50565b610fb6565b005b34801561044557600080fd5b50610460600480360381019061045b919061186f565b61104f565b60405161046d919061141c565b60405180910390f35b34801561048257600080fd5b5061048b611067565b604051610498919061141c565b60405180910390f35b80600960008473ffffffffffffffffffffffffffffffffffffffff1673ffffffffffffffffffffffffffffffffffffffff16815260200190815260200160002060008282546104f09190611abf565b9250508190555080600860008282546105099190611abf565b925050819055508173ffffffffffffffffffffffffffffffffffffffff167fe1fffcc4923d04b559f4d29a8bfc6cda04eb5b0d3c460751c2402c5c5cc9109c82604051610556919061141c565b60405180910390a25050565b600047905090565b61057261106d565b83600260000190816105849190611cff565b5082600260010190816105979190611cff565b50816002800190816105a99190611cff565b5080600260030190816105bc9190611cff565b507f24bb1be6382a86ea23d33f4dc8d5270b3462aba3c8c9709bbb07a131954cfbf5848484846040516105f29493929190611dd1565b60405180910390a150505050565b600b60009054906101000a900460ff1681565b600280600001805461062490611b22565b80601f016020809104026020016040519081016040528092919081815260200182805461065090611b22565b801561069d5780601f106106725761010080835404028352916020019161069d565b820191906000526020600020905b81548152906001019060200180831161068057829003601f168201915b5050505050908060010180546106b290611b22565b80601f01602080910402602001604051908101604052809291908181526020018280546106de90611b22565b801561072b5780601f106107005761010080835404028352916020019161072b565b820191906000526020600020905b81548152906001019060200180831161070e57829003601f168201915b50505050509080600201805461074090611b22565b80601f016020809104026020016040519081016040528092919081815260200182805461076c90611b22565b80156107b95780601f1061078e576101008083540402835291602001916107b9565b820191906000526020600020905b81548152906001019060200180831161079c57829003601f168201915b5050505050908060030180546107ce90611b22565b80601f01602080910402602001604051908101604052809291908181526020018280546107fa90611b22565b80156108475780601f1061081c57610100808354040283529160200191610847565b820191906000526020600020905b81548152906001019060200180831161082a57829003601f168201915b5050505050908060040160009054906101000a900460ff16908060040160019054906101000a900460ff16905086565b61087f61106d565b600073ffffffffffffffffffffffffffffffffffffffff168173ffffffffffffffffffffffffffffffffffffffff16036108ee576040517f08c379a00000000000000000000000000000000000000000000000000000000081526004016108e590611e7e565b60405180910390fd5b6001600a60008373ffffffffffffffffffffffffffffffffffffffff1673ffffffffffffffffffffffffffffffffffffffff16815260200190815260200160002060006101000a81548160ff02191690831515021790555050565b600a6020528060005260406000206000915054906101000a900460ff1681565b6000600260040160009054906101000a900460ff16806109d25750600a60008373ffffffffffffffffffffffffffffffffffffffff1673ffffffffffffffffffffffffffffffffffffffff16815260200190815260200160002060009054906101000a900460ff165b9050919050565b6109e161106d565b80600260040160006101000a81548160ff02191690831515021790555050565b610a0961106d565b610a1360006110f4565b565b60006060806060806000806000806000808a60026000016002600101600280016002600301600260040160009054906101000a900460ff1647600754600854600260040160019054906101000a900460ff16600b60009054906101000a900460ff16898054610a8390611b22565b80601f0160208091040260200160405190810160405280929190818152602001828054610aaf90611b22565b8015610afc5780601f10610ad157610100808354040283529160200191610afc565b820191906000526020600020905b815481529060010190602001808311610adf57829003601f168201915b50505050509950888054610b0f90611b22565b80601f0160208091040260200160405190810160405280929190818152602001828054610b3b90611b22565b8015610b885780601f10610b5d57610100808354040283529160200191610b88565b820191906000526020600020905b815481529060010190602001808311610b6b57829003601f168201915b50505050509850878054610b9b90611b22565b80601f0160208091040260200160405190810160405280929190818152602001828054610bc790611b22565b8015610c145780601f10610be957610100808354040283529160200191610c14565b820191906000526020600020905b815481529060010190602001808311610bf757829003601f168201915b50505050509750868054610c2790611b22565b80601f0160208091040260200160405190810160405280929190818152602001828054610c5390611b22565b8015610ca05780601f10610c7557610100808354040283529160200191610ca0565b820191906000526020600020905b815481529060010190602001808311610c8357829003601f168201915b505050505096509a509a509a509a509a509a509a509a509a509a509a50909192939495969798999a565b60008060009054906101000a900473ffffffffffffffffffffffffffffffffffffffff16905090565b60075481565b610d0161106d565b80600b60006101000a81548160ff0219169083151502179055507f311f3df4d32bea4781dd74cc4d0a8b9b498ddae77171dcb89ab4aa588f33068281604051610d4a9190611683565b60405180910390a150565b610d5d61106d565b6000600a60008373ffffffffffffffffffffffffffffffffffffffff1673ffffffffffffffffffffffffffffffffffffffff16815260200190815260200160002060006101000a81548160ff02191690831515021790555050565b7f000000000000000000000000000000000000000000000000000000000000000081565b600b60009054906101000a900460ff16610e2b576040517f08c379a0000000000000000000000000000000000000000000000000000000008152600401610e2290611eea565b60405180910390fd5b610e336111b8565b60003411610e76576040517f08c379a0000000000000000000000000000000000000000000000000000000008152600401610e6d90611f7c565b60405180910390fd5b600260040160009054906101000a900460ff1680610edd5750600a60003373ffffffffffffffffffffffffffffffffffffffff1673ffffffffffffffffffffffffffffffffffffffff16815260200190815260200160002060009054906101000a900460ff165b610f1c576040517f08c379a0000000000000000000000000000000000000000000000000000000008152600401610f1390611fe8565b60405180910390fd5b610f2633346104a1565b610f2e6111fe565b565b610f3861106d565b600073ffffffffffffffffffffffffffffffffffffffff168173ffffffffffffffffffffffffffffffffffffffff1603610faa5760006040517f1e4fbdf7000000000000000000000000000000000000000000000000000000008152600401610fa191906119cb565b60405180910390fd5b610fb3816110f4565b50565b610fbe61106d565b610fc66111b8565b610fd08282611207565b60006007541115611043578173ffffffffffffffffffffffffffffffffffffffff163073ffffffffffffffffffffffffffffffffffffffff167f9c6c151a8d2b011a028db068bba19b86b37145a151d281139556d0166a96e012834760405161103a929190612008565b60405180910390a35b61104b6111fe565b5050565b60096020528060005260406000206000915090505481565b60085481565b6110756113fb565b73ffffffffffffffffffffffffffffffffffffffff16611093610cca565b73ffffffffffffffffffffffffffffffffffffffff16146110f2576110b66113fb565b6040517f118cdaa70000000000000000000000000000000000000000000000000000000081526004016110e991906119cb565b60405180910390fd5b565b60008060009054906101000a900473ffffffffffffffffffffffffffffffffffffffff169050816000806101000a81548173ffffffffffffffffffffffffffffffffffffffff021916908373ffffffffffffffffffffffffffffffffffffffff1602179055508173ffffffffffffffffffffffffffffffffffffffff168173ffffffffffffffffffffffffffffffffffffffff167f8be0079c531659141344cd1fd0a4f28419497f9722a3daafe3b4186f6b6457e060405160405180910390a35050565b6002600154036111f4576040517f3ee5aeb500000000000000000000000000000000000000000000000000000000815260040160405180910390fd5b6002600181905550565b60018081905550565b600073ffffffffffffffffffffffffffffffffffffffff168273ffffffffffffffffffffffffffffffffffffffff1603611276576040517f08c379a000000000000000000000000000000000000000000000000000000000815260040161126d9061207d565b60405180910390fd5b600081116112b9576040517f08c379a00000000000000000000000000000000000000000000000000000000081526004016112b09061210f565b60405180910390fd5b478111156112fc576040517f08c379a00000000000000000000000000000000000000000000000000000000081526004016112f39061217b565b60405180910390fd5b60008273ffffffffffffffffffffffffffffffffffffffff1682604051611322906121cc565b60006040518083038185875af1925050503d806000811461135f576040519150601f19603f3d011682016040523d82523d6000602084013e611364565b606091505b50509050806113a8576040517f08c379a000000000000000000000000000000000000000000000000000000000815260040161139f9061222d565b60405180910390fd5b8273ffffffffffffffffffffffffffffffffffffffff167f7fcf532c15f0a6db0bd6d0e038bea71d30d808c7d98cb3bf7268a95bf5081b65836040516113ee919061141c565b60405180910390a2505050565b600033905090565b6000819050919050565b61141681611403565b82525050565b6000602082019050611431600083018461140d565b92915050565b6000604051905090565b600080fd5b600080fd5b600080fd5b600080fd5b6000601f19601f8301169050919050565b7f4e487b7100000000000000000000000000000000000000000000000000000000600052604160045260246000fd5b61149e82611455565b810181811067ffffffffffffffff821117156114bd576114bc611466565b5b80604052505050565b60006114d0611437565b90506114dc8282611495565b919050565b600067ffffffffffffffff8211156114fc576114fb611466565b5b61150582611455565b9050602081019050919050565b82818337600083830152505050565b600061153461152f846114e1565b6114c6565b9050828152602081018484840111156115505761154f611450565b5b61155b848285611512565b509392505050565b600082601f8301126115785761157761144b565b5b8135611588848260208601611521565b91505092915050565b600080600080608085870312156115ab576115aa611441565b5b600085013567ffffffffffffffff8111156115c9576115c8611446565b5b6115d587828801611563565b945050602085013567ffffffffffffffff8111156115f6576115f5611446565b5b61160287828801611563565b935050604085013567ffffffffffffffff81111561162357611622611446565b5b61162f87828801611563565b925050606085013567ffffffffffffffff8111156116505761164f611446565b5b61165c87828801611563565b91505092959194509250565b60008115159050919050565b61167d81611668565b82525050565b60006020820190506116986000830184611674565b92915050565b600081519050919050565b600082825260208201905092915050565b60005b838110156116d85780820151818401526020810190506116bd565b60008484015250505050565b60006116ef8261169e565b6116f981856116a9565b93506117098185602086016116ba565b61171281611455565b840191505092915050565b7f4e487b7100000000000000000000000000000000000000000000000000000000600052602160045260246000fd5b6004811061175d5761175c61171d565b5b50565b600081905061176e8261174c565b919050565b600061177e82611760565b9050919050565b61178e81611773565b82525050565b600060c08201905081810360008301526117ae81896116e4565b905081810360208301526117c281886116e4565b905081810360408301526117d681876116e4565b905081810360608301526117ea81866116e4565b90506117f96080830185611674565b61180660a0830184611785565b979650505050505050565b600073ffffffffffffffffffffffffffffffffffffffff82169050919050565b600061183c82611811565b9050919050565b61184c81611831565b811461185757600080fd5b50565b60008135905061186981611843565b92915050565b60006020828403121561188557611884611441565b5b60006118938482850161185a565b91505092915050565b6118a581611668565b81146118b057600080fd5b50565b6000813590506118c28161189c565b92915050565b6000602082840312156118de576118dd611441565b5b60006118ec848285016118b3565b91505092915050565b6118fe81611831565b82525050565b60006101608201905061191a600083018e6118f5565b818103602083015261192c818d6116e4565b90508181036040830152611940818c6116e4565b90508181036060830152611954818b6116e4565b90508181036080830152611968818a6116e4565b905061197760a0830189611674565b61198460c083018861140d565b61199160e083018761140d565b61199f61010083018661140d565b6119ad610120830185611785565b6119bb610140830184611674565b9c9b505050505050505050505050565b60006020820190506119e060008301846118f5565b92915050565b60006119f182611811565b9050919050565b611a01816119e6565b8114611a0c57600080fd5b50565b600081359050611a1e816119f8565b92915050565b611a2d81611403565b8114611a3857600080fd5b50565b600081359050611a4a81611a24565b92915050565b60008060408385031215611a6757611a66611441565b5b6000611a7585828601611a0f565b9250506020611a8685828601611a3b565b9150509250929050565b7f4e487b7100000000000000000000000000000000000000000000000000000000600052601160045260246000fd5b6000611aca82611403565b9150611ad583611403565b9250828201905080821115611aed57611aec611a90565b5b92915050565b7f4e487b7100000000000000000000000000000000000000000000000000000000600052602260045260246000fd5b60006002820490506001821680611b3a57607f821691505b602082108103611b4d57611b4c611af3565b5b50919050565b60008190508160005260206000209050919050565b60006020601f8301049050919050565b600082821b905092915050565b600060088302611bb57fffffffffffffffffffffffffffffffffffffffffffffffffffffffffffffffff82611b78565b611bbf8683611b78565b95508019841693508086168417925050509392505050565b6000819050919050565b6000611bfc611bf7611bf284611403565b611bd7565b611403565b9050919050565b6000819050919050565b611c1683611be1565b611c2a611c2282611c03565b848454611b85565b825550505050565b600090565b611c3f611c32565b611c4a818484611c0d565b505050565b5b81811015611c6e57611c63600082611c37565b600181019050611c50565b5050565b601f821115611cb357611c8481611b53565b611c8d84611b68565b81016020851015611c9c578190505b611cb0611ca885611b68565b830182611c4f565b50505b505050565b600082821c905092915050565b6000611cd660001984600802611cb8565b1980831691505092915050565b6000611cef8383611cc5565b9150826002028217905092915050565b611d088261169e565b67ffffffffffffffff811115611d2157611d20611466565b5b611d2b8254611b22565b611d36828285611c72565b600060209050601f831160018114611d695760008415611d57578287015190505b611d618582611ce3565b865550611dc9565b601f198416611d7786611b53565b60005b82811015611d9f57848901518255600182019150602085019450602081019050611d7a565b86831015611dbc5784890151611db8601f891682611cc5565b8355505b6001600288020188555050505b505050505050565b60006080820190508181036000830152611deb81876116e4565b90508181036020830152611dff81866116e4565b90508181036040830152611e1381856116e4565b90508181036060830152611e2781846116e4565b905095945050505050565b7f5661756c743a206465706f7369746f72206973207a65726f2061646472657373600082015250565b6000611e686020836116a9565b9150611e7382611e32565b602082019050919050565b60006020820190508181036000830152611e9781611e5b565b9050919050565b7f5661756c743a206e6f7420616374697665000000000000000000000000000000600082015250565b6000611ed46011836116a9565b9150611edf82611e9e565b602082019050919050565b60006020820190508181036000830152611f0381611ec7565b9050919050565b7f5661756c743a206465706f73697420616d6f756e74206d75737420626520677260008201527f6561746572207468616e20300000000000000000000000000000000000000000602082015250565b6000611f66602c836116a9565b9150611f7182611f0a565b604082019050919050565b60006020820190508181036000830152611f9581611f59565b9050919050565b7f5661756c743a206e6f7420616c6c6f77656420746f206465706f736974000000600082015250565b6000611fd2601d836116a9565b9150611fdd82611f9c565b602082019050919050565b6000602082019050818103600083015261200181611fc5565b9050919050565b600060408201905061201d600083018561140d565b61202a602083018461140d565b9392505050565b7f5661756c743a20726563697069656e74206973207a65726f2061646472657373600082015250565b60006120676020836116a9565b915061207282612031565b602082019050919050565b600060208201905081810360008301526120968161205a565b9050919050565b7f5661756c743a20616d6f756e74206d757374206265206772656174657220746860008201527f616e203000000000000000000000000000000000000000000000000000000000602082015250565b60006120f96024836116a9565b91506121048261209d565b604082019050919050565b60006020820190508181036000830152612128816120ec565b9050919050565b7f5661756c743a20696e73756666696369656e742062616c616e63650000000000600082015250565b6000612165601b836116a9565b91506121708261212f565b602082019050919050565b6000602082019050818103600083015261219481612158565b9050919050565b600081905092915050565b50565b60006121b660008361219b565b91506121c1826121a6565b600082019050919050565b60006121d7826121a9565b9150819050919050565b7f5661756c743a207472616e73666572206661696c656400000000000000000000600082015250565b60006122176016836116a9565b9150612222826121e1565b602082019050919050565b600060208201905081810360008301526122468161220a565b905091905056fea2646970667358221220a4f2b6534de4200d30aa0afb7c32890ec905e4b83be8608bc8d37d44ff560b6264736f6c634300081c0033a264697066735822122013fb67a70d0e50e1383f519fce213c16fb3072f2da695850161348100c741ac264736f6c634300081c0033",
  "linkReferences": {},
  "deployedLinkReferences": {}
}