{
  "_format": "hh-sol-artifact-1",
  "contractName": "TimelockVault",
  "sourceName": "contracts/core/VaultTypes/TimelockVault.sol",
  "abi": [
    {
      "inputs": [
        {
          "internalType": "address",
          "name": "_owner",
          "type": "address"
        },
        {
          "internalType": "string",
          "name": "_name",
          "type": "string"
        },
        {
          "internalType": "string",
          "name": "_description",
          "type": "string"
        },
        {
          "internalType": "string",
          "name": "_category",
          "type": "string"
        },
        {
          "internalType": "string",
          "name": "_imageURI",
          "type": "string"
        },
        {
          "internalType": "bool",
          "name": "_isPublic",
          "type": "bool"
        },
        {
          "internalType": "uint256",
          "name": "_targetAmount",
          "type": "uint256"
        },
        {
          "internalType": "uint256",
          "name": "_timelockDuration",
          "type": "uint256"
        }
      ],
      "stateMutability": "nonpayable",
      "type": "constructor"
    },
    {
      "inputs": [
        {
          "internalType": "address",
          "name": "owner",
          "type": "address"
        }
      ],
      "name": "OwnableInvalidOwner",
      "type": "error"
    },
    {
      "inputs": [
        {
          "internalType": "address",
          "name": "account",
          "type": "address"
        }
      ],
      "name": "OwnableUnauthorizedAccount",
      "type": "error"
    },
    {
      "inputs": [],
      "name": "ReentrancyGuardReentrantCall",
      "type": "error"
    },
    {
      "anonymous": false,
      "inputs": [
        {
          "indexed": true,
          "internalType": "address",
          "name": "vaultAddress",
          "type": "address"
        },
        {
          "indexed": true,
          "internalType": "address",
          "name": "coAdmin",
          "type": "address"
        }
      ],
      "name": "CoAdminAdded",
      "type": "event"
    },
    {
      "anonymous": false,
      "inputs": [
        {
          "indexed": true,
          "internalType": "address",
          "name": "vaultAddress",
          "type": "address"
        },
        {
          "indexed": true,
          "internalType": "address",
          "name": "coAdmin",
          "type": "address"
        }
      ],
      "name": "CoAdminRemoved",
      "type": "event"
    },
    {
      "anonymous": false,
      "inputs": [
        {
          "indexed": true,
          "internalType": "address",
          "name": "depositor",
          "type": "address"
        },
        {
          "indexed": false,
          "internalType": "uint256",
          "name": "amount",
          "type": "uint256"
        }
      ],
      "name": "Deposit",
      "type": "event"
    },
    {
      "anonymous": false,
      "inputs": [
        {
          "indexed": true,
          "internalType": "address",
          "name": "vaultAddress",
          "type": "address"
        },
        {
          "indexed": true,
          "internalType": "address",
          "name": "protocol",
          "type": "address"
        },
        {
          "indexed": false,
          "internalType": "uint256",
          "name": "amount",
          "type": "uint256"
        }
      ],
      "name": "FundsInvested",
      "type": "event"
    },
    {
      "anonymous": false,
      "inputs": [
        {
          "indexed": true,
          "internalType": "address",
          "name": "vaultAddress",
          "type": "address"
        },
        {
          "indexed": true,
          "internalType": "address",
          "name": "protocol",
          "type": "address"
        },
        {
          "indexed": false,
          "internalType": "uint256",
          "name": "amount",
          "type": "uint256"
        },
        {
          "indexed": false,
          "internalType": "uint256",
          "name": "profit",
          "type": "uint256"
        }
      ],
      "name": "InvestmentRedeemed",
      "type": "event"
    },
    {
      "anonymous": false,
      "inputs": [
        {
          "indexed": true,
          "internalType": "uint256",
          "name": "operationId",
          "type": "uint256"
        }
      ],
      "name": "OperationCancelled",
      "type": "event"
    },
    {
      "anonymous": false,
      "inputs": [
        {
          "indexed": true,
          "internalType": "uint256",
          "name": "operationId",
          "type": "uint256"
        }
      ],
      "name": "OperationExecuted",
      "type": "event"
    },
    {
      "anonymous": false,
      "inputs": [
        {
          "indexed": true,
          "internalType": "uint256",
          "name": "operationId",
          "type": "uint256"
        },
        {
          "indexed": true,
          "internalType": "address",
          "name": "recipient",
          "type": "address"
        },
        {
          "indexed": false,
          "internalType": "uint256",
          "name": "amount",
          "type": "uint256"
        },
        {
          "indexed": false,
          "internalType": "uint256",
          "name": "executeAfter",
          "type": "uint256"
        }
      ],
      "name": "OperationScheduled",
      "type": "event"
    },
    {
      "anonymous": false,
      "inputs": [
        {
          "indexed": true,
          "internalType": "address",
          "name": "previousOwner",
          "type": "address"
        },
        {
          "indexed": true,
          "internalType": "address",
          "name": "newOwner",
          "type": "address"
        }
      ],
      "name": "OwnershipTransferred",
      "type": "event"
    },
    {
      "anonymous": false,
      "inputs": [
        {
          "indexed": true,
          "internalType": "address",
          "name": "vaultAddress",
          "type": "address"
        },
        {
          "indexed": false,
          "internalType": "uint256",
          "name": "previousTarget",
          "type": "uint256"
        },
        {
          "indexed": false,
          "internalType": "uint256",
          "name": "newTarget",
          "type": "uint256"
        }
      ],
      "name": "TargetAmountUpdated",
      "type": "event"
    },
    {
      "anonymous": false,
      "inputs": [
        {
          "indexed": true,
          "internalType": "address",
          "name": "vaultAddress",
          "type": "address"
        },
        {
          "indexed": false,
          "internalType": "uint256",
          "name": "targetAmount",
          "type": "uint256"
        },
        {
          "indexed": false,
          "internalType": "uint256",
          "name": "timestamp",
          "type": "uint256"
        }
      ],
      "name": "TargetReached",
      "type": "event"
    },
    {
      "anonymous": false,
      "inputs": [
        {
          "indexed": false,
          "internalType": "uint256",
          "name": "newDuration",
          "type": "uint256"
        }
      ],
      "name": "TimelockDurationChanged",
      "type": "event"
    },
    {
      "anonymous": false,
      "inputs": [
        {
          "indexed": true,
          "internalType": "address",
          "name": "vaultAddress",
          "type": "address"
        },
        {
          "indexed": false,
          "internalType": "uint256",
          "name": "durationInSeconds",
          "type": "uint256"
        }
      ],
      "name": "TimelockSet",
      "type": "event"
    },
    {
      "anonymous": false,
      "inputs": [
        {
          "indexed": true,
          "internalType": "address",
          "name": "vaultAddress",
          "type": "address"
        },
        {
          "indexed": true,
          "internalType": "uint256",
          "name": "operationId",
          "type": "uint256"
        }
      ],
      "name": "TimelockWithdrawalCancelled",
      "type": "event"
    },
    {
      "anonymous": false,
      "inputs": [
        {
          "indexed": true,
          "internalType": "address",
          "name": "vaultAddress",
          "type": "address"
        },
        {
          "indexed": true,
          "internalType": "uint256",
          "name": "operationId",
          "type": "uint256"
        }
      ],
      "name": "TimelockWithdrawalExecuted",
      "type": "event"
    },
    {
      "anonymous": false,
      "inputs": [
        {
          "indexed": true,
          "internalType": "address",
          "name": "vaultAddress",
          "type": "address"
        },
        {
          "indexed": true,
          "internalType": "uint256",
          "name": "operationId",
          "type": "uint256"
        },
        {
          "indexed": false,
          "internalType": "address",
          "name": "recipient",
          "type": "address"
        },
        {
          "indexed": false,
          "internalType": "uint256",
          "name": "amount",
          "type": "uint256"
        },
        {
          "indexed": false,
          "internalType": "uint256",
          "name": "executeAfter",
          "type": "uint256"
        }
      ],
      "name": "TimelockWithdrawalScheduled",
      "type": "event"
    },
    {
      "anonymous": false,
      "inputs": [
        {
          "indexed": false,
          "internalType": "string",
          "name": "name",
          "type": "string"
        },
        {
          "indexed": false,
          "internalType": "string",
          "name": "description",
          "type": "string"
        },
        {
          "indexed": false,
          "internalType": "string",
          "name": "category",
          "type": "string"
        },
        {
          "indexed": false,
          "internalType": "string",
          "name": "imageURI",
          "type": "string"
        }
      ],
      "name": "VaultConfigUpdated",
      "type": "event"
    },
    {
      "anonymous": false,
      "inputs": [
        {
          "indexed": true,
          "internalType": "address",
          "name": "vaultAddress",
          "type": "address"
        },
        {
          "indexed": true,
          "internalType": "address",
          "name": "owner",
          "type": "address"
        },
        {
          "indexed": false,
          "internalType": "string",
          "name": "name",
          "type": "string"
        },
        {
          "indexed": false,
          "internalType": "string",
          "name": "description",
          "type": "string"
        },
        {
          "indexed": false,
          "internalType": "string",
          "name": "category",
          "type": "string"
        },
        {
          "indexed": false,
          "internalType": "string",
          "name": "imageURI",
          "type": "string"
        },
        {
          "indexed": false,
          "internalType": "bool",
          "name": "isPublic",
          "type": "bool"
        },
        {
          "indexed": false,
          "internalType": "uint256",
          "name": "targetAmount",
          "type": "uint256"
        },
        {
          "indexed": false,
          "internalType": "uint8",
          "name": "vaultType",
          "type": "uint8"
        }
      ],
      "name": "VaultCreated",
      "type": "event"
    },
    {
      "anonymous": false,
      "inputs": [
        {
          "indexed": true,
          "internalType": "address",
          "name": "vaultAddress",
          "type": "address"
        },
        {
          "indexed": false,
          "internalType": "uint256",
          "name": "amount",
          "type": "uint256"
        },
        {
          "indexed": false,
          "internalType": "uint256",
          "name": "currentTotal",
          "type": "uint256"
        },
        {
          "indexed": false,
          "internalType": "uint256",
          "name": "targetAmount",
          "type": "uint256"
        },
        {
          "indexed": false,
          "internalType": "bool",
          "name": "targetReached",
          "type": "bool"
        }
      ],
      "name": "VaultFunded",
      "type": "event"
    },
    {
      "anonymous": false,
      "inputs": [
        {
          "indexed": false,
          "internalType": "bool",
          "name": "isActive",
          "type": "bool"
        }
      ],
      "name": "VaultStatusChanged",
      "type": "event"
    },
    {
      "anonymous": false,
      "inputs": [
        {
          "indexed": true,
          "internalType": "address",
          "name": "vaultAddress",
          "type": "address"
        },
        {
          "indexed": true,
          "internalType": "address",
          "name": "recipient",
          "type": "address"
        },
        {
          "indexed": false,
          "internalType": "uint256",
          "name": "amount",
          "type": "uint256"
        },
        {
          "indexed": false,
          "internalType": "uint256",
          "name": "remainingBalance",
          "type": "uint256"
        }
      ],
      "name": "VaultWithdrawal",
      "type": "event"
    },
    {
      "anonymous": false,
      "inputs": [
        {
          "indexed": true,
          "internalType": "address",
          "name": "recipient",
          "type": "address"
        },
        {
          "indexed": false,
          "internalType": "uint256",
          "name": "amount",
          "type": "uint256"
        }
      ],
      "name": "Withdrawal",
      "type": "event"
    },
    {
      "anonymous": false,
      "inputs": [
        {
          "indexed": true,
          "internalType": "address",
          "name": "vaultAddress",
          "type": "address"
        },
        {
          "indexed": true,
          "internalType": "uint256",
          "name": "proposalId",
          "type": "uint256"
        },
        {
          "indexed": true,
          "internalType": "address",
          "name": "approver",
          "type": "address"
        }
      ],
      "name": "WithdrawalApproved",
      "type": "event"
    },
    {
      "anonymous": false,
      "inputs": [
        {
          "indexed": true,
          "internalType": "address",
          "name": "vaultAddress",
          "type": "address"
        },
        {
          "indexed": true,
          "internalType": "uint256",
          "name": "proposalId",
          "type": "uint256"
        },
        {
          "indexed": false,
          "internalType": "address",
          "name": "recipient",
          "type": "address"
        },
        {
          "indexed": false,
          "internalType": "uint256",
          "name": "amount",
          "type": "uint256"
        }
      ],
      "name": "WithdrawalExecuted",
      "type": "event"
    },
    {
      "anonymous": false,
      "inputs": [
        {
          "indexed": true,
          "internalType": "address",
          "name": "vaultAddress",
          "type": "address"
        },
        {
          "indexed": true,
          "internalType": "uint256",
          "name": "proposalId",
          "type": "uint256"
        },
        {
          "indexed": true,
          "internalType": "address",
          "name": "proposer",
          "type": "address"
        },
        {
          "indexed": false,
          "internalType": "address",
          "name": "recipient",
          "type": "address"
        },
        {
          "indexed": false,
          "internalType": "uint256",
          "name": "amount",
          "type": "uint256"
        }
      ],
      "name": "WithdrawalProposed",
      "type": "event"
    },
    {
      "anonymous": false,
      "inputs": [
        {
          "indexed": true,
          "internalType": "address",
          "name": "vaultAddress",
          "type": "address"
        },
        {
          "indexed": true,
          "internalType": "uint256",
          "name": "proposalId",
          "type": "uint256"
        },
        {
          "indexed": true,
          "internalType": "address",
          "name": "rejecter",
          "type": "address"
        }
      ],
      "name": "WithdrawalRejected",
      "type": "event"
    },
    {
      "inputs": [
        {
          "internalType": "address",
          "name": "_depositor",
          "type": "address"
        }
      ],
      "name": "addAllowedDepositor",
      "outputs": [],
      "stateMutability": "nonpayable",
      "type": "function"
    },
    {
      "inputs": [
        {
          "internalType": "address",
          "name": "",
          "type": "address"
        }
      ],
      "name": "allowedDepositors",
      "outputs": [
        {
          "internalType": "bool",
          "name": "",
          "type": "bool"
        }
      ],
      "stateMutability": "view",
      "type": "function"
    },
    {
      "inputs": [
        {
          "internalType": "address",
          "name": "_depositor",
          "type": "address"
        }
      ],
      "name": "canDeposit",
      "outputs": [
        {
          "internalType": "bool",
          "name": "",
          "type": "bool"
        }
      ],
      "stateMutability": "view",
      "type": "function"
    },
    {
      "inputs": [
        {
          "internalType": "uint256",
          "name": "_operationId",
          "type": "uint256"
        }
      ],
      "name": "cancelTimelockWithdrawal",
      "outputs": [],
      "stateMutability": "nonpayable",
      "type": "function"
    },
    {
      "inputs": [],
      "name": "deposit",
      "outputs": [],
      "stateMutability": "payable",
      "type": "function"
    },
    {
      "inputs": [
        {
          "internalType": "address",
          "name": "",
          "type": "address"
        }
      ],
      "name": "deposits",
      "outputs": [
        {
          "internalType": "uint256",
          "name": "",
          "type": "uint256"
        }
      ],
      "stateMutability": "view",
      "type": "function"
    },
    {
      "inputs": [
        {
          "internalType": "uint256",
          "name": "_operationId",
          "type": "uint256"
        }
      ],
      "name": "executeTimelockWithdrawal",
      "outputs": [],
      "stateMutability": "nonpayable",
      "type": "function"
    },
    {
      "inputs": [],
      "name": "factory",
      "outputs": [
        {
          "internalType": "address",
          "name": "",
          "type": "address"
        }
      ],
      "stateMutability": "view",
      "type": "function"
    },
    {
      "inputs": [],
      "name": "getBalance",
      "outputs": [
        {
          "internalType": "uint256",
          "name": "",
          "type": "uint256"
        }
      ],
      "stateMutability": "view",
      "type": "function"
    },
    {
      "inputs": [
        {
          "internalType": "uint256",
          "name": "_operationId",
          "type": "uint256"
        }
      ],
      "name": "getOperationInfo",
      "outputs": [
        {
          "internalType": "address",
          "name": "recipient",
          "type": "address"
        },
        {
          "internalType": "uint256",
          "name": "amount",
          "type": "uint256"
        },
        {
          "internalType": "uint256",
          "name": "executeAfter",
          "type": "uint256"
        },
        {
          "internalType": "bool",
          "name": "executed",
          "type": "bool"
        },
        {
          "internalType": "bool",
          "name": "cancelled",
          "type": "bool"
        },
        {
          "internalType": "bool",
          "name": "isReady",
          "type": "bool"
        }
      ],
      "stateMutability": "view",
      "type": "function"
    },
    {
      "inputs": [
        {
          "internalType": "uint256",
          "name": "_operationId",
          "type": "uint256"
        }
      ],
      "name": "getTimeRemaining",
      "outputs": [
        {
          "internalType": "uint256",
          "name": "",
          "type": "uint256"
        }
      ],
      "stateMutability": "view",
      "type": "function"
    },
    {
      "inputs": [],
      "name": "getVaultInfo",
      "outputs": [
        {
          "internalType": "address",
          "name": "owner",
          "type": "address"
        },
        {
          "internalType": "string",
          "name": "name",
          "type": "string"
        },
        {
          "internalType": "string",
          "name": "description",
          "type": "string"
        },
        {
          "internalType": "string",
          "name": "category",
          "type": "string"
        },
        {
          "internalType": "string",
          "name": "imageURI",
          "type": "string"
        },
        {
          "internalType": "bool",
          "name": "isPublic",
          "type": "bool"
        },
        {
          "internalType": "uint256",
          "name": "balance",
          "type": "uint256"
        },
        {
          "internalType": "uint256",
          "name": "target",
          "type": "uint256"
        },
        {
          "internalType": "uint256",
          "name": "total",
          "type": "uint256"
        },
        {
          "internalType": "enum BaseVault.VaultType",
          "name": "vaultType",
          "type": "uint8"
        },
        {
          "internalType": "bool",
          "name": "active",
          "type": "bool"
        }
      ],
      "stateMutability": "view",
      "type": "function"
    },
    {
      "inputs": [],
      "name": "isActive",
      "outputs": [
        {
          "internalType": "bool",
          "name": "",
          "type": "bool"
        }
      ],
      "stateMutability": "view",
      "type": "function"
    },
    {
      "inputs": [],
      "name": "metadata",
      "outputs": [
        {
          "internalType": "string",
          "name": "name",
          "type": "string"
        },
        {
          "internalType": "string",
          "name": "description",
          "type": "string"
        },
        {
          "internalType": "string",
          "name": "category",
          "type": "string"
        },
        {
          "internalType": "string",
          "name": "imageURI",
          "type": "string"
        },
        {
          "internalType": "bool",
          "name": "isPublic",
          "type": "bool"
        },
        {
          "internalType": "enum BaseVault.VaultType",
          "name": "vaultType",
          "type": "uint8"
        }
      ],
      "stateMutability": "view",
      "type": "function"
    },
    {
      "inputs": [],
      "name": "operationCount",
      "outputs": [
        {
          "internalType": "uint256",
          "name": "",
          "type": "uint256"
        }
      ],
      "stateMutability": "view",
      "type": "function"
    },
    {
      "inputs": [],
      "name": "owner",
      "outputs": [
        {
          "internalType": "address",
          "name": "",
          "type": "address"
        }
      ],
      "stateMutability": "view",
      "type": "function"
    },
    {
      "inputs": [
        {
          "internalType": "address",
          "name": "_depositor",
          "type": "address"
        }
      ],
      "name": "removeAllowedDepositor",
      "outputs": [],
      "stateMutability": "nonpayable",
      "type": "function"
    },
    {
      "inputs": [],
      "name": "renounceOwnership",
      "outputs": [],
      "stateMutability": "nonpayable",
      "type": "function"
    },
    {
      "inputs": [
        {
          "internalType": "address payable",
          "name": "_recipient",
          "type": "address"
        },
        {
          "internalType": "uint256",
          "name": "_amount",
          "type": "uint256"
        }
      ],
      "name": "scheduleWithdrawal",
      "outputs": [
        {
          "internalType": "uint256",
          "name": "",
          "type": "uint256"
        }
      ],
      "stateMutability": "nonpayable",
      "type": "function"
    },
    {
      "inputs": [
        {
          "internalType": "bool",
          "name": "_isActive",
          "type": "bool"
        }
      ],
      "name": "setActive",
      "outputs": [],
      "stateMutability": "nonpayable",
      "type": "function"
    },
    {
      "inputs": [
        {
          "internalType": "bool",
          "name": "_isPublic",
          "type": "bool"
        }
      ],
      "name": "setPublic",
      "outputs": [],
      "stateMutability": "nonpayable",
      "type": "function"
    },
    {
      "inputs": [
        {
          "internalType": "uint256",
          "name": "_newDuration",
          "type": "uint256"
        }
      ],
      "name": "setTimelockDuration",
      "outputs": [],
      "stateMutability": "nonpayable",
      "type": "function"
    },
    {
      "inputs": [],
      "name": "targetAmount",
      "outputs": [
        {
          "internalType": "uint256",
          "name": "",
          "type": "uint256"
        }
      ],
      "stateMutability": "view",
      "type": "function"
    },
    {
      "inputs": [],
      "name": "timelockDuration",
      "outputs": [
        {
          "internalType": "uint256",
          "name": "",
          "type": "uint256"
        }
      ],
      "stateMutability": "view",
      "type": "function"
    },
    {
      "inputs": [
        {
          "internalType": "uint256",
          "name": "",
          "type": "uint256"
        }
      ],
      "name": "timelockOperations",
      "outputs": [
        {
          "internalType": "address",
          "name": "recipient",
          "type": "address"
        },
        {
          "internalType": "uint256",
          "name": "amount",
          "type": "uint256"
        },
        {
          "internalType": "uint256",
          "name": "executeAfter",
          "type": "uint256"
        },
        {
          "internalType": "bool",
          "name": "executed",
          "type": "bool"
        },
        {
          "internalType": "bool",
          "name": "cancelled",
          "type": "bool"
        }
      ],
      "stateMutability": "view",
      "type": "function"
    },
    {
      "inputs": [],
      "name": "totalDeposited",
      "outputs": [
        {
          "internalType": "uint256",
          "name": "",
          "type": "uint256"
        }
      ],
      "stateMutability": "view",
      "type": "function"
    },
    {
      "inputs": [
        {
          "internalType": "address",
          "name": "newOwner",
          "type": "address"
        }
      ],
      "name": "transferOwnership",
      "outputs": [],
      "stateMutability": "nonpayable",
      "type": "function"
    },
    {
      "inputs": [
        {
          "internalType": "string",
          "name": "_name",
          "type": "string"
        },
        {
          "internalType": "string",
          "name": "_description",
          "type": "string"
        },
        {
          "internalType": "string",
          "name": "_category",
          "type": "string"
        },
        {
          "internalType": "string",
          "name": "_imageURI",
          "type": "string"
        }
      ],
      "name": "updateVaultConfig",
      "outputs": [],
      "stateMutability": "nonpayable",
      "type": "function"
    },
    {
      "inputs": [
        {
          "internalType": "address payable",
          "name": "_recipient",
          "type": "address"
        },
        {
          "internalType": "uint256",
          "name": "_amount",
          "type": "uint256"
        }
      ],
      "name": "withdraw",
      "outputs": [],
      "stateMutability": "nonpayable",
      "type": "function"
    },
    {
      "stateMutability": "payable",
      "type": "receive"
    }
  ],
  "bytecode": "0x60a06040526001600b60006101000a81548160ff02191690831515021790555034801561002b57600080fd5b5060405161405f38038061405f833981810160405281019061004d9190610675565b87878787878787600287600073ffffffffffffffffffffffffffffffffffffffff168173ffffffffffffffffffffffffffffffffffffffff16036100c95760006040517f1e4fbdf70000000000000000000000000000000000000000000000000000000081526004016100c091906107aa565b60405180910390fd5b6100d88161037060201b60201c565b50600180819055506040518060c00160405280888152602001878152602001868152602001858152602001841515815260200182600381111561011e5761011d6107c5565b5b815250600260008201518160000190816101389190610a0b565b50602082015181600101908161014e9190610a0b565b5060408201518160020190816101649190610a0b565b50606082015181600301908161017a9190610a0b565b5060808201518160040160006101000a81548160ff02191690831515021790555060a08201518160040160016101000a81548160ff021916908360038111156101c6576101c56107c5565b5b0217905550905050816007819055503373ffffffffffffffffffffffffffffffffffffffff1660808173ffffffffffffffffffffffffffffffffffffffff16815250508773ffffffffffffffffffffffffffffffffffffffff163073ffffffffffffffffffffffffffffffffffffffff167f7c4fdd76e74becdb2fc47b0eba4f584958f8994d1afbc61e3ab589febe43ddb1898989898989896003811115610271576102706107c5565b5b6040516102849796959493929190610b61565b60405180910390a35050505050505050600081116102d7576040517f08c379a00000000000000000000000000000000000000000000000000000000081526004016102ce90610c5e565b60405180910390fd5b80600c819055507f791e516e24e9bbf4fae7811c85061142b26f0c7c05a7d578e88c896f2b291b848160405161030d9190610c7e565b60405180910390a13073ffffffffffffffffffffffffffffffffffffffff167f08b0530b1e2d4941fd0b4d30dddaab6df84f54679fcc77ac2c407a61f2546a7b8260405161035b9190610c7e565b60405180910390a25050505050505050610c99565b60008060009054906101000a900473ffffffffffffffffffffffffffffffffffffffff169050816000806101000a81548173ffffffffffffffffffffffffffffffffffffffff021916908373ffffffffffffffffffffffffffffffffffffffff1602179055508173ffffffffffffffffffffffffffffffffffffffff168173ffffffffffffffffffffffffffffffffffffffff167f8be0079c531659141344cd1fd0a4f28419497f9722a3daafe3b4186f6b6457e060405160405180910390a35050565b6000604051905090565b600080fd5b600080fd5b600073ffffffffffffffffffffffffffffffffffffffff82169050919050565b600061047382610448565b9050919050565b61048381610468565b811461048e57600080fd5b50565b6000815190506104a08161047a565b92915050565b600080fd5b600080fd5b6000601f19601f8301169050919050565b7f4e487b7100000000000000000000000000000000000000000000000000000000600052604160045260246000fd5b6104f9826104b0565b810181811067ffffffffffffffff82111715610518576105176104c1565b5b80604052505050565b600061052b610434565b905061053782826104f0565b919050565b600067ffffffffffffffff821115610557576105566104c1565b5b610560826104b0565b9050602081019050919050565b60005b8381101561058b578082015181840152602081019050610570565b60008484015250505050565b60006105aa6105a58461053c565b610521565b9050828152602081018484840111156105c6576105c56104ab565b5b6105d184828561056d565b509392505050565b600082601f8301126105ee576105ed6104a6565b5b81516105fe848260208601610597565b91505092915050565b60008115159050919050565b61061c81610607565b811461062757600080fd5b50565b60008151905061063981610613565b92915050565b6000819050919050565b6106528161063f565b811461065d57600080fd5b50565b60008151905061066f81610649565b92915050565b600080600080600080600080610100898b0312156106965761069561043e565b5b60006106a48b828c01610491565b985050602089015167ffffffffffffffff8111156106c5576106c4610443565b5b6106d18b828c016105d9565b975050604089015167ffffffffffffffff8111156106f2576106f1610443565b5b6106fe8b828c016105d9565b965050606089015167ffffffffffffffff81111561071f5761071e610443565b5b61072b8b828c016105d9565b955050608089015167ffffffffffffffff81111561074c5761074b610443565b5b6107588b828c016105d9565b94505060a06107698b828c0161062a565b93505060c061077a8b828c01610660565b92505060e061078b8b828c01610660565b9150509295985092959890939650565b6107a481610468565b82525050565b60006020820190506107bf600083018461079b565b92915050565b7f4e487b7100000000000000000000000000000000000000000000000000000000600052602160045260246000fd5b600081519050919050565b7f4e487b7100000000000000000000000000000000000000000000000000000000600052602260045260246000fd5b6000600282049050600182168061084657607f821691505b602082108103610859576108586107ff565b5b50919050565b60008190508160005260206000209050919050565b60006020601f8301049050919050565b600082821b905092915050565b6000600883026108c17fffffffffffffffffffffffffffffffffffffffffffffffffffffffffffffffff82610884565b6108cb8683610884565b95508019841693508086168417925050509392505050565b6000819050919050565b60006109086109036108fe8461063f565b6108e3565b61063f565b9050919050565b6000819050919050565b610922836108ed565b61093661092e8261090f565b848454610891565b825550505050565b600090565b61094b61093e565b610956818484610919565b505050565b5b8181101561097a5761096f600082610943565b60018101905061095c565b5050565b601f8211156109bf576109908161085f565b61099984610874565b810160208510156109a8578190505b6109bc6109b485610874565b83018261095b565b50505b505050565b600082821c905092915050565b60006109e2600019846008026109c4565b1980831691505092915050565b60006109fb83836109d1565b9150826002028217905092915050565b610a14826107f4565b67ffffffffffffffff811115610a2d57610a2c6104c1565b5b610a37825461082e565b610a4282828561097e565b600060209050601f831160018114610a755760008415610a63578287015190505b610a6d85826109ef565b865550610ad5565b601f198416610a838661085f565b60005b82811015610aab57848901518255600182019150602085019450602081019050610a86565b86831015610ac85784890151610ac4601f8916826109d1565b8355505b6001600288020188555050505b505050505050565b600082825260208201905092915050565b6000610af9826107f4565b610b038185610add565b9350610b1381856020860161056d565b610b1c816104b0565b840191505092915050565b610b3081610607565b82525050565b610b3f8161063f565b82525050565b600060ff82169050919050565b610b5b81610b45565b82525050565b600060e0820190508181036000830152610b7b818a610aee565b90508181036020830152610b8f8189610aee565b90508181036040830152610ba38188610aee565b90508181036060830152610bb78187610aee565b9050610bc66080830186610b27565b610bd360a0830185610b36565b610be060c0830184610b52565b98975050505050505050565b7f54696d656c6f636b5661756c743a206475726174696f6e206d7573742062652060008201527f67726561746572207468616e2030000000000000000000000000000000000000602082015250565b6000610c48602e83610add565b9150610c5382610bec565b604082019050919050565b60006020820190508181036000830152610c7781610c3b565b9050919050565b6000602082019050610c936000830184610b36565b92915050565b6080516133ab610cb460003960006116cf01526133ab6000f3fe6080604052600436106101c65760003560e01c80637f98aa71116100f7578063c363d30511610095578063f3fef3a311610064578063f3fef3a314610658578063fc7e286d14610681578063fe614144146106be578063ff50abdc146106e7576101e1565b8063c363d305146105d1578063c45a0155146105fa578063d0e30db014610625578063f2fde38b1461062f576101e1565b80638da5cb5b116100d15780638da5cb5b14610510578063953b8fb81461053b578063acec338a14610566578063b08b62011461058f576101e1565b80637f98aa71146104755780638a7b7150146104aa5780638cd42991146104d3576101e1565b8063392f37e9116101645780634bf0d3311161013e5780634bf0d331146103b757806356160272146103f45780635cbcec4e14610435578063715018a61461045e576101e1565b8063392f37e91461032157806339df9c2714610351578063483c2ef01461037a576101e1565b806322f3e2d4116101a057806322f3e2d41461026357806323d3c1421461028e5780632bbca157146102b9578063384f69fa146102e4576101e1565b806312065fe0146101e65780631324b50214610211578063150fea091461023a576101e1565b366101e15760003411156101df576101de3334610712565b5b005b600080fd5b3480156101f257600080fd5b506101fb6107d3565b6040516102089190611f63565b60405180910390f35b34801561021d57600080fd5b50610238600480360381019061023391906120d8565b6107db565b005b34801561024657600080fd5b50610261600480360381019061025c91906121db565b610871565b005b34801561026f57600080fd5b5061027861094b565b6040516102859190612223565b60405180910390f35b34801561029a57600080fd5b506102a361095e565b6040516102b09190611f63565b60405180910390f35b3480156102c557600080fd5b506102ce610964565b6040516102db9190611f63565b60405180910390f35b3480156102f057600080fd5b5061030b6004803603810190610306919061229c565b61096a565b6040516103189190611f63565b60405180910390f35b34801561032d57600080fd5b50610336610c12565b604051610348969594939291906123d2565b60405180910390f35b34801561035d57600080fd5b506103786004803603810190610373919061248d565b610e76565b005b34801561038657600080fd5b506103a1600480360381019061039c919061248d565b610f48565b6040516103ae9190612223565b60405180910390f35b3480156103c357600080fd5b506103de60048036038101906103d9919061248d565b610f68565b6040516103eb9190612223565b60405180910390f35b34801561040057600080fd5b5061041b600480360381019061041691906121db565b610fd8565b60405161042c9594939291906124c9565b60405180910390f35b34801561044157600080fd5b5061045c60048036038101906104579190612548565b611048565b005b34801561046a57600080fd5b50610473611070565b005b34801561048157600080fd5b5061048a611084565b6040516104a19b9a99989796959493929190612575565b60405180910390f35b3480156104b657600080fd5b506104d160048036038101906104cc91906121db565b611339565b005b3480156104df57600080fd5b506104fa60048036038101906104f591906121db565b61149e565b6040516105079190611f63565b60405180910390f35b34801561051c57600080fd5b50610525611518565b604051610532919061263c565b60405180910390f35b34801561054757600080fd5b50610550611541565b60405161055d9190611f63565b60405180910390f35b34801561057257600080fd5b5061058d60048036038101906105889190612548565b611547565b005b34801561059b57600080fd5b506105b660048036038101906105b191906121db565b6115a3565b6040516105c896959493929190612657565b60405180910390f35b3480156105dd57600080fd5b506105f860048036038101906105f3919061248d565b61166a565b005b34801561060657600080fd5b5061060f6116cd565b60405161061c919061263c565b60405180910390f35b61062d6116f1565b005b34801561063b57600080fd5b506106566004803603810190610651919061248d565b611845565b005b34801561066457600080fd5b5061067f600480360381019061067a919061229c565b6118cb565b005b34801561068d57600080fd5b506106a860048036038101906106a3919061248d565b611906565b6040516106b59190611f63565b60405180910390f35b3480156106ca57600080fd5b506106e560048036038101906106e091906121db565b61191e565b005b3480156106f357600080fd5b506106fc611bae565b6040516107099190611f63565b60405180910390f35b80600960008473ffffffffffffffffffffffffffffffffffffffff1673ffffffffffffffffffffffffffffffffffffffff168152602001908152602001600020600082825461076191906126e7565b92505081905550806008600082825461077a91906126e7565b925050819055508173ffffffffffffffffffffffffffffffffffffffff167fe1fffcc4923d04b559f4d29a8bfc6cda04eb5b0d3c460751c2402c5c5cc9109c826040516107c79190611f63565b60405180910390a25050565b600047905090565b6107e3611bb4565b83600260000190816107f59190612927565b5082600260010190816108089190612927565b508160028001908161081a9190612927565b50806002600301908161082d9190612927565b507f24bb1be6382a86ea23d33f4dc8d5270b3462aba3c8c9709bbb07a131954cfbf58484848460405161086394939291906129f9565b60405180910390a150505050565b610879611bb4565b600081116108bc576040517f08c379a00000000000000000000000000000000000000000000000000000000081526004016108b390612acc565b60405180910390fd5b80600c819055507f791e516e24e9bbf4fae7811c85061142b26f0c7c05a7d578e88c896f2b291b84816040516108f29190611f63565b60405180910390a13073ffffffffffffffffffffffffffffffffffffffff167f08b0530b1e2d4941fd0b4d30dddaab6df84f54679fcc77ac2c407a61f2546a7b826040516109409190611f63565b60405180910390a250565b600b60009054906101000a900460ff1681565b600d5481565b600c5481565b6000610974611bb4565b61097c611c3b565b600073ffffffffffffffffffffffffffffffffffffffff168373ffffffffffffffffffffffffffffffffffffffff16036109eb576040517f08c379a00000000000000000000000000000000000000000000000000000000081526004016109e290612b38565b60405180910390fd5b6000821180156109fb5750478211155b610a3a576040517f08c379a0000000000000000000000000000000000000000000000000000000008152600401610a3190612ba4565b60405180910390fd5b6000600d6000815480929190610a4f90612bc4565b9190505590506000600c5442610a6591906126e7565b90506040518060a001604052808673ffffffffffffffffffffffffffffffffffffffff16815260200185815260200182815260200160001515815260200160001515815250600e600084815260200190815260200160002060008201518160000160006101000a81548173ffffffffffffffffffffffffffffffffffffffff021916908373ffffffffffffffffffffffffffffffffffffffff160217905550602082015181600101556040820151816002015560608201518160030160006101000a81548160ff02191690831515021790555060808201518160030160016101000a81548160ff0219169083151502179055509050508473ffffffffffffffffffffffffffffffffffffffff16827f028b8aad5cd232ed8c1c1db5a654f69d1f85b600c80d3b0e109ff2a6608b7dd18684604051610ba4929190612c0c565b60405180910390a3813073ffffffffffffffffffffffffffffffffffffffff167fd3e85974bf05c32b4bcef9b336113e32d3b437cc51af30ac7a47dc1f8ad43c63878785604051610bf793929190612c8a565b60405180910390a38192505050610c0c611c81565b92915050565b6002806000018054610c239061274a565b80601f0160208091040260200160405190810160405280929190818152602001828054610c4f9061274a565b8015610c9c5780601f10610c7157610100808354040283529160200191610c9c565b820191906000526020600020905b815481529060010190602001808311610c7f57829003601f168201915b505050505090806001018054610cb19061274a565b80601f0160208091040260200160405190810160405280929190818152602001828054610cdd9061274a565b8015610d2a5780601f10610cff57610100808354040283529160200191610d2a565b820191906000526020600020905b815481529060010190602001808311610d0d57829003601f168201915b505050505090806002018054610d3f9061274a565b80601f0160208091040260200160405190810160405280929190818152602001828054610d6b9061274a565b8015610db85780601f10610d8d57610100808354040283529160200191610db8565b820191906000526020600020905b815481529060010190602001808311610d9b57829003601f168201915b505050505090806003018054610dcd9061274a565b80601f0160208091040260200160405190810160405280929190818152602001828054610df99061274a565b8015610e465780601f10610e1b57610100808354040283529160200191610e46565b820191906000526020600020905b815481529060010190602001808311610e2957829003601f168201915b5050505050908060040160009054906101000a900460ff16908060040160019054906101000a900460ff16905086565b610e7e611bb4565b600073ffffffffffffffffffffffffffffffffffffffff168173ffffffffffffffffffffffffffffffffffffffff1603610eed576040517f08c379a0000000000000000000000000000000000000000000000000000000008152600401610ee490612d0d565b60405180910390fd5b6001600a60008373ffffffffffffffffffffffffffffffffffffffff1673ffffffffffffffffffffffffffffffffffffffff16815260200190815260200160002060006101000a81548160ff02191690831515021790555050565b600a6020528060005260406000206000915054906101000a900460ff1681565b6000600260040160009054906101000a900460ff1680610fd15750600a60008373ffffffffffffffffffffffffffffffffffffffff1673ffffffffffffffffffffffffffffffffffffffff16815260200190815260200160002060009054906101000a900460ff165b9050919050565b600e6020528060005260406000206000915090508060000160009054906101000a900473ffffffffffffffffffffffffffffffffffffffff16908060010154908060020154908060030160009054906101000a900460ff16908060030160019054906101000a900460ff16905085565b611050611bb4565b80600260040160006101000a81548160ff02191690831515021790555050565b611078611bb4565b6110826000611c8a565b565b60006060806060806000806000806000808a60026000016002600101600280016002600301600260040160009054906101000a900460ff1647600754600854600260040160019054906101000a900460ff16600b60009054906101000a900460ff168980546110f29061274a565b80601f016020809104026020016040519081016040528092919081815260200182805461111e9061274a565b801561116b5780601f106111405761010080835404028352916020019161116b565b820191906000526020600020905b81548152906001019060200180831161114e57829003601f168201915b5050505050995088805461117e9061274a565b80601f01602080910402602001604051908101604052809291908181526020018280546111aa9061274a565b80156111f75780601f106111cc576101008083540402835291602001916111f7565b820191906000526020600020905b8154815290600101906020018083116111da57829003601f168201915b5050505050985087805461120a9061274a565b80601f01602080910402602001604051908101604052809291908181526020018280546112369061274a565b80156112835780601f1061125857610100808354040283529160200191611283565b820191906000526020600020905b81548152906001019060200180831161126657829003601f168201915b505050505097508680546112969061274a565b80601f01602080910402602001604051908101604052809291908181526020018280546112c29061274a565b801561130f5780601f106112e45761010080835404028352916020019161130f565b820191906000526020600020905b8154815290600101906020018083116112f257829003601f168201915b505050505096509a509a509a509a509a509a509a509a509a509a509a50909192939495969798999a565b611341611bb4565b611349611c3b565b6000600e600083815260200190815260200160002090508060030160009054906101000a900460ff16156113b2576040517f08c379a00000000000000000000000000000000000000000000000000000000081526004016113a990612d79565b60405180910390fd5b8060030160019054906101000a900460ff1615611404576040517f08c379a00000000000000000000000000000000000000000000000000000000081526004016113fb90612de5565b60405180910390fd5b60018160030160016101000a81548160ff021916908315150217905550817f6b7f7505a4267990f8d5bcaf5883b6770758862c5217e7384e0b2265bdfe2b0360405160405180910390a2813073ffffffffffffffffffffffffffffffffffffffff167f74ab1a0e6e2ce65ba859de317fdb4836b1da4d0e0a0c1e1d530e1e097efe341f60405160405180910390a35061149b611c81565b50565b600080600e600084815260200190815260200160002090508060030160009054906101000a900460ff16806114e157508060030160019054906101000a900460ff165b806114f0575080600201544210155b156114ff576000915050611513565b42816002015461150f9190612e05565b9150505b919050565b60008060009054906101000a900473ffffffffffffffffffffffffffffffffffffffff16905090565b60075481565b61154f611bb4565b80600b60006101000a81548160ff0219169083151502179055507f311f3df4d32bea4781dd74cc4d0a8b9b498ddae77171dcb89ab4aa588f330682816040516115989190612223565b60405180910390a150565b6000806000806000806000600e600089815260200190815260200160002090508060000160009054906101000a900473ffffffffffffffffffffffffffffffffffffffff16816001015482600201548360030160009054906101000a900460ff168460030160019054906101000a900460ff168560020154421015801561163957508560030160009054906101000a900460ff16155b801561165457508560030160019054906101000a900460ff16155b9650965096509650965096505091939550919395565b611672611bb4565b6000600a60008373ffffffffffffffffffffffffffffffffffffffff1673ffffffffffffffffffffffffffffffffffffffff16815260200190815260200160002060006101000a81548160ff02191690831515021790555050565b7f000000000000000000000000000000000000000000000000000000000000000081565b600b60009054906101000a900460ff16611740576040517f08c379a000000000000000000000000000000000000000000000000000000000815260040161173790612e85565b60405180910390fd5b611748611c3b565b6000341161178b576040517f08c379a000000000000000000000000000000000000000000000000000000000815260040161178290612f17565b60405180910390fd5b600260040160009054906101000a900460ff16806117f25750600a60003373ffffffffffffffffffffffffffffffffffffffff1673ffffffffffffffffffffffffffffffffffffffff16815260200190815260200160002060009054906101000a900460ff165b611831576040517f08c379a000000000000000000000000000000000000000000000000000000000815260040161182890612f83565b60405180910390fd5b61183b3334610712565b611843611c81565b565b61184d611bb4565b600073ffffffffffffffffffffffffffffffffffffffff168173ffffffffffffffffffffffffffffffffffffffff16036118bf5760006040517f1e4fbdf70000000000000000000000000000000000000000000000000000000081526004016118b6919061263c565b60405180910390fd5b6118c881611c8a565b50565b6040517f08c379a00000000000000000000000000000000000000000000000000000000081526004016118fd90613015565b60405180910390fd5b60096020528060005260406000206000915090505481565b611926611c3b565b6000600e600083815260200190815260200160002090508060030160009054906101000a900460ff161561198f576040517f08c379a000000000000000000000000000000000000000000000000000000000815260040161198690612d79565b60405180910390fd5b8060030160019054906101000a900460ff16156119e1576040517f08c379a00000000000000000000000000000000000000000000000000000000081526004016119d890612de5565b60405180910390fd5b8060020154421015611a28576040517f08c379a0000000000000000000000000000000000000000000000000000000008152600401611a1f906130a7565b60405180910390fd5b4781600101541115611a6f576040517f08c379a0000000000000000000000000000000000000000000000000000000008152600401611a6690613139565b60405180910390fd5b60018160030160006101000a81548160ff02191690831515021790555060008160000160009054906101000a900473ffffffffffffffffffffffffffffffffffffffff169050600082600101549050611ac88282611d4e565b837f0e71fde518036742a4c067068719d7f9e26519ea3aef1213ae9098439bbb38de60405160405180910390a2833073ffffffffffffffffffffffffffffffffffffffff167fb29d28e302561167a2f6460a1410768605ad24066c8634bfcf3e9262f224d22860405160405180910390a38173ffffffffffffffffffffffffffffffffffffffff163073ffffffffffffffffffffffffffffffffffffffff167f9c6c151a8d2b011a028db068bba19b86b37145a151d281139556d0166a96e0128347604051611b98929190612c0c565b60405180910390a3505050611bab611c81565b50565b60085481565b611bbc611f42565b73ffffffffffffffffffffffffffffffffffffffff16611bda611518565b73ffffffffffffffffffffffffffffffffffffffff1614611c3957611bfd611f42565b6040517f118cdaa7000000000000000000000000000000000000000000000000000000008152600401611c30919061263c565b60405180910390fd5b565b600260015403611c77576040517f3ee5aeb500000000000000000000000000000000000000000000000000000000815260040160405180910390fd5b6002600181905550565b60018081905550565b60008060009054906101000a900473ffffffffffffffffffffffffffffffffffffffff169050816000806101000a81548173ffffffffffffffffffffffffffffffffffffffff021916908373ffffffffffffffffffffffffffffffffffffffff1602179055508173ffffffffffffffffffffffffffffffffffffffff168173ffffffffffffffffffffffffffffffffffffffff167f8be0079c531659141344cd1fd0a4f28419497f9722a3daafe3b4186f6b6457e060405160405180910390a35050565b600073ffffffffffffffffffffffffffffffffffffffff168273ffffffffffffffffffffffffffffffffffffffff1603611dbd576040517f08c379a0000000000000000000000000000000000000000000000000000000008152600401611db4906131a5565b60405180910390fd5b60008111611e00576040517f08c379a0000000000000000000000000000000000000000000000000000000008152600401611df790613237565b60405180910390fd5b47811115611e43576040517f08c379a0000000000000000000000000000000000000000000000000000000008152600401611e3a906132a3565b60405180910390fd5b60008273ffffffffffffffffffffffffffffffffffffffff1682604051611e69906132f4565b60006040518083038185875af1925050503d8060008114611ea6576040519150601f19603f3d011682016040523d82523d6000602084013e611eab565b606091505b5050905080611eef576040517f08c379a0000000000000000000000000000000000000000000000000000000008152600401611ee690613355565b60405180910390fd5b8273ffffffffffffffffffffffffffffffffffffffff167f7fcf532c15f0a6db0bd6d0e038bea71d30d808c7d98cb3bf7268a95bf5081b6583604051611f359190611f63565b60405180910390a2505050565b600033905090565b6000819050919050565b611f5d81611f4a565b82525050565b6000602082019050611f786000830184611f54565b92915050565b6000604051905090565b600080fd5b600080fd5b600080fd5b600080fd5b6000601f19601f8301169050919050565b7f4e487b7100000000000000000000000000000000000000000000000000000000600052604160045260246000fd5b611fe582611f9c565b810181811067ffffffffffffffff8211171561200457612003611fad565b5b80604052505050565b6000612017611f7e565b90506120238282611fdc565b919050565b600067ffffffffffffffff82111561204357612042611fad565b5b61204c82611f9c565b9050602081019050919050565b82818337600083830152505050565b600061207b61207684612028565b61200d565b90508281526020810184848401111561209757612096611f97565b5b6120a2848285612059565b509392505050565b600082601f8301126120bf576120be611f92565b5b81356120cf848260208601612068565b91505092915050565b600080600080608085870312156120f2576120f1611f88565b5b600085013567ffffffffffffffff8111156121105761210f611f8d565b5b61211c878288016120aa565b945050602085013567ffffffffffffffff81111561213d5761213c611f8d565b5b612149878288016120aa565b935050604085013567ffffffffffffffff81111561216a57612169611f8d565b5b612176878288016120aa565b925050606085013567ffffffffffffffff81111561219757612196611f8d565b5b6121a3878288016120aa565b91505092959194509250565b6121b881611f4a565b81146121c357600080fd5b50565b6000813590506121d5816121af565b92915050565b6000602082840312156121f1576121f0611f88565b5b60006121ff848285016121c6565b91505092915050565b60008115159050919050565b61221d81612208565b82525050565b60006020820190506122386000830184612214565b92915050565b600073ffffffffffffffffffffffffffffffffffffffff82169050919050565b60006122698261223e565b9050919050565b6122798161225e565b811461228457600080fd5b50565b60008135905061229681612270565b92915050565b600080604083850312156122b3576122b2611f88565b5b60006122c185828601612287565b92505060206122d2858286016121c6565b9150509250929050565b600081519050919050565b600082825260208201905092915050565b60005b838110156123165780820151818401526020810190506122fb565b60008484015250505050565b600061232d826122dc565b61233781856122e7565b93506123478185602086016122f8565b61235081611f9c565b840191505092915050565b7f4e487b7100000000000000000000000000000000000000000000000000000000600052602160045260246000fd5b6004811061239b5761239a61235b565b5b50565b60008190506123ac8261238a565b919050565b60006123bc8261239e565b9050919050565b6123cc816123b1565b82525050565b600060c08201905081810360008301526123ec8189612322565b905081810360208301526124008188612322565b905081810360408301526124148187612322565b905081810360608301526124288186612322565b90506124376080830185612214565b61244460a08301846123c3565b979650505050505050565b600061245a8261223e565b9050919050565b61246a8161244f565b811461247557600080fd5b50565b60008135905061248781612461565b92915050565b6000602082840312156124a3576124a2611f88565b5b60006124b184828501612478565b91505092915050565b6124c38161244f565b82525050565b600060a0820190506124de60008301886124ba565b6124eb6020830187611f54565b6124f86040830186611f54565b6125056060830185612214565b6125126080830184612214565b9695505050505050565b61252581612208565b811461253057600080fd5b50565b6000813590506125428161251c565b92915050565b60006020828403121561255e5761255d611f88565b5b600061256c84828501612533565b91505092915050565b60006101608201905061258b600083018e6124ba565b818103602083015261259d818d612322565b905081810360408301526125b1818c612322565b905081810360608301526125c5818b612322565b905081810360808301526125d9818a612322565b90506125e860a0830189612214565b6125f560c0830188611f54565b61260260e0830187611f54565b612610610100830186611f54565b61261e6101208301856123c3565b61262c610140830184612214565b9c9b505050505050505050505050565b600060208201905061265160008301846124ba565b92915050565b600060c08201905061266c60008301896124ba565b6126796020830188611f54565b6126866040830187611f54565b6126936060830186612214565b6126a06080830185612214565b6126ad60a0830184612214565b979650505050505050565b7f4e487b7100000000000000000000000000000000000000000000000000000000600052601160045260246000fd5b60006126f282611f4a565b91506126fd83611f4a565b9250828201905080821115612715576127146126b8565b5b92915050565b7f4e487b7100000000000000000000000000000000000000000000000000000000600052602260045260246000fd5b6000600282049050600182168061276257607f821691505b6020821081036127755761277461271b565b5b50919050565b60008190508160005260206000209050919050565b60006020601f8301049050919050565b600082821b905092915050565b6000600883026127dd7fffffffffffffffffffffffffffffffffffffffffffffffffffffffffffffffff826127a0565b6127e786836127a0565b95508019841693508086168417925050509392505050565b6000819050919050565b600061282461281f61281a84611f4a565b6127ff565b611f4a565b9050919050565b6000819050919050565b61283e83612809565b61285261284a8261282b565b8484546127ad565b825550505050565b600090565b61286761285a565b612872818484612835565b505050565b5b818110156128965761288b60008261285f565b600181019050612878565b5050565b601f8211156128db576128ac8161277b565b6128b584612790565b810160208510156128c4578190505b6128d86128d085612790565b830182612877565b50505b505050565b600082821c905092915050565b60006128fe600019846008026128e0565b1980831691505092915050565b600061291783836128ed565b9150826002028217905092915050565b612930826122dc565b67ffffffffffffffff81111561294957612948611fad565b5b612953825461274a565b61295e82828561289a565b600060209050601f831160018114612991576000841561297f578287015190505b612989858261290b565b8655506129f1565b601f19841661299f8661277b565b60005b828110156129c7578489015182556001820191506020850194506020810190506129a2565b868310156129e457848901516129e0601f8916826128ed565b8355505b6001600288020188555050505b505050505050565b60006080820190508181036000830152612a138187612322565b90508181036020830152612a278186612322565b90508181036040830152612a3b8185612322565b90508181036060830152612a4f8184612322565b905095945050505050565b7f54696d656c6f636b5661756c743a206475726174696f6e206d7573742062652060008201527f67726561746572207468616e2030000000000000000000000000000000000000602082015250565b6000612ab6602e836122e7565b9150612ac182612a5a565b604082019050919050565b60006020820190508181036000830152612ae581612aa9565b9050919050565b7f54696d656c6f636b5661756c743a20696e76616c696420726563697069656e74600082015250565b6000612b226020836122e7565b9150612b2d82612aec565b602082019050919050565b60006020820190508181036000830152612b5181612b15565b9050919050565b7f54696d656c6f636b5661756c743a20696e76616c696420616d6f756e74000000600082015250565b6000612b8e601d836122e7565b9150612b9982612b58565b602082019050919050565b60006020820190508181036000830152612bbd81612b81565b9050919050565b6000612bcf82611f4a565b91507fffffffffffffffffffffffffffffffffffffffffffffffffffffffffffffffff8203612c0157612c006126b8565b5b600182019050919050565b6000604082019050612c216000830185611f54565b612c2e6020830184611f54565b9392505050565b6000612c50612c4b612c468461223e565b6127ff565b61223e565b9050919050565b6000612c6282612c35565b9050919050565b6000612c7482612c57565b9050919050565b612c8481612c69565b82525050565b6000606082019050612c9f6000830186612c7b565b612cac6020830185611f54565b612cb96040830184611f54565b949350505050565b7f5661756c743a206465706f7369746f72206973207a65726f2061646472657373600082015250565b6000612cf76020836122e7565b9150612d0282612cc1565b602082019050919050565b60006020820190508181036000830152612d2681612cea565b9050919050565b7f54696d656c6f636b5661756c743a20616c726561647920657865637574656400600082015250565b6000612d63601f836122e7565b9150612d6e82612d2d565b602082019050919050565b60006020820190508181036000830152612d9281612d56565b9050919050565b7f54696d656c6f636b5661756c743a20616c72656164792063616e63656c6c6564600082015250565b6000612dcf6020836122e7565b9150612dda82612d99565b602082019050919050565b60006020820190508181036000830152612dfe81612dc2565b9050919050565b6000612e1082611f4a565b9150612e1b83611f4a565b9250828203905081811115612e3357612e326126b8565b5b92915050565b7f5661756c743a206e6f7420616374697665000000000000000000000000000000600082015250565b6000612e6f6011836122e7565b9150612e7a82612e39565b602082019050919050565b60006020820190508181036000830152612e9e81612e62565b9050919050565b7f5661756c743a206465706f73697420616d6f756e74206d75737420626520677260008201527f6561746572207468616e20300000000000000000000000000000000000000000602082015250565b6000612f01602c836122e7565b9150612f0c82612ea5565b604082019050919050565b60006020820190508181036000830152612f3081612ef4565b9050919050565b7f5661756c743a206e6f7420616c6c6f77656420746f206465706f736974000000600082015250565b6000612f6d601d836122e7565b9150612f7882612f37565b602082019050919050565b60006020820190508181036000830152612f9c81612f60565b9050919050565b7f54696d656c6f636b5661756c743a20757365207363686564756c65576974686460008201527f726177616c20696e737465616400000000000000000000000000000000000000602082015250565b6000612fff602d836122e7565b915061300a82612fa3565b604082019050919050565b6000602082019050818103600083015261302e81612ff2565b9050919050565b7f54696d656c6f636b5661756c743a2074696d656c6f636b206e6f74206578706960008201527f7265640000000000000000000000000000000000000000000000000000000000602082015250565b60006130916023836122e7565b915061309c82613035565b604082019050919050565b600060208201905081810360008301526130c081613084565b9050919050565b7f54696d656c6f636b5661756c743a20696e73756666696369656e742062616c6160008201527f6e63650000000000000000000000000000000000000000000000000000000000602082015250565b60006131236023836122e7565b915061312e826130c7565b604082019050919050565b6000602082019050818103600083015261315281613116565b9050919050565b7f5661756c743a20726563697069656e74206973207a65726f2061646472657373600082015250565b600061318f6020836122e7565b915061319a82613159565b602082019050919050565b600060208201905081810360008301526131be81613182565b9050919050565b7f5661756c743a20616d6f756e74206d757374206265206772656174657220746860008201527f616e203000000000000000000000000000000000000000000000000000000000602082015250565b60006132216024836122e7565b915061322c826131c5565b604082019050919050565b6000602082019050818103600083015261325081613214565b9050919050565b7f5661756c743a20696e73756666696369656e742062616c616e63650000000000600082015250565b600061328d601b836122e7565b915061329882613257565b602082019050919050565b600060208201905081810360008301526132bc81613280565b9050919050565b600081905092915050565b50565b60006132de6000836132c3565b91506132e9826132ce565b600082019050919050565b60006132ff826132d1565b9150819050919050565b7f5661756c743a207472616e73666572206661696c656400000000000000000000600082015250565b600061333f6016836122e7565b915061334a82613309565b602082019050919050565b6000602082019050818103600083015261336e81613332565b905091905056fea2646970667358221220c15062435577f879e201cca81ec20ed8b1ebbb48ce740f7d9c8b245a9413772f64736f6c634300081c0033",
  "linkReferences": {},
  "deployedLinkReferences": {}
}