{
  "_format": "hh-sol-artifact-1",
  "contractName": "SingleOwnerVault",
  "sourceName": "contracts/core/VaultTypes/SingleOwnerVault.sol",
  "abi": [
    {
      "inputs": [
        {
          "internalType": "address",
          "name": "_owner",
          "type": "address"
        },
        {
          "internalType": "string",
          "name": "_name",
          "type": "string"
        },
        {
          "internalType": "string",
          "name": "_description",
          "type": "string"
        },
        {
          "internalType": "string",
          "name": "_category",
          "type": "string"
        },
        {
          "internalType": "string",
          "name": "_imageURI",
          "type": "string"
        },
        {
          "internalType": "bool",
          "name": "_isPublic",
          "type": "bool"
        },
        {
          "internalType": "uint256",
          "name": "_targetAmount",
          "type": "uint256"
        }
      ],
      "stateMutability": "nonpayable",
      "type": "constructor"
    },
    {
      "inputs": [
        {
          "internalType": "address",
          "name": "owner",
          "type": "address"
        }
      ],
      "name": "OwnableInvalidOwner",
      "type": "error"
    },
    {
      "inputs": [
        {
          "internalType": "address",
          "name": "account",
          "type": "address"
        }
      ],
      "name": "OwnableUnauthorizedAccount",
      "type": "error"
    },
    {
      "inputs": [],
      "name": "ReentrancyGuardReentrantCall",
      "type": "error"
    },
    {
      "anonymous": false,
      "inputs": [
        {
          "indexed": true,
          "internalType": "address",
          "name": "vaultAddress",
          "type": "address"
        },
        {
          "indexed": true,
          "internalType": "address",
          "name": "coAdmin",
          "type": "address"
        }
      ],
      "name": "CoAdminAdded",
      "type": "event"
    },
    {
      "anonymous": false,
      "inputs": [
        {
          "indexed": true,
          "internalType": "address",
          "name": "vaultAddress",
          "type": "address"
        },
        {
          "indexed": true,
          "internalType": "address",
          "name": "coAdmin",
          "type": "address"
        }
      ],
      "name": "CoAdminRemoved",
      "type": "event"
    },
    {
      "anonymous": false,
      "inputs": [
        {
          "indexed": true,
          "internalType": "address",
          "name": "depositor",
          "type": "address"
        },
        {
          "indexed": false,
          "internalType": "uint256",
          "name": "amount",
          "type": "uint256"
        }
      ],
      "name": "Deposit",
      "type": "event"
    },
    {
      "anonymous": false,
      "inputs": [
        {
          "indexed": true,
          "internalType": "address",
          "name": "vaultAddress",
          "type": "address"
        },
        {
          "indexed": true,
          "internalType": "address",
          "name": "protocol",
          "type": "address"
        },
        {
          "indexed": false,
          "internalType": "uint256",
          "name": "amount",
          "type": "uint256"
        }
      ],
      "name": "FundsInvested",
      "type": "event"
    },
    {
      "anonymous": false,
      "inputs": [
        {
          "indexed": true,
          "internalType": "address",
          "name": "vaultAddress",
          "type": "address"
        },
        {
          "indexed": true,
          "internalType": "address",
          "name": "protocol",
          "type": "address"
        },
        {
          "indexed": false,
          "internalType": "uint256",
          "name": "amount",
          "type": "uint256"
        },
        {
          "indexed": false,
          "internalType": "uint256",
          "name": "profit",
          "type": "uint256"
        }
      ],
      "name": "InvestmentRedeemed",
      "type": "event"
    },
    {
      "anonymous": false,
      "inputs": [
        {
          "indexed": true,
          "internalType": "address",
          "name": "previousOwner",
          "type": "address"
        },
        {
          "indexed": true,
          "internalType": "address",
          "name": "newOwner",
          "type": "address"
        }
      ],
      "name": "OwnershipTransferred",
      "type": "event"
    },
    {
      "anonymous": false,
      "inputs": [
        {
          "indexed": true,
          "internalType": "address",
          "name": "vaultAddress",
          "type": "address"
        },
        {
          "indexed": false,
          "internalType": "uint256",
          "name": "previousTarget",
          "type": "uint256"
        },
        {
          "indexed": false,
          "internalType": "uint256",
          "name": "newTarget",
          "type": "uint256"
        }
      ],
      "name": "TargetAmountUpdated",
      "type": "event"
    },
    {
      "anonymous": false,
      "inputs": [
        {
          "indexed": true,
          "internalType": "address",
          "name": "vaultAddress",
          "type": "address"
        },
        {
          "indexed": false,
          "internalType": "uint256",
          "name": "targetAmount",
          "type": "uint256"
        },
        {
          "indexed": false,
          "internalType": "uint256",
          "name": "timestamp",
          "type": "uint256"
        }
      ],
      "name": "TargetReached",
      "type": "event"
    },
    {
      "anonymous": false,
      "inputs": [
        {
          "indexed": true,
          "internalType": "address",
          "name": "vaultAddress",
          "type": "address"
        },
        {
          "indexed": false,
          "internalType": "uint256",
          "name": "durationInSeconds",
          "type": "uint256"
        }
      ],
      "name": "TimelockSet",
      "type": "event"
    },
    {
      "anonymous": false,
      "inputs": [
        {
          "indexed": true,
          "internalType": "address",
          "name": "vaultAddress",
          "type": "address"
        },
        {
          "indexed": true,
          "internalType": "uint256",
          "name": "operationId",
          "type": "uint256"
        }
      ],
      "name": "TimelockWithdrawalCancelled",
      "type": "event"
    },
    {
      "anonymous": false,
      "inputs": [
        {
          "indexed": true,
          "internalType": "address",
          "name": "vaultAddress",
          "type": "address"
        },
        {
          "indexed": true,
          "internalType": "uint256",
          "name": "operationId",
          "type": "uint256"
        }
      ],
      "name": "TimelockWithdrawalExecuted",
      "type": "event"
    },
    {
      "anonymous": false,
      "inputs": [
        {
          "indexed": true,
          "internalType": "address",
          "name": "vaultAddress",
          "type": "address"
        },
        {
          "indexed": true,
          "internalType": "uint256",
          "name": "operationId",
          "type": "uint256"
        },
        {
          "indexed": false,
          "internalType": "address",
          "name": "recipient",
          "type": "address"
        },
        {
          "indexed": false,
          "internalType": "uint256",
          "name": "amount",
          "type": "uint256"
        },
        {
          "indexed": false,
          "internalType": "uint256",
          "name": "executeAfter",
          "type": "uint256"
        }
      ],
      "name": "TimelockWithdrawalScheduled",
      "type": "event"
    },
    {
      "anonymous": false,
      "inputs": [
        {
          "indexed": false,
          "internalType": "string",
          "name": "name",
          "type": "string"
        },
        {
          "indexed": false,
          "internalType": "string",
          "name": "description",
          "type": "string"
        },
        {
          "indexed": false,
          "internalType": "string",
          "name": "category",
          "type": "string"
        },
        {
          "indexed": false,
          "internalType": "string",
          "name": "imageURI",
          "type": "string"
        }
      ],
      "name": "VaultConfigUpdated",
      "type": "event"
    },
    {
      "anonymous": false,
      "inputs": [
        {
          "indexed": true,
          "internalType": "address",
          "name": "vaultAddress",
          "type": "address"
        },
        {
          "indexed": true,
          "internalType": "address",
          "name": "owner",
          "type": "address"
        },
        {
          "indexed": false,
          "internalType": "string",
          "name": "name",
          "type": "string"
        },
        {
          "indexed": false,
          "internalType": "string",
          "name": "description",
          "type": "string"
        },
        {
          "indexed": false,
          "internalType": "string",
          "name": "category",
          "type": "string"
        },
        {
          "indexed": false,
          "internalType": "string",
          "name": "imageURI",
          "type": "string"
        },
        {
          "indexed": false,
          "internalType": "bool",
          "name": "isPublic",
          "type": "bool"
        },
        {
          "indexed": false,
          "internalType": "uint256",
          "name": "targetAmount",
          "type": "uint256"
        },
        {
          "indexed": false,
          "internalType": "uint8",
          "name": "vaultType",
          "type": "uint8"
        }
      ],
      "name": "VaultCreated",
      "type": "event"
    },
    {
      "anonymous": false,
      "inputs": [
        {
          "indexed": true,
          "internalType": "address",
          "name": "vaultAddress",
          "type": "address"
        },
        {
          "indexed": false,
          "internalType": "uint256",
          "name": "amount",
          "type": "uint256"
        },
        {
          "indexed": false,
          "internalType": "uint256",
          "name": "currentTotal",
          "type": "uint256"
        },
        {
          "indexed": false,
          "internalType": "uint256",
          "name": "targetAmount",
          "type": "uint256"
        },
        {
          "indexed": false,
          "internalType": "bool",
          "name": "targetReached",
          "type": "bool"
        }
      ],
      "name": "VaultFunded",
      "type": "event"
    },
    {
      "anonymous": false,
      "inputs": [
        {
          "indexed": false,
          "internalType": "bool",
          "name": "isActive",
          "type": "bool"
        }
      ],
      "name": "VaultStatusChanged",
      "type": "event"
    },
    {
      "anonymous": false,
      "inputs": [
        {
          "indexed": true,
          "internalType": "address",
          "name": "vaultAddress",
          "type": "address"
        },
        {
          "indexed": true,
          "internalType": "address",
          "name": "recipient",
          "type": "address"
        },
        {
          "indexed": false,
          "internalType": "uint256",
          "name": "amount",
          "type": "uint256"
        },
        {
          "indexed": false,
          "internalType": "uint256",
          "name": "remainingBalance",
          "type": "uint256"
        }
      ],
      "name": "VaultWithdrawal",
      "type": "event"
    },
    {
      "anonymous": false,
      "inputs": [
        {
          "indexed": true,
          "internalType": "address",
          "name": "recipient",
          "type": "address"
        },
        {
          "indexed": false,
          "internalType": "uint256",
          "name": "amount",
          "type": "uint256"
        }
      ],
      "name": "Withdrawal",
      "type": "event"
    },
    {
      "anonymous": false,
      "inputs": [
        {
          "indexed": true,
          "internalType": "address",
          "name": "vaultAddress",
          "type": "address"
        },
        {
          "indexed": true,
          "internalType": "uint256",
          "name": "proposalId",
          "type": "uint256"
        },
        {
          "indexed": true,
          "internalType": "address",
          "name": "approver",
          "type": "address"
        }
      ],
      "name": "WithdrawalApproved",
      "type": "event"
    },
    {
      "anonymous": false,
      "inputs": [
        {
          "indexed": true,
          "internalType": "address",
          "name": "vaultAddress",
          "type": "address"
        },
        {
          "indexed": true,
          "internalType": "uint256",
          "name": "proposalId",
          "type": "uint256"
        },
        {
          "indexed": false,
          "internalType": "address",
          "name": "recipient",
          "type": "address"
        },
        {
          "indexed": false,
          "internalType": "uint256",
          "name": "amount",
          "type": "uint256"
        }
      ],
      "name": "WithdrawalExecuted",
      "type": "event"
    },
    {
      "anonymous": false,
      "inputs": [
        {
          "indexed": true,
          "internalType": "address",
          "name": "vaultAddress",
          "type": "address"
        },
        {
          "indexed": true,
          "internalType": "uint256",
          "name": "proposalId",
          "type": "uint256"
        },
        {
          "indexed": true,
          "internalType": "address",
          "name": "proposer",
          "type": "address"
        },
        {
          "indexed": false,
          "internalType": "address",
          "name": "recipient",
          "type": "address"
        },
        {
          "indexed": false,
          "internalType": "uint256",
          "name": "amount",
          "type": "uint256"
        }
      ],
      "name": "WithdrawalProposed",
      "type": "event"
    },
    {
      "anonymous": false,
      "inputs": [
        {
          "indexed": true,
          "internalType": "address",
          "name": "vaultAddress",
          "type": "address"
        },
        {
          "indexed": true,
          "internalType": "uint256",
          "name": "proposalId",
          "type": "uint256"
        },
        {
          "indexed": true,
          "internalType": "address",
          "name": "rejecter",
          "type": "address"
        }
      ],
      "name": "WithdrawalRejected",
      "type": "event"
    },
    {
      "inputs": [
        {
          "internalType": "address",
          "name": "_depositor",
          "type": "address"
        }
      ],
      "name": "addAllowedDepositor",
      "outputs": [],
      "stateMutability": "nonpayable",
      "type": "function"
    },
    {
      "inputs": [
        {
          "internalType": "address",
          "name": "",
          "type": "address"
        }
      ],
      "name": "allowedDepositors",
      "outputs": [
        {
          "internalType": "bool",
          "name": "",
          "type": "bool"
        }
      ],
      "stateMutability": "view",
      "type": "function"
    },
    {
      "inputs": [
        {
          "internalType": "address",
          "name": "_depositor",
          "type": "address"
        }
      ],
      "name": "canDeposit",
      "outputs": [
        {
          "internalType": "bool",
          "name": "",
          "type": "bool"
        }
      ],
      "stateMutability": "view",
      "type": "function"
    },
    {
      "inputs": [],
      "name": "deposit",
      "outputs": [],
      "stateMutability": "payable",
      "type": "function"
    },
    {
      "inputs": [
        {
          "internalType": "address",
          "name": "",
          "type": "address"
        }
      ],
      "name": "deposits",
      "outputs": [
        {
          "internalType": "uint256",
          "name": "",
          "type": "uint256"
        }
      ],
      "stateMutability": "view",
      "type": "function"
    },
    {
      "inputs": [],
      "name": "factory",
      "outputs": [
        {
          "internalType": "address",
          "name": "",
          "type": "address"
        }
      ],
      "stateMutability": "view",
      "type": "function"
    },
    {
      "inputs": [],
      "name": "getBalance",
      "outputs": [
        {
          "internalType": "uint256",
          "name": "",
          "type": "uint256"
        }
      ],
      "stateMutability": "view",
      "type": "function"
    },
    {
      "inputs": [],
      "name": "getVaultInfo",
      "outputs": [
        {
          "internalType": "address",
          "name": "owner",
          "type": "address"
        },
        {
          "internalType": "string",
          "name": "name",
          "type": "string"
        },
        {
          "internalType": "string",
          "name": "description",
          "type": "string"
        },
        {
          "internalType": "string",
          "name": "category",
          "type": "string"
        },
        {
          "internalType": "string",
          "name": "imageURI",
          "type": "string"
        },
        {
          "internalType": "bool",
          "name": "isPublic",
          "type": "bool"
        },
        {
          "internalType": "uint256",
          "name": "balance",
          "type": "uint256"
        },
        {
          "internalType": "uint256",
          "name": "target",
          "type": "uint256"
        },
        {
          "internalType": "uint256",
          "name": "total",
          "type": "uint256"
        },
        {
          "internalType": "enum BaseVault.VaultType",
          "name": "vaultType",
          "type": "uint8"
        },
        {
          "internalType": "bool",
          "name": "active",
          "type": "bool"
        }
      ],
      "stateMutability": "view",
      "type": "function"
    },
    {
      "inputs": [],
      "name": "isActive",
      "outputs": [
        {
          "internalType": "bool",
          "name": "",
          "type": "bool"
        }
      ],
      "stateMutability": "view",
      "type": "function"
    },
    {
      "inputs": [],
      "name": "metadata",
      "outputs": [
        {
          "internalType": "string",
          "name": "name",
          "type": "string"
        },
        {
          "internalType": "string",
          "name": "description",
          "type": "string"
        },
        {
          "internalType": "string",
          "name": "category",
          "type": "string"
        },
        {
          "internalType": "string",
          "name": "imageURI",
          "type": "string"
        },
        {
          "internalType": "bool",
          "name": "isPublic",
          "type": "bool"
        },
        {
          "internalType": "enum BaseVault.VaultType",
          "name": "vaultType",
          "type": "uint8"
        }
      ],
      "stateMutability": "view",
      "type": "function"
    },
    {
      "inputs": [],
      "name": "owner",
      "outputs": [
        {
          "internalType": "address",
          "name": "",
          "type": "address"
        }
      ],
      "stateMutability": "view",
      "type": "function"
    },
    {
      "inputs": [
        {
          "internalType": "address",
          "name": "_depositor",
          "type": "address"
        }
      ],
      "name": "removeAllowedDepositor",
      "outputs": [],
      "stateMutability": "nonpayable",
      "type": "function"
    },
    {
      "inputs": [],
      "name": "renounceOwnership",
      "outputs": [],
      "stateMutability": "nonpayable",
      "type": "function"
    },
    {
      "inputs": [
        {
          "internalType": "bool",
          "name": "_isActive",
          "type": "bool"
        }
      ],
      "name": "setActive",
      "outputs": [],
      "stateMutability": "nonpayable",
      "type": "function"
    },
    {
      "inputs": [
        {
          "internalType": "bool",
          "name": "_isPublic",
          "type": "bool"
        }
      ],
      "name": "setPublic",
      "outputs": [],
      "stateMutability": "nonpayable",
      "type": "function"
    },
    {
      "inputs": [],
      "name": "targetAmount",
      "outputs": [
        {
          "internalType": "uint256",
          "name": "",
          "type": "uint256"
        }
      ],
      "stateMutability": "view",
      "type": "function"
    },
    {
      "inputs": [],
      "name": "totalDeposited",
      "outputs": [
        {
          "internalType": "uint256",
          "name": "",
          "type": "uint256"
        }
      ],
      "stateMutability": "view",
      "type": "function"
    },
    {
      "inputs": [
        {
          "internalType": "address",
          "name": "newOwner",
          "type": "address"
        }
      ],
      "name": "transferOwnership",
      "outputs": [],
      "stateMutability": "nonpayable",
      "type": "function"
    },
    {
      "inputs": [
        {
          "internalType": "string",
          "name": "_name",
          "type": "string"
        },
        {
          "internalType": "string",
          "name": "_description",
          "type": "string"
        },
        {
          "internalType": "string",
          "name": "_category",
          "type": "string"
        },
        {
          "internalType": "string",
          "name": "_imageURI",
          "type": "string"
        }
      ],
      "name": "updateVaultConfig",
      "outputs": [],
      "stateMutability": "nonpayable",
      "type": "function"
    },
    {
      "inputs": [
        {
          "internalType": "address payable",
          "name": "_recipient",
          "type": "address"
        },
        {
          "internalType": "uint256",
          "name": "_amount",
          "type": "uint256"
        }
      ],
      "name": "withdraw",
      "outputs": [],
      "stateMutability": "nonpayable",
      "type": "function"
    },
    {
      "stateMutability": "payable",
      "type": "receive"
    }
  ],
  "bytecode": "0x60a06040526001600b60006101000a81548160ff02191690831515021790555034801561002b57600080fd5b50604051612da6380380612da6833981810160405281019061004d91906105a5565b86868686868686600087600073ffffffffffffffffffffffffffffffffffffffff168173ffffffffffffffffffffffffffffffffffffffff16036100c95760006040517f1e4fbdf70000000000000000000000000000000000000000000000000000000081526004016100c091906106c6565b60405180910390fd5b6100d8816102a060201b60201c565b50600180819055506040518060c00160405280888152602001878152602001868152602001858152602001841515815260200182600381111561011e5761011d6106e1565b5b815250600260008201518160000190816101389190610927565b50602082015181600101908161014e9190610927565b5060408201518160020190816101649190610927565b50606082015181600301908161017a9190610927565b5060808201518160040160006101000a81548160ff02191690831515021790555060a08201518160040160016101000a81548160ff021916908360038111156101c6576101c56106e1565b5b0217905550905050816007819055503373ffffffffffffffffffffffffffffffffffffffff1660808173ffffffffffffffffffffffffffffffffffffffff16815250508773ffffffffffffffffffffffffffffffffffffffff163073ffffffffffffffffffffffffffffffffffffffff167f7c4fdd76e74becdb2fc47b0eba4f584958f8994d1afbc61e3ab589febe43ddb1898989898989896003811115610271576102706106e1565b5b6040516102849796959493929190610a7d565b60405180910390a3505050505050505050505050505050610b08565b60008060009054906101000a900473ffffffffffffffffffffffffffffffffffffffff169050816000806101000a81548173ffffffffffffffffffffffffffffffffffffffff021916908373ffffffffffffffffffffffffffffffffffffffff1602179055508173ffffffffffffffffffffffffffffffffffffffff168173ffffffffffffffffffffffffffffffffffffffff167f8be0079c531659141344cd1fd0a4f28419497f9722a3daafe3b4186f6b6457e060405160405180910390a35050565b6000604051905090565b600080fd5b600080fd5b600073ffffffffffffffffffffffffffffffffffffffff82169050919050565b60006103a382610378565b9050919050565b6103b381610398565b81146103be57600080fd5b50565b6000815190506103d0816103aa565b92915050565b600080fd5b600080fd5b6000601f19601f8301169050919050565b7f4e487b7100000000000000000000000000000000000000000000000000000000600052604160045260246000fd5b610429826103e0565b810181811067ffffffffffffffff82111715610448576104476103f1565b5b80604052505050565b600061045b610364565b90506104678282610420565b919050565b600067ffffffffffffffff821115610487576104866103f1565b5b610490826103e0565b9050602081019050919050565b60005b838110156104bb5780820151818401526020810190506104a0565b60008484015250505050565b60006104da6104d58461046c565b610451565b9050828152602081018484840111156104f6576104f56103db565b5b61050184828561049d565b509392505050565b600082601f83011261051e5761051d6103d6565b5b815161052e8482602086016104c7565b91505092915050565b60008115159050919050565b61054c81610537565b811461055757600080fd5b50565b60008151905061056981610543565b92915050565b6000819050919050565b6105828161056f565b811461058d57600080fd5b50565b60008151905061059f81610579565b92915050565b600080600080600080600060e0888a0312156105c4576105c361036e565b5b60006105d28a828b016103c1565b975050602088015167ffffffffffffffff8111156105f3576105f2610373565b5b6105ff8a828b01610509565b965050604088015167ffffffffffffffff8111156106205761061f610373565b5b61062c8a828b01610509565b955050606088015167ffffffffffffffff81111561064d5761064c610373565b5b6106598a828b01610509565b945050608088015167ffffffffffffffff81111561067a57610679610373565b5b6106868a828b01610509565b93505060a06106978a828b0161055a565b92505060c06106a88a828b01610590565b91505092959891949750929550565b6106c081610398565b82525050565b60006020820190506106db60008301846106b7565b92915050565b7f4e487b7100000000000000000000000000000000000000000000000000000000600052602160045260246000fd5b600081519050919050565b7f4e487b7100000000000000000000000000000000000000000000000000000000600052602260045260246000fd5b6000600282049050600182168061076257607f821691505b6020821081036107755761077461071b565b5b50919050565b60008190508160005260206000209050919050565b60006020601f8301049050919050565b600082821b905092915050565b6000600883026107dd7fffffffffffffffffffffffffffffffffffffffffffffffffffffffffffffffff826107a0565b6107e786836107a0565b95508019841693508086168417925050509392505050565b6000819050919050565b600061082461081f61081a8461056f565b6107ff565b61056f565b9050919050565b6000819050919050565b61083e83610809565b61085261084a8261082b565b8484546107ad565b825550505050565b600090565b61086761085a565b610872818484610835565b505050565b5b818110156108965761088b60008261085f565b600181019050610878565b5050565b601f8211156108db576108ac8161077b565b6108b584610790565b810160208510156108c4578190505b6108d86108d085610790565b830182610877565b50505b505050565b600082821c905092915050565b60006108fe600019846008026108e0565b1980831691505092915050565b600061091783836108ed565b9150826002028217905092915050565b61093082610710565b67ffffffffffffffff811115610949576109486103f1565b5b610953825461074a565b61095e82828561089a565b600060209050601f831160018114610991576000841561097f578287015190505b610989858261090b565b8655506109f1565b601f19841661099f8661077b565b60005b828110156109c7578489015182556001820191506020850194506020810190506109a2565b868310156109e457848901516109e0601f8916826108ed565b8355505b6001600288020188555050505b505050505050565b600082825260208201905092915050565b6000610a1582610710565b610a1f81856109f9565b9350610a2f81856020860161049d565b610a38816103e0565b840191505092915050565b610a4c81610537565b82525050565b610a5b8161056f565b82525050565b600060ff82169050919050565b610a7781610a61565b82525050565b600060e0820190508181036000830152610a97818a610a0a565b90508181036020830152610aab8189610a0a565b90508181036040830152610abf8188610a0a565b90508181036060830152610ad38187610a0a565b9050610ae26080830186610a43565b610aef60a0830185610a52565b610afc60c0830184610a6e565b98975050505050505050565b608051612283610b236000396000610dba01526122836000f3fe6080604052600436106101235760003560e01c80638da5cb5b116100a0578063d0e30db011610064578063d0e30db0146103dd578063f2fde38b146103e7578063f3fef3a314610410578063fc7e286d14610439578063ff50abdc146104765761013e565b80638da5cb5b1461030a578063953b8fb814610335578063acec338a14610360578063c363d30514610389578063c45a0155146103b25761013e565b8063483c2ef0116100e7578063483c2ef01461021b5780634bf0d331146102585780635cbcec4e14610295578063715018a6146102be5780637f98aa71146102d55761013e565b806312065fe0146101435780631324b5021461016e57806322f3e2d414610197578063392f37e9146101c257806339df9c27146101f25761013e565b3661013e57600034111561013c5761013b33346104a1565b5b005b600080fd5b34801561014f57600080fd5b50610158610562565b604051610165919061141c565b60405180910390f35b34801561017a57600080fd5b5061019560048036038101906101909190611591565b61056a565b005b3480156101a357600080fd5b506101ac610600565b6040516101b99190611683565b60405180910390f35b3480156101ce57600080fd5b506101d7610613565b6040516101e996959493929190611794565b60405180910390f35b3480156101fe57600080fd5b506102196004803603810190610214919061186f565b610877565b005b34801561022757600080fd5b50610242600480360381019061023d919061186f565b610949565b60405161024f9190611683565b60405180910390f35b34801561026457600080fd5b5061027f600480360381019061027a919061186f565b610969565b60405161028c9190611683565b60405180910390f35b3480156102a157600080fd5b506102bc60048036038101906102b791906118c8565b6109d9565b005b3480156102ca57600080fd5b506102d3610a01565b005b3480156102e157600080fd5b506102ea610a15565b6040516103019b9a99989796959493929190611904565b60405180910390f35b34801561031657600080fd5b5061031f610cca565b60405161032c91906119cb565b60405180910390f35b34801561034157600080fd5b5061034a610cf3565b604051610357919061141c565b60405180910390f35b34801561036c57600080fd5b50610387600480360381019061038291906118c8565b610cf9565b005b34801561039557600080fd5b506103b060048036038101906103ab919061186f565b610d55565b005b3480156103be57600080fd5b506103c7610db8565b6040516103d491906119cb565b60405180910390f35b6103e5610ddc565b005b3480156103f357600080fd5b5061040e6004803603810190610409919061186f565b610f30565b005b34801561041c57600080fd5b5061043760048036038101906104329190611a50565b610fb6565b005b34801561044557600080fd5b50610460600480360381019061045b919061186f565b61104f565b60405161046d919061141c565b60405180910390f35b34801561048257600080fd5b5061048b611067565b604051610498919061141c565b60405180910390f35b80600960008473ffffffffffffffffffffffffffffffffffffffff1673ffffffffffffffffffffffffffffffffffffffff16815260200190815260200160002060008282546104f09190611abf565b9250508190555080600860008282546105099190611abf565b925050819055508173ffffffffffffffffffffffffffffffffffffffff167fe1fffcc4923d04b559f4d29a8bfc6cda04eb5b0d3c460751c2402c5c5cc9109c82604051610556919061141c565b60405180910390a25050565b600047905090565b61057261106d565b83600260000190816105849190611cff565b5082600260010190816105979190611cff565b50816002800190816105a99190611cff565b5080600260030190816105bc9190611cff565b507f24bb1be6382a86ea23d33f4dc8d5270b3462aba3c8c9709bbb07a131954cfbf5848484846040516105f29493929190611dd1565b60405180910390a150505050565b600b60009054906101000a900460ff1681565b600280600001805461062490611b22565b80601f016020809104026020016040519081016040528092919081815260200182805461065090611b22565b801561069d5780601f106106725761010080835404028352916020019161069d565b820191906000526020600020905b81548152906001019060200180831161068057829003601f168201915b5050505050908060010180546106b290611b22565b80601f01602080910402602001604051908101604052809291908181526020018280546106de90611b22565b801561072b5780601f106107005761010080835404028352916020019161072b565b820191906000526020600020905b81548152906001019060200180831161070e57829003601f168201915b50505050509080600201805461074090611b22565b80601f016020809104026020016040519081016040528092919081815260200182805461076c90611b22565b80156107b95780601f1061078e576101008083540402835291602001916107b9565b820191906000526020600020905b81548152906001019060200180831161079c57829003601f168201915b5050505050908060030180546107ce90611b22565b80601f01602080910402602001604051908101604052809291908181526020018280546107fa90611b22565b80156108475780601f1061081c57610100808354040283529160200191610847565b820191906000526020600020905b81548152906001019060200180831161082a57829003601f168201915b5050505050908060040160009054906101000a900460ff16908060040160019054906101000a900460ff16905086565b61087f61106d565b600073ffffffffffffffffffffffffffffffffffffffff168173ffffffffffffffffffffffffffffffffffffffff16036108ee576040517f08c379a00000000000000000000000000000000000000000000000000000000081526004016108e590611e7e565b60405180910390fd5b6001600a60008373ffffffffffffffffffffffffffffffffffffffff1673ffffffffffffffffffffffffffffffffffffffff16815260200190815260200160002060006101000a81548160ff02191690831515021790555050565b600a6020528060005260406000206000915054906101000a900460ff1681565b6000600260040160009054906101000a900460ff16806109d25750600a60008373ffffffffffffffffffffffffffffffffffffffff1673ffffffffffffffffffffffffffffffffffffffff16815260200190815260200160002060009054906101000a900460ff165b9050919050565b6109e161106d565b80600260040160006101000a81548160ff02191690831515021790555050565b610a0961106d565b610a1360006110f4565b565b60006060806060806000806000806000808a60026000016002600101600280016002600301600260040160009054906101000a900460ff1647600754600854600260040160019054906101000a900460ff16600b60009054906101000a900460ff16898054610a8390611b22565b80601f0160208091040260200160405190810160405280929190818152602001828054610aaf90611b22565b8015610afc5780601f10610ad157610100808354040283529160200191610afc565b820191906000526020600020905b815481529060010190602001808311610adf57829003601f168201915b50505050509950888054610b0f90611b22565b80601f0160208091040260200160405190810160405280929190818152602001828054610b3b90611b22565b8015610b885780601f10610b5d57610100808354040283529160200191610b88565b820191906000526020600020905b815481529060010190602001808311610b6b57829003601f168201915b50505050509850878054610b9b90611b22565b80601f0160208091040260200160405190810160405280929190818152602001828054610bc790611b22565b8015610c145780601f10610be957610100808354040283529160200191610c14565b820191906000526020600020905b815481529060010190602001808311610bf757829003601f168201915b50505050509750868054610c2790611b22565b80601f0160208091040260200160405190810160405280929190818152602001828054610c5390611b22565b8015610ca05780601f10610c7557610100808354040283529160200191610ca0565b820191906000526020600020905b815481529060010190602001808311610c8357829003601f168201915b505050505096509a509a509a509a509a509a509a509a509a509a509a50909192939495969798999a565b60008060009054906101000a900473ffffffffffffffffffffffffffffffffffffffff16905090565b60075481565b610d0161106d565b80600b60006101000a81548160ff0219169083151502179055507f311f3df4d32bea4781dd74cc4d0a8b9b498ddae77171dcb89ab4aa588f33068281604051610d4a9190611683565b60405180910390a150565b610d5d61106d565b6000600a60008373ffffffffffffffffffffffffffffffffffffffff1673ffffffffffffffffffffffffffffffffffffffff16815260200190815260200160002060006101000a81548160ff02191690831515021790555050565b7f000000000000000000000000000000000000000000000000000000000000000081565b600b60009054906101000a900460ff16610e2b576040517f08c379a0000000000000000000000000000000000000000000000000000000008152600401610e2290611eea565b60405180910390fd5b610e336111b8565b60003411610e76576040517f08c379a0000000000000000000000000000000000000000000000000000000008152600401610e6d90611f7c565b60405180910390fd5b600260040160009054906101000a900460ff1680610edd5750600a60003373ffffffffffffffffffffffffffffffffffffffff1673ffffffffffffffffffffffffffffffffffffffff16815260200190815260200160002060009054906101000a900460ff165b610f1c576040517f08c379a0000000000000000000000000000000000000000000000000000000008152600401610f1390611fe8565b60405180910390fd5b610f2633346104a1565b610f2e6111fe565b565b610f3861106d565b600073ffffffffffffffffffffffffffffffffffffffff168173ffffffffffffffffffffffffffffffffffffffff1603610faa5760006040517f1e4fbdf7000000000000000000000000000000000000000000000000000000008152600401610fa191906119cb565b60405180910390fd5b610fb3816110f4565b50565b610fbe61106d565b610fc66111b8565b610fd08282611207565b60006007541115611043578173ffffffffffffffffffffffffffffffffffffffff163073ffffffffffffffffffffffffffffffffffffffff167f9c6c151a8d2b011a028db068bba19b86b37145a151d281139556d0166a96e012834760405161103a929190612008565b60405180910390a35b61104b6111fe565b5050565b60096020528060005260406000206000915090505481565b60085481565b6110756113fb565b73ffffffffffffffffffffffffffffffffffffffff16611093610cca565b73ffffffffffffffffffffffffffffffffffffffff16146110f2576110b66113fb565b6040517f118cdaa70000000000000000000000000000000000000000000000000000000081526004016110e991906119cb565b60405180910390fd5b565b60008060009054906101000a900473ffffffffffffffffffffffffffffffffffffffff169050816000806101000a81548173ffffffffffffffffffffffffffffffffffffffff021916908373ffffffffffffffffffffffffffffffffffffffff1602179055508173ffffffffffffffffffffffffffffffffffffffff168173ffffffffffffffffffffffffffffffffffffffff167f8be0079c531659141344cd1fd0a4f28419497f9722a3daafe3b4186f6b6457e060405160405180910390a35050565b6002600154036111f4576040517f3ee5aeb500000000000000000000000000000000000000000000000000000000815260040160405180910390fd5b6002600181905550565b60018081905550565b600073ffffffffffffffffffffffffffffffffffffffff168273ffffffffffffffffffffffffffffffffffffffff1603611276576040517f08c379a000000000000000000000000000000000000000000000000000000000815260040161126d9061207d565b60405180910390fd5b600081116112b9576040517f08c379a00000000000000000000000000000000000000000000000000000000081526004016112b09061210f565b60405180910390fd5b478111156112fc576040517f08c379a00000000000000000000000000000000000000000000000000000000081526004016112f39061217b565b60405180910390fd5b60008273ffffffffffffffffffffffffffffffffffffffff1682604051611322906121cc565b60006040518083038185875af1925050503d806000811461135f576040519150601f19603f3d011682016040523d82523d6000602084013e611364565b606091505b50509050806113a8576040517f08c379a000000000000000000000000000000000000000000000000000000000815260040161139f9061222d565b60405180910390fd5b8273ffffffffffffffffffffffffffffffffffffffff167f7fcf532c15f0a6db0bd6d0e038bea71d30d808c7d98cb3bf7268a95bf5081b65836040516113ee919061141c565b60405180910390a2505050565b600033905090565b6000819050919050565b61141681611403565b82525050565b6000602082019050611431600083018461140d565b92915050565b6000604051905090565b600080fd5b600080fd5b600080fd5b600080fd5b6000601f19601f8301169050919050565b7f4e487b7100000000000000000000000000000000000000000000000000000000600052604160045260246000fd5b61149e82611455565b810181811067ffffffffffffffff821117156114bd576114bc611466565b5b80604052505050565b60006114d0611437565b90506114dc8282611495565b919050565b600067ffffffffffffffff8211156114fc576114fb611466565b5b61150582611455565b9050602081019050919050565b82818337600083830152505050565b600061153461152f846114e1565b6114c6565b9050828152602081018484840111156115505761154f611450565b5b61155b848285611512565b509392505050565b600082601f8301126115785761157761144b565b5b8135611588848260208601611521565b91505092915050565b600080600080608085870312156115ab576115aa611441565b5b600085013567ffffffffffffffff8111156115c9576115c8611446565b5b6115d587828801611563565b945050602085013567ffffffffffffffff8111156115f6576115f5611446565b5b61160287828801611563565b935050604085013567ffffffffffffffff81111561162357611622611446565b5b61162f87828801611563565b925050606085013567ffffffffffffffff8111156116505761164f611446565b5b61165c87828801611563565b91505092959194509250565b60008115159050919050565b61167d81611668565b82525050565b60006020820190506116986000830184611674565b92915050565b600081519050919050565b600082825260208201905092915050565b60005b838110156116d85780820151818401526020810190506116bd565b60008484015250505050565b60006116ef8261169e565b6116f981856116a9565b93506117098185602086016116ba565b61171281611455565b840191505092915050565b7f4e487b7100000000000000000000000000000000000000000000000000000000600052602160045260246000fd5b6004811061175d5761175c61171d565b5b50565b600081905061176e8261174c565b919050565b600061177e82611760565b9050919050565b61178e81611773565b82525050565b600060c08201905081810360008301526117ae81896116e4565b905081810360208301526117c281886116e4565b905081810360408301526117d681876116e4565b905081810360608301526117ea81866116e4565b90506117f96080830185611674565b61180660a0830184611785565b979650505050505050565b600073ffffffffffffffffffffffffffffffffffffffff82169050919050565b600061183c82611811565b9050919050565b61184c81611831565b811461185757600080fd5b50565b60008135905061186981611843565b92915050565b60006020828403121561188557611884611441565b5b60006118938482850161185a565b91505092915050565b6118a581611668565b81146118b057600080fd5b50565b6000813590506118c28161189c565b92915050565b6000602082840312156118de576118dd611441565b5b60006118ec848285016118b3565b91505092915050565b6118fe81611831565b82525050565b60006101608201905061191a600083018e6118f5565b818103602083015261192c818d6116e4565b90508181036040830152611940818c6116e4565b90508181036060830152611954818b6116e4565b90508181036080830152611968818a6116e4565b905061197760a0830189611674565b61198460c083018861140d565b61199160e083018761140d565b61199f61010083018661140d565b6119ad610120830185611785565b6119bb610140830184611674565b9c9b505050505050505050505050565b60006020820190506119e060008301846118f5565b92915050565b60006119f182611811565b9050919050565b611a01816119e6565b8114611a0c57600080fd5b50565b600081359050611a1e816119f8565b92915050565b611a2d81611403565b8114611a3857600080fd5b50565b600081359050611a4a81611a24565b92915050565b60008060408385031215611a6757611a66611441565b5b6000611a7585828601611a0f565b9250506020611a8685828601611a3b565b9150509250929050565b7f4e487b7100000000000000000000000000000000000000000000000000000000600052601160045260246000fd5b6000611aca82611403565b9150611ad583611403565b9250828201905080821115611aed57611aec611a90565b5b92915050565b7f4e487b7100000000000000000000000000000000000000000000000000000000600052602260045260246000fd5b60006002820490506001821680611b3a57607f821691505b602082108103611b4d57611b4c611af3565b5b50919050565b60008190508160005260206000209050919050565b60006020601f8301049050919050565b600082821b905092915050565b600060088302611bb57fffffffffffffffffffffffffffffffffffffffffffffffffffffffffffffffff82611b78565b611bbf8683611b78565b95508019841693508086168417925050509392505050565b6000819050919050565b6000611bfc611bf7611bf284611403565b611bd7565b611403565b9050919050565b6000819050919050565b611c1683611be1565b611c2a611c2282611c03565b848454611b85565b825550505050565b600090565b611c3f611c32565b611c4a818484611c0d565b505050565b5b81811015611c6e57611c63600082611c37565b600181019050611c50565b5050565b601f821115611cb357611c8481611b53565b611c8d84611b68565b81016020851015611c9c578190505b611cb0611ca885611b68565b830182611c4f565b50505b505050565b600082821c905092915050565b6000611cd660001984600802611cb8565b1980831691505092915050565b6000611cef8383611cc5565b9150826002028217905092915050565b611d088261169e565b67ffffffffffffffff811115611d2157611d20611466565b5b611d2b8254611b22565b611d36828285611c72565b600060209050601f831160018114611d695760008415611d57578287015190505b611d618582611ce3565b865550611dc9565b601f198416611d7786611b53565b60005b82811015611d9f57848901518255600182019150602085019450602081019050611d7a565b86831015611dbc5784890151611db8601f891682611cc5565b8355505b6001600288020188555050505b505050505050565b60006080820190508181036000830152611deb81876116e4565b90508181036020830152611dff81866116e4565b90508181036040830152611e1381856116e4565b90508181036060830152611e2781846116e4565b905095945050505050565b7f5661756c743a206465706f7369746f72206973207a65726f2061646472657373600082015250565b6000611e686020836116a9565b9150611e7382611e32565b602082019050919050565b60006020820190508181036000830152611e9781611e5b565b9050919050565b7f5661756c743a206e6f7420616374697665000000000000000000000000000000600082015250565b6000611ed46011836116a9565b9150611edf82611e9e565b602082019050919050565b60006020820190508181036000830152611f0381611ec7565b9050919050565b7f5661756c743a206465706f73697420616d6f756e74206d75737420626520677260008201527f6561746572207468616e20300000000000000000000000000000000000000000602082015250565b6000611f66602c836116a9565b9150611f7182611f0a565b604082019050919050565b60006020820190508181036000830152611f9581611f59565b9050919050565b7f5661756c743a206e6f7420616c6c6f77656420746f206465706f736974000000600082015250565b6000611fd2601d836116a9565b9150611fdd82611f9c565b602082019050919050565b6000602082019050818103600083015261200181611fc5565b9050919050565b600060408201905061201d600083018561140d565b61202a602083018461140d565b9392505050565b7f5661756c743a20726563697069656e74206973207a65726f2061646472657373600082015250565b60006120676020836116a9565b915061207282612031565b602082019050919050565b600060208201905081810360008301526120968161205a565b9050919050565b7f5661756c743a20616d6f756e74206d757374206265206772656174657220746860008201527f616e203000000000000000000000000000000000000000000000000000000000602082015250565b60006120f96024836116a9565b91506121048261209d565b604082019050919050565b60006020820190508181036000830152612128816120ec565b9050919050565b7f5661756c743a20696e73756666696369656e742062616c616e63650000000000600082015250565b6000612165601b836116a9565b91506121708261212f565b602082019050919050565b6000602082019050818103600083015261219481612158565b9050919050565b600081905092915050565b50565b60006121b660008361219b565b91506121c1826121a6565b600082019050919050565b60006121d7826121a9565b9150819050919050565b7f5661756c743a207472616e73666572206661696c656400000000000000000000600082015250565b60006122176016836116a9565b9150612222826121e1565b602082019050919050565b600060208201905081810360008301526122468161220a565b905091905056fea2646970667358221220a4f2b6534de4200d30aa0afb7c32890ec905e4b83be8608bc8d37d44ff560b6264736f6c634300081c0033",
  "linkReferences": {},
  "deployedLinkReferences": {}
}